:020000040800F2
:10000000FC8F0020C90B0008C50B0008C50B0008B9
:10001000C50B0008C50B0008C50B00080000000058
:10002000000000000000000000000000C50B0008F8
:10003000C50B000800000000C50B0008C50B000838
:10004000C50B0008C50B0008C50B0008C50B000850
:10005000C50B0008C50B0008C50B0008C50B000840
:10006000C50B0008C50B0008C50B00080D050008EE
:10007000690E0008C50B0008C50B0008C50B000879
:10008000C50B0008C50B0008C50B0008C50B000810
:10009000C50B0008C50B0008C50B0008C50B000800
:1000A000C50B0008C50B0008C50B0008C50B0008F0
:1000B000C50B0008C50B0008C50B0008C50B0008E0
:1000C000C50B0008C50B0008C50B0008C50B0008D0
:1000D000C50B0008650E0008C50B0008610E00087E
:1000E000C50B0008C50B0008C50B0008C50B0008B0
:1000F000C50B0008C50B0008C50B00080505000866
:10010000C50B0008C50B0008C50B00081505000845
:10011000C50B0008C50B0008C50B0008C50B00087F
:10012000C50B0008C50B0008890E0008C50B0008A8
:10013000C50B0008C50B0008C50B0008C50B00085F
:10014000C50B0008C50B0008C50B0008C50B00084F
:10015000C50B0008C50B0008C50B0008C50B00083F
:10016000C50B0008C50B0008C50B0008C50B00082F
:10017000C50B0008C50B0008C50B0008C50B00081F
:10018000C50B0008C50B000808B507481021002260
:1001900002F000F844F6FF73013BFDD10248102144
:1001A000012201F0F7FF08BD000C02402DE9F041EB
:1001B00080460F464FF49612964B1A60964E4FF4B7
:1001C00000351C4607E023685A1E22601BB900F068
:1001D00045FEBDE8F0813046294602F0E5FB0028E7
:1001E000F1D18D48012102F099FB4FF48052894BE7
:1001F0001A60894E894D1C4607E023685A1E22600A
:100200001BB900F02BFEBDE8F0813046294602F014
:10021000BDFB0028F1D080489421002202F09AFB17
:100220004FF480527B4B1A607B4E7D4D1C4607E09D
:1002300023685A1E22601BB900F010FEBDE8F08151
:100240003046294602F0A2FB0028F1D07248414610
:1002500002F096FB4FF480526E4B1A606E4E714D59
:100260001C4607E023685A1E22601BB900F0F6FD09
:10027000BDE8F0813046294602F088FB0028F1D025
:100280006548394602F07CFB4FF49612614B1A60C8
:100290001C46614E644D05E023685A1E22600BB96E
:1002A00000F0DCFD3046294602F07EFB0028F3D04A
:1002B0005948012102F040FB4FF49612554B1A6049
:1002C000554E4FF400351C4606E023685A1E226046
:1002D00013B900F0C3FDD4E03046294602F064FBB8
:1002E0000028F2D14C48012102F018FB4FF4805253
:1002F000484B1A60484E494D1C4606E023685A1E7A
:10030000226013B900F0AAFDBBE03046294602F096
:100310003DFB0028F2D040489421002202F01AFB55
:100320004FF480523B4B1A603B4E3D4D1C4606E05D
:1003300023685A1E226013B900F090FDA1E03046F8
:10034000294602F023FB0028F2D03348414602F050
:1003500017FB4FF480522F4B1A602F4E324D1C4624
:1003600006E023685A1E226013B900F077FD88E08A
:100370003046294602F018FB0028F2D02648012119
:1003800002F0CCFA4FF48052224B1A60224E234DD9
:100390001C4606E023685A1E226013B900F05EFD79
:1003A0006FE03046294602F0F1FA0028F2D01A48F0
:1003B0009421012202F0CEFA4FF48052154B1A60BC
:1003C000154E1A4D1C4606E023685A1E226013B9CA
:1003D00000F044FD55E03046294602F0E5FA0028D9
:1003E000F2D00D4C2046002102F0BCFA238B2046AF
:1003F000012102F0A1FA4FF48052064B1A60264602
:100400000B4D1C4616E023685A1E226093B900F07B
:1004100025FD36E0000000200054004001000300EC
:100420008200070080000700040000100200001096
:10043000400000103046294602F0B6FA0028E2D00B
:10044000124802F09FFA05464FF48052104B1A6092
:100450000E4906E01A68501E186012B900F0FEFC42
:100460000FE00A8802F4007292B2002AF2D1074C1F
:100470002046012102F076FA2046064902F0B0FA41
:100480002846381A18BF0120BDE8F081005400400A
:10049000000000200004001038B51930C4B220203C
:1004A0002146FFF783FE054621202146FFF77EFE09
:1004B000284438BD38B5114B1D68114B5C689868ED
:1004C000D96802F00BF840B12846214600F0AAFC9A
:1004D0000B4B9868D96802F01FF8094B98681969A6
:1004E00001F0FCFF40B12846214600F0A9FC044B76
:1004F0009868196902F010F838BD00BFC8090020DB
:100500000000002008B5FFF7D5FF08BD08B5FFF7CC
:10051000D1FF08BD08B50B48022102F04DF978B1B2
:10052000094B5B69022B05D100F096FC01460420C3
:1005300000F004FB00F090FC0146024802F01EF9B6
:1005400008BD00BF003C00400000002010B50C4B6F
:100550005B690C4B98601961094CA068194601F061
:1005600081FFA068012101F0A9FF074B9B8B03F4D9
:1005700080639BB21BB90448012102F0F1F810BD61
:1005800000000020080A0020003C0040F8B50746A3
:100590000D460A4C21634FF6FF76B14228BF314623
:1005A000FFF7D4FF236BB34238BF1E46AD1B656017
:1005B00007EB4606024B1E600020F8BD000000203D
:1005C000C809002010B586B01048012100F0C8FC11
:1005D0004FF00050012100F0D1FC102300930323C1
:1005E0008DF8043000248DF807400948694601F071
:1005F00085FD029403940594204602A900F072FA46
:100600002046012100F086FA06B010BD010020004E
:10061000000002402DE9F04188B0174664290AD84D
:10062000C1EB0121364B83FB0128C917C1EB6818C8
:100630005FFA88F801E04FF064080820012100F01B
:100640008FFC1023049301268DF8146002258DF889
:10065000155000248DF816408DF8174029480DEBF1
:10066000030101F04BFD0720314600F079FC4FF407
:10067000107304938DF814508DF815508DF8166092
:100680008DF81740204E304604A901F037FD304662
:100690000621042201F084FD30460921042201F0E4
:1006A0007FFD4FF4A05304938DF814508DF815502E
:1006B0008DF816408DF8174004F1804404F502349B
:1006C000204604A901F01AFD10480421062201F079
:1006D00067FD20460A21062201F062FD0C4B5B6992
:1006E000AB4217D008A9102341F8103D074801F08C
:1006F00005FD20460C21062201F052FD1AE000BF44
:100700001F85EB51000C0240000402400000024033
:10071000000000200120014600F022FC1023049379
:1007200003238DF8143000238DF81730A04804A956
:1007300001F0E4FC8023049302248DF814408DF82A
:10074000154000268DF816608DF81760994D2846E3
:1007500004A901F0D3FC28460721062201F020FD60
:10076000FFF712FD4FF40010012100F007FCA5F582
:10077000DA35284602F026F8ADF814604BF6FF7320
:10078000ADF816303323ADF818304FF48063ADF870
:100790001A304FF48043ADF81C30874B0493284641
:1007A000012102F0ADF8284604A902F03DF82046E8
:1007B0000121FFF7FBFC04460420AF21FFF7F6FC04
:1007C0000444AF227D4B1A7105208121FFF7EEFC16
:1007D000044406200421FFF7E9FC04444046FFF7E7
:1007E0005BFE774B5B69022B19D108200121FFF7D3
:1007F000DDFC054609200121FFF7D8FC284404440C
:100800000E20C021FFF7D2FC044414203146FFF72C
:10081000CDFC044415203146FFF7C8FC04440220F7
:100820009E21FFF7C3FC04440A200021FFF7BEFC11
:100830000444634B5B69022B04D00E200421FFF7B4
:10084000B5FC044427200021FFF7B0FC04441F201E
:100850000F21FFF7ABFC04441A200A21FFF7A6FC86
:1008600004441B200A21FFF7A1FC04444FF400407C
:10087000012100F083FB534D284601F0D1FE029781
:100880000023ADF80230ADF80430ADF80C304FF471
:100890000073ADF80030ADF806302846694601F027
:1008A000F1FE474B5B69022B10D14FF00050012144
:1008B00000F064FB0025049505950795284604A9DA
:1008C00000F010F92846012100F024F9002C6AD12B
:1008D0003B4B5B69012B45D1394DA869012100F0E3
:1008E0003FFBA868002101F0E9FDA86801F010FDB8
:1008F0003549324B1B680B60EB694B608C604023C1
:10090000CB604FF6FE730B614C614FF480638B61DB
:100910004FF40063CB614FF400530B624FF48073CC
:100920004B624FF440338B62CC620C634C638C633C
:10093000A86801F097FDA8681021012201F006FEC9
:10094000A8680821012201F001FE2B6A8DF8103001
:100950008DF811408DF8124001238DF8133004A852
:1009600002F04CF8164B5B69012B05D115480221AA
:10097000012201F005FF14E0FFF724FE1148712168
:10098000012201F009FF33238DF8103000238DF888
:1009900011308DF8123001238DF8133004A802F0C5
:1009A0002DF8002000E0012008B0BDE8F08100BF74
:1009B0000000024000080240A08601008C080020D0
:1009C00000000020003C0040080A002030B585B03F
:1009D00004460D46038A9BB223F44053CA8813434E
:1009E0000382828992B222F4B05222F00C02098969
:1009F000AB880B4369890B439BB213438381838A82
:100A00009BB223F44073AA8913438382684600F0A3
:100A10004BFA204B9C4203D003F580639C4201D1EA
:100A2000039A00E0029AA3891BB2002B08DA02EBBA
:100A3000820202EB82022B685B00B2FBF3F207E05A
:100A400002EB820202EB820229688900B2FBF1F21A
:100A5000114BA3FB02135B091801642103FB112353
:100A6000A18909B2002908DADB0032330A4DA5FB5F
:100A70000323C3F34213034307E01B013233064D44
:100A8000A5FB0313C3F3431303439BB2238105B0B8
:100A900030BD00BF001001401F85EB5129B1838993
:100AA0009BB243F4005383817047838923F400533E
:100AB0001B041B0C83817047C1F3080181807047C0
:100AC00022B1838A9BB2194381827047838A9BB289
:100AD00023EA010181827047038819420CBF00207C
:100AE0000120704730B40A4B1A6840F6FE75854005
:100AF00022EA05054C680A6814438A682243C968DB
:100B00000A4302FA00F02843186030BC704700BF67
:100B10000074004039B1084B1A68012101FA00F055
:100B2000104318607047044B1A68012101FA00F065
:100B300022EA0000186070470074004082B0002371
:100B40000193054B0193019B083318440190019BCD
:100B5000196002B0704700BF00740040E0B5054660
:100B60000F461646082002F09BF9077046700023D6
:100B7000436035B12A4653680BB11A46FBE7506013
:100B80002846E0BD70B5044680B105788D4207D196
:100B9000466802F08DF930462946FFF7F3FF70BD35
:100BA0004068FFF7EFFF6060204670BD002070BD19
:100BB000024618B153681BB11A46FBE70020704784
:100BC00010467047FEE700BF10B5134B134A9A4218
:100BD0000DD2131D124CE41A24F003040434002334
:100BE000104610495A581A500433A342FAD10E48FD
:100BF0000E494FF000028842B8BF40F8042BFFF6C0
:100C0000FAAFDFF82C00016841F47001016001F0D7
:100C1000DBFA00F07BF810BD8C08002000000020FB
:100C20008F080020F09E00088C080020FC0F002098
:100C300088ED00E070B582B00820012100F090F945
:100C40000120014600F08CF94FF470430093012617
:100C50008DF8046000248DF8064003258DF80550BA
:100C60008DF807400948694601F048FA00968DF86A
:100C700004408DF806408DF805508DF80740044873
:100C8000694601F03BFA02B070BD00BF000C0240A3
:100C900000000240F0B587B04FF40030012100F0B1
:100CA0006DF90423049302258DF814508DF8155026
:100CB00000248DF8164001268DF81760114F384634
:100CC00004A901F01BFA38462946072201F068FA08
:100CD0004FF416530093ADF80440ADF80640ADF85C
:100CE0000840ADF80C400823ADF80A30064C204609
:100CF0006946FFF76BFE20463146FFF7CFFE07B08F
:100D0000F0BD00BF00000240004400402DE9F84360
:100D1000FFF790FFFFF7BEFF01F0A8FE054600F0C9
:100D200065F90646344B03F5A06100221A805A800B
:100D300004338B42FAD1314B314A1A6000225A6097
:100D40009A6004201873012159734FF07E51196184
:100D50005A619961DA612B4C1C6259622A49996285
:100D6000D9624FF07C541C6359639963D9631C6446
:100D700059649A64DA641A655A6555214BF68032D3
:100D8000FFF748FC1C484FF42071FFF7FFFB1F489A
:100D900000F0BCFD1E4800F0B9FDDFF884901D4F47
:100DA000DFF85880284601F0F1FE014610B12846D0
:100DB00001F002FF304600F0A7F90446082807D9E1
:100DC0004846214600F094FD3046214600F072FB73
:100DD0003868FFF7EDFE18B900220F4B1A70E1E7F3
:100DE00002780E4B03EB820353F8603CC8F80030E6
:100DF0000122094B1A70D5E7A80A0020440A0020F6
:100E000000005C430000C041CDCCCC3DEC37000875
:100E1000F037000894080020A40A00205C3600087F
:100E20000438000808B505484FF4805101F0AEF9C8
:100E30004FF4A07000F074FD08BD00BF000C02402C
:100E400008B504484FF4805101F0A2F9002000F0E9
:100E500067FD08BD000C024000207047002070476D
:100E6000704700BF704700BF08B50548054901F04D
:100E70008FFB18B10248034901F0B8FB08BD00BF61
:100E8000286002400088001008B50548054901F0B7
:100E90007FFB18B10248034901F0A8FB08BD00BF61
:100EA000406002400088001010B4294B9B6803F09A
:100EB0000C03042B05D0082B06D04BBB254B03603D
:100EC00028E0254B036025E0214B59685A6802F061
:100ED0003F0211F4800F08D05968C1F388111E4BEE
:100EE000B3FBF2F303FB01F308E0194B5968C1F3BC
:100EF0008811184BB3FBF2F303FB01F3144A526859
:100F0000C2F3014201325200B3FBF2F3036001E08D
:100F1000104B03600E498B68C3F303130F4AD35C75
:100F2000DBB2046824FA03F343608C68C4F38224C0
:100F3000145DE4B223FA04F484608968C1F3423199
:100F4000525CD2B2D340C3605DF8044B704700BF1F
:100F5000003802400024F40000127A00340000201F
:100F600021B1054B1A6B104318637047024B1A6B83
:100F700022EA0000186370470038024021B1054B97
:100F80001A6C104318647047024B1A6C22EA000076
:100F9000186470470038024021B1054B5A6C104369
:100FA00058647047024B5A6C22EA0000586470473C
:100FB0000038024021B1054B1A6A1043186270478D
:100FC000024B1A6A22EA0000186270470038024099
:100FD00021B1054B5A6A104358627047024B5A6A56
:100FE00022EA000058627047003802402DE9F043C1
:100FF00097B010200121FFF7CFFF4FF480000121AF
:10100000FFF7AEFF4FF4C063149302238DF8543002
:101010008DF8553000248DF8564001258DF8575035
:10102000354E304614A901F069F8304609210722EF
:1010300001F0B6F830460A21072201F0B1F84FF46A
:1010400016531093ADF84440ADF84640ADF8484013
:10105000ADF84C400C23ADF84A30284F384610A963
:10106000FFF7B4FC3A238DF83C308DF83D408DF805
:101070003E408DF83F500FA801F0C0FC4FF4A06037
:1010800001F0B2FC38462946FFF708FD06F5C846D0
:101090004036304601F03CF94FF000630093039472
:1010A000DFF86080CDF808804FF04009CDF810904F
:1010B000134B019305944FF48063069307940894AF
:1010C0004FF4807309934FF400330A930B94032376
:1010D0000C930D940E943046694601F0C3F93846DE
:1010E00049462A46FFF7ECFC3046294601F0E6F96E
:1010F000404617B0BDE8F0830000024000100140F8
:10110000041001409808002008B50A4801F0E2F9EF
:10111000094B1B88984209D028BF40331B1A9BB249
:10112000082B05D9044A1080D8B208BD002008BD9C
:10113000002008BD406402404400002010B50D4B63
:101140001B78DBB20C4AD35C13F0FF0F05D0094BC0
:101150001B78DBB2D45CE4B200E00024054B1A78C3
:101160000132D2B21A700548214600F0C1FB204678
:1011700010BD00BFF40F0020CC0F0020243E00085B
:10118000037873B102460020074900EB800051F854
:10119000233003EB400012F8013F1BB10028F4DAC2
:1011A00070470020704700BF24380008F8B5054696
:1011B00000240A4F04E0631C68B1E4B238551C46B1
:1011C000E6B2FFF7BBFFA842F5D1044800238355E0
:1011D000FFF7D6FFF8BD4FF0FF30F8BDAC0F002091
:1011E00008B50138142800F25481DFE810F015002A
:1011F0001F00290044005F006B0077007E008E0016
:101200009E00AE00BA00CA00DA00EA00F60006014D
:10121000160122013201420104299CBF9D4B197322
:101220009D489C4B197B00F063FB08BD04299CBFC3
:10123000984B59739948974B597B00F059FB08BD5F
:101240007F2940F02681934BD3ED047A77EEA77A7D
:10125000B1EE007AF4EEC77AF1EE10FAB1BFC3ED49
:10126000047A4FF07C528B4B1A618C48894B597B26
:1012700000F03EFB08BD7F2940F00B81854BD3ED8C
:10128000057A77EEA77AB1EE007AF4EEC77AF1EE3E
:1012900010FAB1BFC3ED057A4FF07C527D4B5A6115
:1012A0007E487C4B597B00F023FB08BD07EE901A6B
:1012B000B8EE677ADFED7A7AC7EE277A754BC3ED21
:1012C000067A08BD07EE901AB8EE677ADFED747AF9
:1012D000C7EE277A6F4BC3ED077A08BD714B03EB5E
:1012E00081010A686B4B1A6208BD07EE901AB8EECE
:1012F000677AF1EE007A27EE277ADFED697AC7EE9A
:10130000277A644BC3ED097A08BD07EE901AB8EE50
:10131000677ADFED637A87EE277ADFED637A77EE1F
:10132000277A5C4BC3ED0A7A08BD07EE901AB8EE37
:10133000677ADFED5B7A87EE277ADFED5B7A77EE0F
:10134000277A544BC3ED0B7A08BD07EE901AB8EE1E
:10135000677ADFED537AC7EE277A4E4BC3ED0C7AEE
:1013600008BD07EE901AB8EE677ADFED4D7A87EE8A
:10137000277ADFED4D7A77EE277A464BC3ED0D7A6B
:1013800008BD07EE901AB8EE677ADFED457A87EE72
:10139000277ADFED457A77EE277A3E4BC3ED0E7A5A
:1013A00008BD07EE901AB8EE677ADFED3D7A87EE5A
:1013B000277ADFED3D7A77EE277A364BC3ED0F7A49
:1013C00008BD07EE901AB8EE677ADFED357AC7EE02
:1013D000277A304BC3ED107A08BD07EE901AB8EEAD
:1013E000677ADFED2F7A87EE277ADFED2F7A77EEB7
:1013F000277A284BC3ED117A08BD07EE901AB8EE94
:10140000677AF2EE047A27EE277ADFED257AC7EEC7
:10141000277A204BC3ED127A08BD07EE901AB8EE7A
:10142000677ADFED1F7AC7EE277A1A4BC3ED137A7E
:1014300008BD07EE901AB8EE677AF2EE047A27EE4E
:10144000277ADFED177AC7EE277A124BC3ED147AAD
:1014500008BD07EE901AB8EE677ADFED147A27EE32
:10146000277ADFED0F7AC7EE277A0A4BC3ED157A9C
:1014700008BD403907EE101AB8EEC77ADFED0C7AD6
:1014800027EE277AF7EE007A77EE277A014BC3ED45
:10149000027A08BD440A00202C3E0008483E00089D
:1014A0000000FE42243C00086F12833ACDCCCC3DB4
:1014B00017B7D13970B50022234B1A70234B93F81C
:1014C0004040025D3B2A11D091B10023204D1E46C1
:1014D000EA540133DBB23F2C1ABF0134E4B2344684
:1014E000025D3B2A05D09942F2D102E0002300E0E0
:1014F000002319461648C2543F2C04D10022134B36
:1015000083F8402003E00134104B83F840404B1C2B
:101510000F490022CA540F4800F0EAF9FFF70EFE07
:101520002A2810D13A20FFF741FE05463B20FFF75D
:101530003DFE0446084829B222B200F0D9F9E8B2CB
:10154000E1B2FFF74DFE70BDF40F002098080020B7
:10155000CC0F0020643E00086C3E000870B50646C3
:10156000064D402428462146FFF7B6FA0028F9D058
:1015700002483146FFF7A0FA70BD00BF00440040AA
:101580000B783BB100228354013211F8013F002B4C
:10159000F9D100E000221046704700BFF8B50446BC
:1015A0001E46571E092B04D8002F0CDC05460027C9
:1015B0000FE00E4BA3FB06233A46DB08FFF7EEFFD6
:1015C0000746251805E0551E054404F8011BAC42EA
:1015D000FBD1064BA3FB0623DB0803EB8303A6EB3F
:1015E000430630362E70781CF8BD00BFCDCCCCCC75
:1015F00070B50446002B0DDA5E42092E11D91C4B42
:10160000A3FB0603DB082046013A5B42FFF7F0FF2D
:10161000024604E01E46013A092B1FD802E0A51835
:1016200010E0023A002A05DDA51804F8011BAC42BF
:10163000FBD101E025460022002B03DA2D2305F81B
:10164000013B01320A4BA3FB0613DB0803EB8303C8
:10165000A6EB430630362E70501C70BD0448A0FB2C
:1016600003532046DB08FFF7C3FF0246D7E700BF5E
:10167000CDCCCCCC2DE9F04182B004469846089EF2
:10168000571E330904D1002F0ADC054600270DE060
:1016900000933A464346FFF7EDFF0746251805E05D
:1016A000551E054404F8011BAC42FBD106F00F03A4
:1016B000092B03D803F130062E700BE0B8F1000FB0
:1016C00004D006F00F0637362E7003E006F00F0642
:1016D00057362E70781C02B0BDE8F0812DE9F04F2E
:1016E00083B00F46054608B10021017000244FF079
:1016F000010AA0464FF0300980E0252904D00132CC
:1017000029700134013579E05178252904D12970F7
:1017100002320134013571E0302919BF561C2021F5
:10172000961C49463078A0F13002D2B2092A14D86A
:1017300006F1010C424602EB820200EB4202303A13
:1017400002F0FF0266461CF8010BA0F1300B5FFAB5
:101750008BFBBBF1090FEED900E0424602EB040C13
:1017600067453CBFC4EB0702D2B25838202856D890
:10177000DFE800F02B555555555555555555553DF8
:1017800011555555551155555555555555555535B1
:1017900055195555210003F1040B28461B68FFF726
:1017A00027FF5B4627E003F1040B28461B68FFF781
:1017B000F5FE5B461FE003F1040B1B68009328460F
:1017C0004346FFF757FF5B4615E003F1040B1B6828
:1017D000009328465346FFF74DFF5B460BE003F1AD
:1017E000040B28461968FFF7CBFE5B4603E01A6836
:1017F0002A7004335046721C05440444117819B110
:10180000BC42FFF47AAF05E0A74203D900232B7056
:10181000204606E0002305F8013C601E01E04FF081
:10182000FF3003B0BDE8F08F10B50C4613466421BD
:101830002246FFF753FF10BD10B50446074B1B6847
:101840009A688A4202D0DB688B4204D1E0B2FFF78B
:1018500085FE204610BD4FF0FF3010BD480000202F
:1018600070B505460E46007860B100243146FFF79A
:10187000E3FFB0F1FF3F08D0013415F8010F002855
:10188000F4D101E0002070BD204670BDF0B5A3B0DA
:1018900006468E4617466C460D4D0FCD0FC40FCD34
:1018A0000FC42B68236009A871463A46FFF7BCFFB6
:1018B000632806DD074B1B686846D968FFF7D0FF31
:1018C000FEE709A83146FFF7CBFF23B0F0BD00BF0C
:1018D000783E00084800002008B503460A46034940
:1018E000096888681946FFF7D1FF08BD4800002045
:1018F0000FB400B583B004A951F8040B0191FFF7B0
:10190000EBFF03B05DF804EB04B0704708B5034B80
:101910001B689968FFF7A4FF08BD00BF48000020BE
:10192000F8B52DED088B0546B9484FF4005100F08D
:101930002DFCB84B1B781BB30022B64B1A70B64B6C
:1019400001221A705A70B7EE007A93ED026A37EEF0
:10195000466AB24AD2ED0A6ADFEDB17A66EEA76A4C
:10196000C6EE266AC3ED016AD3ED046A37EE667AE5
:10197000D2ED0E6A66EEA77AC7EE277AC3ED037A38
:10198000A84B1B783BBBA44B1B78042B0FD0A24B5E
:1019900004221A70A14A92ED0D7ADFEDA17A67EE6A
:1019A000277A93ED027AC7EE277AC3ED057A9A4B30
:1019B0005B78042B0FD0984B04225A70974A92ED13
:1019C000117ADFED977A67EE277A93ED047AC7EE06
:1019D000277AC3ED067A904A904BB7EE007A93EDE2
:1019E0000C6A37EE466AD3ED0B6ADFED8D7A66EE50
:1019F000A76AC6EE266AC2ED076AD3ED106A37EE13
:101A0000667AD3ED0F6A66EEA77AC7EE277AC2ED43
:101A1000087A6B00844A9C181F4602F52072D6187B
:101A20005D429FED828ADFED7E8A9FED819ADFED38
:101A300081BA9FED81BADFED81AA784BD3ED127A9E
:101A400067EE887AC7EEA87A734B93ED097A77EE42
:101A5000877AF4EEC87AF1EE10FAC4BF77EEC87A4E
:101A60006D4BC3ED097A6D4BD3ED137A6A4B93ED51
:101A7000097ABCEEC77A17EE103A9BB2704A02EBB5
:101A80008303D3ED006AF5EE407AF1EE10FA14BF4D
:101A900067EEA66AF0EE496A604B93ED147A27EE82
:101AA000087A87EE287A5C4B93ED0A6A37EE067A5D
:101AB000B4EEC87AF1EE10FAC4BF37EE487A564B4E
:101AC00083ED0A7A544B93ED0A7ABCEEC77A17EE8F
:101AD000103A9BB25A4A02EB8303504A92ED156AC0
:101AE00093ED007A26EE077AF4EE497AF1EE10FAD9
:101AF00008BFF0EE496AF7EE007A37EE277AD2EDAA
:101B0000007A27EE277AD2ED017A37EE277A92ED26
:101B100004AA27EE0AAA2AEE08AA8AEE28AAD2ED7B
:101B2000059A67EE299AD2ED027A69EEA79A69EED4
:101B3000889AC9EEA89A384BD3ED0B7ABDEEE75AD6
:101B400015EE103A99B205EE901AB8EEE56A37EE46
:101B5000C66A01339BB205EE103AF8EEC55A75EE2F
:101B6000E77AB3F5806F08BF0023127B032A71D890
:101B7000DFE802F00215283B324A02EB810151ED09
:101B80003E5A67EEA57A02EB830353ED3E5A26EEEA
:101B9000256A77EE867A204BC3ED0C7A6CE02A4AF0
:101BA00002EB8101D1ED005A67EEA57A02EB8303C7
:101BB000D3ED005A26EE256A77EE867A164BC3EDF2
:101BC0000C7A59E0214A02EB8101D1ED005A67EE0F
:101BD000A57A02EB8303D3ED005A26EE256A77EE51
:101BE000867A0D4BC3ED0C7A46E0194A02EB81016F
:101BF000D1ED005A67EEA57A02EB8303D3ED005ACC
:101C000026EE256A77EE867A034BC3ED0C7A33E035
:101C1000000C02409C0A0020DC080020440A00203E
:101C200000803B47A40A0020A80A0020000080444E
:101C300000000000E17A943F0080BB469A99193E6B
:101C40009C3E0008944F00089C5E00089C6E0008B3
:101C50009C7E0008C84A02EB8101D1ED005A67EE74
:101C6000A57A02EB8303D3ED005A26EE256A77EEC0
:101C7000867AC24BC3ED0C7AC04BD3ED0D7ABDEE24
:101C8000E75A15EE103A99B205EE901AB8EEE56AE9
:101C900037EEC66A01339BB205EE103AF8EEC55A2C
:101CA00075EEE77AB3F5806F08BF0023B44A527B24
:101CB000032A4FD8DFE802F00215283BB14A02EBB5
:101CC000810151ED3E5A67EEA57A02EB830353ED95
:101CD0003E5A26EE256A77EE867AA84BC3ED0E7A39
:101CE0004AE0A94A02EB8101D1ED005A67EEA57ADC
:101CF00002EB8303D3ED005A26EE256A77EE867A4F
:101D00009E4BC3ED0E7A37E0A04A02EB8101D1ED84
:101D1000005A67EEA57A02EB8303D3ED005A26EE54
:101D2000256A77EE867A954BC3ED0E7A24E0984AC1
:101D300002EB8101D1ED005A67EEA57A02EB830335
:101D4000D3ED005A26EE256A77EE867A8B4BC3EDEB
:101D50000E7A11E0884A02EB8101D1ED005A67EE5C
:101D6000A57A02EB8303D3ED005A26EE256A77EEBF
:101D7000867A824BC3ED0E7A814A804B92ED066AD9
:101D8000D3ED0C7A26EE276AD2ED075AD3ED0E7A00
:101D900065EEA77A36EE276AF7EE007A76EEA76A46
:101DA000D2ED085A66EEA56AD3ED045A75EEA75A2D
:101DB00066EEA56A26EE877A27EE2B7A87EE0B7AF7
:101DC000B4EEE77AF1EE10FAD1BF83ED107A4FF05E
:101DD0007E526A4B1A64694BD3ED107A27EEAA5AE9
:101DE00027EE855AB7EE007A37EE455A644AD2EDAF
:101DF000096A25EE265A83ED115AD3ED125A67EE81
:101E0000A76A25EE255A36EE456A9FED625A26EE00
:101E1000855A66EE856A26EE266A83ED0F6A77EEAE
:101E2000677A93ED135A9FED5C7A25EE075A36EEEA
:101E3000055AD3ED146A67EEA66A75EE266AC3EDFD
:101E4000146A83ED136A93ED155A25EE075A36EEA0
:101E5000855A93ED166A27EE866A35EE066A83ED9B
:101E6000166AC3ED156A93ED175A25EE075A36EE3A
:101E7000055AD3ED186A67EEA66A75EE266AC3EDB9
:101E8000186A83ED176A93ED196A26EE077A36EE23
:101E9000877A65EEA77A77EE277AC3ED127AC3EDDB
:101EA000196AC3ED1A7A1B78042B58D8DFE803F0BF
:101EB0000307243B4000314B83ED029A4FE02F4B48
:101EC00093ED027AD3ED017A77EE277AB7EE007AB6
:101ED000F4EEC77AF1EE10FA02DCC3ED027A3EE0CE
:101EE000264B4FF07E529A6002221A702B484FF414
:101EF000004100F04BF932E0204B93ED027AD3ED34
:101F0000077A77EE677AC3ED027A1D4B93ED0C7A70
:101F1000F4EEC77AF1EE10FA21D5184B83ED027A70
:101F200003221A701BE0164B1A6B144B9A6016E0D2
:101F3000124B93ED027AD3ED057A77EE677AC3ED13
:101F4000027AF5EEC07AF1EE10FA08D583ED029A26
:101F500000221A7011484FF4004100F019F9074BA4
:101F60005B78042B6CD8DFE803F0031B384F540078
:101F7000024B83ED049A63E09C3E0008DC080020DD
:101F8000440A0020944F00089C5E00089C6E0008E4
:101F90009C7E00083D44B33E9A99993E000C024055
:101FA000514B93ED047AD3ED037A77EE277AB7EEAF
:101FB000007AF4EEC77AF1EE10FA02DCC3ED047A8F
:101FC0003EE0494B4FF07E521A6102225A70474858
:101FD0004FF4004100F0DAF832E0434B93ED047A1D
:101FE000D3ED087A77EE677AC3ED047A404B93ED30
:101FF000107AF4EEC77AF1EE10FA21D53A4B83ED60
:10200000047A03225A701BE0394B1A6C364B1A6162
:1020100016E0354B93ED047AD3ED067A77EE677AC6
:10202000C3ED047AF5EEC07AF1EE10FA08D583ED2F
:10203000049A00225A702D484FF4004100F0A8F88D
:10204000294BD3ED027A9FED2B7A67EE877AD3ED99
:102050001A6A67EEA67AC3ED0F7AF4EEC77AF1EE4C
:1020600010FA02DD83ED0F7A09E09FED237AF4EE9A
:10207000C77AF1EE10FA02D51B4B83ED0F7A1A4B9B
:10208000D3ED0F7AFDEEE77A17EE902A92B2228016
:10209000611939444A80D3ED0B7A3AEE27AAB4EE9F
:1020A000C8AAF1EE10FAC4BF3AEE48AA0E4B83ED6F
:1020B0000BAA0D4BD3ED0D7A79EEA79AF4EEC89AE0
:1020C000F1EE10FAC4BF79EEC89A074BC3ED0D9A32
:1020D0000434B4427FF4B1AC04484FF4005100F032
:1020E00057F8BDEC088BF8BDDC080020000C02405E
:1020F000440A002000FEFF4600FEFFC6F0B40023A5
:102100000125032605FA03F20C681440944238D1E5
:1021100007685A0006FA02F4E4432740076007689C
:1021200091F804C00CFA02FC4CEA070707600F792B
:10213000013FFFB2012F16D887683C408460876852
:102140004C7994403C43846047689CB205FA04FC97
:1021500027EA0C074760476891F806C00CFA04F4B8
:10216000A4B23C434460C7689CB2640006FA04F41D
:1021700027EA0404C460C468CF7907FA02F2224354
:10218000C2600133102BBDD1F0BC70470183704792
:10219000418370470AB1018370474183704700BF94
:1021A00010B401F007039B00C90800EB8100046A2A
:1021B0000F21994024EA01010162016A9A4011430A
:1021C00001625DF8044B704782B0424BD3F888201F
:1021D00042F47002C3F888203F4B1A6842F00102B3
:1021E0001A6000229A60196821F0847121F480310C
:1021F00019603A495960196821F480211960DA6040
:10220000009201921A6842F480321A601A461368EA
:1022100003F400330193009B01330093019B1BB92E
:10222000009BB3F5A06FF2D12B4B1B6813F4003F5A
:1022300014BF012300230193019B012B32D1264BB4
:102240001A6C42F080521A64254A116841F48041A8
:1022500011609A689A609A6842F460429A609A683B
:1022600042F4E0529A601F4A5A601A6842F0807243
:102270001A601A46136813F0007FFBD040F2056223
:10228000194B1A60A3F580639A6822F003029A60E2
:102290009A6842F002029A601A46936803F00C03AF
:1022A000082BFAD10C4B9A6822F400029A600F4A6C
:1022B000C3F884201A6842F080621A601A461368D4
:1022C00013F0006FFBD04FF00062024B9A6002B037
:1022D000704700BF00ED00E00038024010300024DD
:1022E0000070004008544007003C0240804000302D
:1022F000054B1B6813B9054A034B1A60024A136861
:10230000184410601846704748090020FC0F002050
:10231000036823F0010303600023036043608360CC
:10232000C3600361212343613B4B984203D13D22AB
:10233000103B9A607047394B984204D14FF4746255
:10234000283B9A607047364B984204D14FF4741280
:10235000403B9A607047334B984204D14FF074620F
:10236000583B9A607047304B984203D12F4A703BDC
:10237000DA6070472E4B984203D12E4A883BDA60D0
:1023800070472D4B984203D12C4AA03BDA6070472E
:102390002B4B984204D14FF03D52B83BDA60704766
:1023A000284B984203D13D22103B9A607047264B40
:1023B000984204D14FF47462283B9A607047234BD3
:1023C000984204D14FF47412403B9A607047204BFE
:1023D000984204D14FF07462583B9A6070471D4B8D
:1023E000984203D1114A703BDA6070471A4B984209
:1023F00003D1104A883BDA607047184B984203D1EA
:102400000E4AA03BDA607047154B984203D14FF05B
:102410003D52B83BDA6070471060024028600240CD
:102420004060024058600240706002403D00002061
:1024300088600240400F0020A060024000003D2064
:10244000B8600240106402402864024040640240C8
:10245000586402407064024088640240A0640240F4
:10246000B864024010B40268134B1340CC680A6889
:1024700014434A6914438A691443CA6914430A6AB3
:1024800014434A6A14438A6A14434A6B14438A6B9E
:10249000224313430360446924F007040A6BCB6AA8
:1024A0001343234343610B6943604B6883608B682C
:1024B000C3605DF8044B70473F801CF021B1036896
:1024C00043F0010303607047036823F001030360D6
:1024D000704700BF406880B2704700BF10B40B4B1C
:1024E0000B4A0C4CA0428CBF1046184611F0005FFE
:1024F00014BF4368036821F0F02121F082111942D2
:102500000CBF002001205DF8044B704700600240C2
:10251000006402400F64024010B4094B094A0A4C9F
:10252000A0428CBF1046184611F0005F21F0F02148
:1025300021F0821114BFC16081605DF8044B7047C7
:1025400000600240006402400F64024011F0800FFE
:102550000ED032B1436943F08003436180290AD130
:102560007047436923F080034361802909D1704794
:1025700080290CD02AB1036801F01E0119430160C3
:102580007047036801F01E0123EA010101607047F2
:1025900010B4134B134A144CA04298BF1A4621F0B2
:1025A000F02323F0C3132BB1006800F01E0000EAF3
:1025B000D12002E0406900F0800011F0005F14BFFC
:1025C0005368136821F0F02121F08211194203D0E1
:1025D000003018BF012000E000205DF8044B704778
:1025E00000600240006402400F64024010B4094BD6
:1025F000094A0A4CA0428CBF1046184611F0005FF1
:1026000021F0F02121F0821114BFC16081605DF8DA
:10261000044B704700600240006402400F640240B7
:1026200008B5154B98420AD14FF480500121FEF7AE
:10263000CFFC4FF480500021FEF7CAFC08BD0F4BC1
:1026400098420AD14FF480400121FEF7B3FC4FF4C9
:1026500080400021FEF7AEFC08BD094B984209D12D
:102660004FF400400121FEF7A5FC4FF4004000218B
:10267000FEF7A0FC08BD00BF00300140003800405C
:10268000003C0040F0B4838B9BB223F47B6323F0C7
:102690000F039BB2838302230384848BA4B28B68D1
:1026A000022B3FD08B88002B14BF02270127294B18
:1026B0009B6813F4000F04D0264B9A6822F40002A2
:1026C0009A60244BD3F88450D3F884205E68C5F315
:1026D000881506F03F06204BB3FBF6F303FB05F32A
:1026E000C2F30272B3FBF2F3CA88B2F5007F0EBFE9
:1026F0001B0A7F01B3FBF7F303EB83035B008A68DC
:10270000B3FBF2F305339BB2144AA2FB0353DB087D
:1027100003F001025B089D1EADB2FD2D05D812022B
:1027200092B204E00022022301E0002202231343BC
:10273000CA88134303840A8844EA020343F400630B
:102740004A8813438A8813438A8913439BB283833D
:10275000F0BC70470038024000127A00CDCCCCCCDF
:1027600029B1838B9BB243F4806383837047838B4F
:1027700023F480631B041B0C8383704781817047A3
:1027800022B183889BB219438180704783889BB2B2
:1027900023EA010181807047090901238B409BB224
:1027A00022B1828892B2134383807047828892B2AA
:1027B00022EA030383807047038919420CBF00207B
:1027C0000120704708B5154B98420AD14FF400100C
:1027D0000121FEF7EFFB4FF400100021FEF7EAFBAA
:1027E00008BD0F4B98420AD14FF480000121FEF73B
:1027F000E1FB4FF480000021FEF7DCFB08BD094B34
:10280000984209D14FF400000121FEF7D3FB4FF4A9
:1028100000000021FEF7CEFB08BD00BF00540040C1
:1028200000580040005C0040F0B585B004460D46FD
:10283000868826F03F063604360C6846FEF734FBE1
:1028400002992C48A0FB0130800C87B23E43A68041
:10285000238823F001031B041B0C23802A68264BCA
:102860009A4209D85300B1FBF3F39BB2032B98BFF4
:1028700004230137278424E0EE884BF6FF739E4241
:1028800005D102EB4202B1FBF2F39BB208E002EB8E
:10289000820202EB8202B1FBF2F39BB243F480436B
:1028A000C3F30B020AB943F0010343F400434FF4AE
:1028B000967200FB02F0114A82FB00108011013079
:1028C0002084A38323889BB243F0010323802288C2
:1028D00092B222F4816222F002026989AB880B4332
:1028E00013439BB223802A89AB8913439BB2238174
:1028F00005B0F0BD83DE1B43A0860100D34D6210FE
:1029000029B103889BB243F0010303807047038819
:1029100023F001031B041B0C0380704729B10388BB
:102920009BB243F4807303807047038823F4807361
:102930001B041B0C0380704729B103889BB243F42E
:10294000007303807047038823F400731B041B0C7F
:102950000380704712B141F0010101E001F0FE0176
:102960000182704729B103889BB243F480630380DE
:102970007047038823F480631B041B0C038070479B
:1029800001827047008AC0B2704700BF828A92B24B
:10299000008B21F07F4342EA00401840814214BF7F
:1029A00000200120704700BF82B0002301930093F4
:1029B00000900B0F019321F07F41019B1BB1009B05
:1029C0001433009303E0090C009B18330093009B21
:1029D0001B6819420CBF0020012002B0704700BFE5
:1029E000C94389B28182704740F0BF6040F4003033
:1029F000014BD860704700BF00ED00E010B4C37811
:102A000013B3184BDB68DB43C3F302234178C3F1F4
:102A10000402D2B201FA02F2D2B2DBB20F211941A2
:102A20008478214011430901C9B202780E4B1A443F
:102A300082F800130278510902F01F02012000FA07
:102A400002F243F821200AE00378590903F01F033A
:102A5000012202FA03F32031034A42F821305DF8E3
:102A6000044B704700ED00E000E100E02DE9F04389
:102A700097B04FF480200121FEF780FA4FF4001048
:102A80000121FEF76DFA4FF44073149302238DF881
:102A900054308DF8553000248DF8564001258DF8BE
:102AA0005750364E304614A9FFF728FB3046082110
:102AB0000722FFF775FB304609210722FFF770FB5D
:102AC00047F612231093ADF84440ADF84640ADF8F8
:102AD0004840ADF84C400423ADF84A30284F384602
:102AE00010A9FDF773FF0C238DF83C308DF83D40A5
:102AF0008DF83E408DF83F500FA8FFF77FFF4FF451
:102B0000A060FFF771FF38462946FDF7C7FF06F5BD
:102B1000A84628363046FFF7FBFB4FF000630093D2
:102B20000394DFF86480CDF808804FF04009CDF8B9
:102B30001090144B019305944FF48063069307940F
:102B400008944FF4807309934FF400330A930B9465
:102B500003230C930D940E9430466946FFF782FCD4
:102B6000384649462A46FDF7ABFF30462946FFF76F
:102B7000A5FC404617B0BDE8F08300BF000C024042
:102B800000480040044800404C09002008B50848AF
:102B9000FFF7A0FC074B1B88984206D028BF4033A4
:102BA0001B1A9BB2034A108000E00023D8B208BD74
:102BB00028600240780400202DE9F84306460D46BF
:102BC000002900F05A81AE4CDFF8CC82AD4F94F86A
:102BD0004030F25CF82A01D0FE2A08D13F2B0CBF0E
:102BE0000023013384F84030013DEDB242E194F816
:102BF0004110292900F23E81DFE811F02A003C0152
:102C00003C013C013C013C013C013C013C013C01DC
:102C1000700085003C013C013C013C013C013C0151
:102C20003C013C01B900CE003C013C013C013C01AF
:102C30003C013C013C013C01EB0000013C013C013A
:102C40003C013C013C013C013C013C0113012801D9
:102C500002F0F002902A08D002D8802A11D034E085
:102C6000B02A1AD0E02A24D02FE00A2284F841208A
:102C70003F2B0CBF0023013384F84030013DEDB2FF
:102C8000F8E0142284F841203F2B0CBF00230133CD
:102C900084F84030013DEDB2ECE01E2284F8412082
:102CA0003F2B0CBF0023013384F84030013DEDB2CF
:102CB000E0E0282284F841203F2B0CBF00230133A1
:102CC00084F84030013DEDB2D4E03F2B0CBF00232F
:102CD000013384F84030013DEDB2CBE012F0800FBB
:102CE00003D0002384F84130C4E084F842203F2B15
:102CF0000CBF0023013384F84030013DEDB20B23BB
:102D000084F84130B6E084F843203F2B0CBF002309
:102D1000013384F84030013DEDB20A2384F841309C
:102D2000A2B1594894F84210FEF7E2FDDFF86C9129
:102D3000D9F8000094F8421094F84320FDF70EFFF4
:102D4000C9F800000122514B1A7093E0504894F8E2
:102D500042100022FEF7CCFDDFF84091D9F80000C8
:102D600094F84210FDF70EFFC9F8000082E012F05F
:102D7000800F03D0002384F841307BE084F84220A8
:102D80003F2B0CBF0023013384F84030013DEDB2EE
:102D9000152384F841306DE084F843203F2B0CBFAD
:102DA0000023013384F84030013DEDB2142384F850
:102DB0004130384894F84210FEF79AFDDFF8DC9075
:102DC000D9F8000094F84210FDF7DCFEC9F80000C5
:102DD00050E012F0800F03D0002384F8413049E026
:102DE00084F844203F2B0CBF0023013384F840308B
:102DF000013DEDB21F2384F841303BE084F84520CB
:102E00003F2B0CBF0023013384F84030013DEDB26D
:102E10001E2384F84130384694F84410FEF768FDCC
:102E200028E012F0800F03D0002384F8413021E025
:102E300084F846203F2B0CBF0023013384F8403038
:102E4000013DEDB2292384F8413013E084F8472096
:102E50003F2B0CBF0023013384F84030013DEDB21D
:102E600094F84610404641EAC211FEF741FD28237E
:102E700084F84130002D7FF4AAAEBDE8F88300BF8E
:102E80004C090020D89E00089C9E00089C0A002047
:102E9000B09E0008C49E0008E49E0008940800202C
:102EA000024B0146186800F00BB800BF4800002034
:102EB000024B0146186800F003BB00BF4800002029
:102EC0002DE9F04F01F10B05162D83B0064627D9E9
:102ED00035F0070527D4A94225D8304600F08CFAF2
:102EE000B5F5FC7F26D2C14F4FEAD50C07EBCC03DA
:102EF000DC689C4200F0D2816368E268A16823F03C
:102F00000303234430465D68CA6045F001059160C3
:102F10005D6000F073FA0834204603B0BDE8F08F1E
:102F20001025A942D9D900240C232046336003B0D0
:102F3000BDE8F08F5FEA552C00F08A80BCF1040FE9
:102F400000F260814FEA951C0CF1380C4FEA4C01FD
:102F5000A64F07EB8101CC68A14205D10CE0002B04
:102F60007ADAE468A14207D0626822F00302531BB8
:102F70000F2BF4DD0CF1FF3C0CF1010C9B4B3C6979
:102F800003F1080E744500F07E81616821F00301B1
:102F90004A1B0F2A00F36481002AC3F814E0C3F827
:102FA00010E06ADAB1F5007F80F03A81C90803EBDE
:102FB000C1004FEAA1085A688168A1604FF0010979
:102FC00009FA08F848EA0202E0605A608460CC60BE
:102FD0004FEAAC030120984090425BD8024206D1F0
:102FE0002CF0030C400002420CF1040CFAD007EB69
:102FF000CC084446E146E3689C4207D145E1002AFB
:1030000080F25681DB689C4200F03F81596821F0D4
:1030100003014A1B0F2AF2DD1C46D3F80CC054F8FA
:10302000088F591945F0010942F00105C3F80490D1
:103030003046C8F80CC0CCF8088079613961C1F815
:103040000CE0C1F808E04D608A5000F0D7F963E762
:103050007E214FF03F0C7BE72244E3685068A16873
:1030600040F00105CB6030469960556000F0C6F92C
:103070000834204603B0BDE8F08F214430464B6849
:1030800043F001034B6000F0B9F90834204603B067
:10309000BDE8F08FBC68636823F00309A94504D339
:1030A000C5EB09030F2B00F39180514B514A19686E
:1030B0001368013305EB010A04EB090B00F0618191
:1030C0000AF5805A0AF10F0A2AF47F6A2AF00F0AD9
:1030D00030465146019200F093F9B0F1FF3F80462F
:1030E000019A00F00081834500F2FA80DFF810C1F8
:1030F000DCF80030C3455344CCF8003000F04A817E
:1031000012683C4901321BBFCBEB080B5B44C1F892
:103110000080CCF8003018F0070300F01381C3F1F1
:103120000802C3F5805390440833C244CAF30B0A23
:10313000CAEB030A51463046CDF804C000F060F9EE
:10314000431CDDF804C000F03581C8EB0002524496
:1031500042F00102DCF80030C7F808805344BC425A
:10316000C8F80420CCF80030DFF894A015D0B9F1ED
:103170000F0F40F2EA806168A9F10C0222F0070209
:1031800001F0010EA118052042EA0E0E0F2AC4F824
:1031900004E04860886000F21181174ABC68116839
:1031A0008B4288BF1360154A11688B4288BF136039
:1031B000626822F003029542C5EB020301D80F2B8F
:1031C00004DC304600F01AF90024A5E6621943F049
:1031D000010345F0010565603046BA60536000F0B8
:1031E0000DF90834204603B0BDE8F08F7C040020C0
:1031F0009C090020880800209809002094090020DC
:10320000A0090020BCF1140F61D9BCF1540F00F2E9
:103210008F804FEA153C0CF16E0C4FEA4C0197E69B
:103220004B0A042B58D9142B00F2AE8003F15B0239
:10323000500007EB8000DFF8BC818368834200F018
:103240008A805A6822F00302914202D29B68984217
:10325000F7D1D9687A68E160A3608C60DC60B7E67A
:10326000611942F0010745F001056560304659617A
:103270001961C1F80CE0C1F808E04F608A500834C9
:1032800000F0BCF848E65A68A2E609F1010919F015
:10329000030F04F108047FF4AEAE2DE004F108033F
:1032A0006469A34208BF0CF1020C3FF467AE23E649
:1032B00019441C464868DB6854F8082F40F00105A3
:1032C0004D603046D3609A6000F098F824E60CF127
:1032D0005B0C4FEA4C013BE68A0938325000A8E704
:1032E000BC423FF403AFBC68626822F0030262E7AD
:1032F000D8F8008098457BD11CF0030FA8F1080393
:103300000CF1FF3CF4D17B6823EA00037B604000B2
:1033100098423FF6BFAE00283FF4BCAE0342CC4615
:103320007FF465AE400003420CF1040CFAD05EE677
:10333000BCF5AA7F1AD84FEAD53C0CF1770C4FEABE
:103340004C0105E64FF48053EFE60123C8F8043042
:10335000444600222FE791100120D8F8042000FAFB
:1033600001F10A43C8F80420194674E740F25453A7
:103370009C451BD84FEA954C0CF17C0C4FEA4C0154
:10338000E6E50AF1100AA3E6542B1FD80A0B6E32A9
:1033900050004EE7CBF30B0100297FF4B1AE0AEBEE
:1033A0000901BA6841F001015160F6E6FC214FF0D5
:1033B0007E0CCDE501224FF0000ACBE604F10801B6
:1033C000304600F07DF8DAF80030E6E6B3F5AA7F83
:1033D00003D8CA0B773250002BE740F25452934285
:1033E00003D88A0C7C32500023E7FC207E2220E7A1
:1033F0007B688CE77C040020704700BF704700BFEB
:1034000038B5074C0023054608462360FEF770FFD9
:10341000431C00D038BD2368002BFBD02B6038BD87
:10342000F80F0020F8B5234D0F460446FFF7E4FFE0
:10343000AB685E6826F00306F11B01F6EF7121F41C
:103440007F6121F00F01A1F58057B7F5805F07DBA1
:1034500020460021FFF7D4FFAB683344984204D0E4
:103460002046FFF7CBFF0020F8BD20467942FFF74A
:10347000C7FF01300DD0104BAA681968F61B46F043
:1034800001062046C91B56601960FFF7B7FF0120EF
:10349000F8BD20460021FFF7B3FFAB68C21A0F2A20
:1034A000DEDD064D04492D6842F00102401B5A60E2
:1034B0000860D5E77C040020A009002088080020CF
:1034C0002DE9F0410D460646002955D0FFF794FF3F
:1034D00055F8041CDFF874C121F00103A5F10804BC
:1034E000E218DCF808005768904227F0030769D01B
:1034F00011F00101576032D00021D0194068C00797
:1035000006D43B44906800294ED0D268C2609060D7
:1035100043F001026260E350E1B9B3F5007F2DD3BF
:103520005A0A042A6AD89809383041000CEB810CF9
:103530004649DCF80820624566D0516821F0030155
:103540008B4202D292689445F7D1D368E360A260BF
:103550009C60D4603046BDE8F041FFF74FBF55F89E
:10356000085C641B0CF10808A06840452B4443D05C
:10357000E568C560A860C0E7BDE8F081DB080CEB3A
:10358000C3020125DCF804009168A1609B1005FAD4
:1035900003F31843E260CCF8040094603046CC603A
:1035A000BDE8F041FFF72ABF294DA842ADD143F055
:1035B0000102CCF81440CCF81040E060A0606260DA
:1035C000E350C7E71F44CB0707D455F8083CE41A7B
:1035D0001F44A268E368D3609A601E4B1B6847F0E3
:1035E00001029F426260CCF80840B3D31A4B3046C8
:1035F0001968FFF717FFADE701217EE7142A0CD801
:1036000002F15B00410091E74B688010012505FA4B
:1036100000F003434B60134698E7542A03D8180B75
:103620006E30410082E7B2F5AA7F03D8D80B77301D
:1036300041007BE740F254518A4203D8980C7C3019
:10364000410073E7FC217E2070E700BF7C0400206E
:1036500084040020840800209C090020CDCC8241F5
:103660005C8F8A41CDCC92419A999B41CDCCA441AB
:10367000D7A3AE41C3F5B8410000C44114AECF4159
:103680000000DC41B81EE941C3F5F641CDCC024251
:103690009A990A420AD712425C8F1B42CDCC24422F
:1036A0009A992E420000394200004442D7A34F426B
:1036B00000005C427B146942C3F57642ECD1824241
:1036C0009A998A420AD792425C8F9B42ECD1A442DB
:1036D000B89EAE420000B9420000C442F6A8CF42F4
:1036E0000000DC427B14E942A4F0F6425CCF0243C6
:1036F0000A970A437BD412435C8F1B435CCF24435D
:10370000299C2E43000039430000444366A64F43E2
:1037100000005C437B146943A4F07643A4D0824349
:103720000A978A437BD49243A4909B43A4D0A4439A
:10373000719DAE43B8FEB8430000C44366A6CF43B4
:103740000000DC437B14E943A4F0F64300D00244BC
:10375000AE970A441FD5124400901B44A4D02444C1
:10376000719D2E445CFF38445CFF43440AA74F44DC
:1037700000005C441F15694448F1764400D082443F
:103780005C978A441FD5924452909B4452D0A444E3
:103790001F9DAE445CFFB8445CFFC3440AA7CF44FE
:1037A0000000DC441F15E944F6F0F64400D0024561
:1037B0005C970A451FD5124552901B4552D02445AF
:1037C000489D2E455CFF38455CFF43450AA74F45A1
:1037D00000005C45F61469451FF1764514D082451A
:1037E0005C978A451FD592453D909B450A00000095
:1037F000496E6974207465726D696E6174656420C8
:103800000000000020706172616D65746572732044
:1038100062797465732061727269766564203A20FA
:1038200025640A00FFFFFFFFFFFFFFFFFFFFFFFF11
:10383000FFFFFFFFFFFFFFFFFFFFFFFFFFFFFFFF98
:10384000FFFFFFFFFFFFFFFFFFFFFFFFFFFFFFFF88
:10385000FFFFFFFFFFFFFFFFFFFFFFFFFFFFFFFF78
:10386000FFFFFFFFFFFFFFFFFFFFFFFFFFFFFFFF68
:10387000FFFFFFFFFFFFFFFFFFFFFFFFFFFFFFFF58
:10388000FFFFFFFFFFFFFFFFFFFFFFFFFFFFFFFF48
:10389000FFFFFFFFFFFFFFFFFFFFFFFFFFFFFFFF38
:1038A000FFFFFFFFFFFFFFFFFFFFFFFFFFFFFFFF28
:1038B000FFFFFFFFFFFFFFFFFFFFFFFFFFFFFFFF18
:1038C000FFFFFFFFFFFFFFFFFFFFFFFFFFFFFFFF08
:1038D000FFFFFFFFFFFFFFFFFFFFFFFFFFFFFFFFF8
:1038E000FFFFFFFF000000000100000002000000D9
:1038F00003000000040000000500000006000000B6
:10390000070000000800000009000000FFFFFFFFA3
:10391000FFFFFFFFFFFFFFFFFFFFFFFFFFFFFFFFB7
:10392000FFFFFFFFFFFFFFFFFFFFFFFFFFFFFFFFA7
:10393000FFFFFFFFFFFFFFFFFFFFFFFFFFFFFFFF97
:10394000FFFFFFFFFFFFFFFFFFFFFFFFFFFFFFFF87
:103C2000FFFFFFFF0000803FB03D833F0490863FD1
:103C3000F9F7893F36768D3F0F0B913FD8B6943F09
:103C4000E17A983FD6569C3F064CA03F185BA43FB4
:103C50000E84A83F36C8AC3FE527B13F16A4B53F58
:103C60001D3DBA3FF5F3BE3F9BC9C33F62BEC83F8F
:103C700046D3CD3F4209D33FFE60D83F23DBDD3F33
:103C8000FF78E33F3A3BE93FD122EF3F6A30F53F0F
:103C90005665FB3F48E1004089240440EE7C074024
:103CA000F2EA0A403F6F0E40520A1240D3BC154060
:103CB00040871940166A1D4051662140467C2540C8
:103CC000C5AC29404DF82D40D95F3240BDE33640A8
:103CD000F5843B405244404053224540C91F4A406E
:103CE000B03D4F40D97C5440ECDD5940BB615F4052
:103CF0006C096540D0D56A40B9C7704022E0764073
:103D000008207D4033C48140300D8540666B88407B
:103D10008FDF8B40016A8F40630B93405DC49640F8
:103D20006C959A40397F9E406B82A240959FA64039
:103D300073D7AA40992AAF40C499B340AF25B84081
:103D400018CFBC40BC96C140567DC640A583CB4031
:103D50008FAAD040D0F2D540645DDB4007EBE04055
:103D6000A29CE6402E73EC407E6FF240A392F84096
:103D700098DDFE40A2A8024166F70541965B094125
:103D8000C5D50C4171661041410E1441C8CD174193
:103D90008FA51B413E961F417BA02341E5C42741CF
:103DA00023042C41F25E3041EFD53441E2693941C0
:103DB0007C1B3E417BEB4241BADA4741E2E94C4190
:103DC000E31952417B6B574185DF5C41F3766241D9
:103DD0009632684160136E41411A744136487A4107
:103DE0001D4F8041A58E834135E38641604D8A4158
:103DF000A9CD8D41A9649141E7129541FCD8984124
:103E00008BB79C4130AFA04183C0A44137ECA8419F
:103E1000F432AD416795B1414614B64140B0BA4164
:103E2000216ABF410A2025643B0000004F736331C3
:103E30002077617665666F726D2073657420746F8C
:103E40002025640A000000004F73633220776176FA
:103E500065666F726D2073657420746F2025640A27
:103E6000000000000A202573000000000A202564DD
:103E70003B20256400000000737464696F2E633A70
:103E800020696E637265617365204D41585F5354BC
:103E900052494E475F53495A450A0D000000000041
:103EA0000E32C93B1C08493C91D0963C1C08C93CC9
:103EB000A73FFB3C15C6163DDAE12F3DA0FD483D6E
:103EC0006519623DAE2A7B3DFC1D8A3DA0A6963D4C
:103ED000452FA33DE9B7AF3D4F3BBC3DB6BEC83D06
:103EE000DE3CD53D06BBE13D2E39EE3D18B2FA3D34
:103EF0008195033E57CF093E2D09103E6440163E82
:103F00009A771C3E32AC223E2BDE283E23102F3EF9
:103F10007D3F353ED66E3B3E919B413EACC5473E14
:103F200029ED4D3EA514543E82395A3EC05B603E99
:103F30005F7B663EFE9A6C3E5FB5723EC0CF783EB8
:103F400082E77E3E527E823E4486853E378E883EA4
:103F5000D9948B3E2C9A8E3E309E913E959F943EF6
:103F6000F9A0973E0EA19A3E849E9D3EAA9AA03E3D
:103F70008195A33E088FA63E4087A93ED97CAC3EE2
:103F80002271AF3E1B64B23E7654B53ED044B83E7B
:103F90003C31BB3EA81DBE3E7407C13EA2EEC33EEF
:103FA000D0D5C63E0FB9C93EFE9ACC3E9E7BCF3ED1
:103FB0009F59D23E5036D53E6210D83E25E9DA3EB2
:103FC000F9BDDD3ECD92E03EB263E33E4833E63ECE
:103FD0003F00E93EE6CBEB3EEE94EE3E575BF13E12
:103FE000211FF43E4CE0F63E27A0F93E645DFC3E06
:103FF0000118FF3EFFE7003FAF42023F0F9C033F27
:10400000C7F4043F884B063FF9A0073FC3F5083FBC
:1040100095480A3F179A0B3FF2EA0C3FD6390E3FFC
:104020006A870F3FAED3103FA31E123F4968133F6C
:10403000F7AF143FFDF6153F0C3C173FCC7F183F00
:104040003BC2193FB4021B3FDD411C3FB77F1D3F00
:1040500041BC1E3FD3F61F3F1630213F6267223F0F
:104060005E9D233F0BD2243FC004263F2636273FC8
:104070003C66283F5B94293F83C02A3F5BEB2B3F84
:104080003C142D3FCD3B2E3F67612F3FB285303F23
:1040900005A8313F08C9323F6DE7333F2905353F59
:1040A0004720363F153A373FEC51383F7368393F68
:1040B0005B7C3A3FF38E3B3F3CA03C3FE6AE3D3F4E
:1040C00041BC3E3FA4C73F3F0FD1403F84D8413F52
:1040D00001DE423F2EE2433FBDE3443FFCE3453F68
:1040E00043E2463F94DE473FEDD8483F4ED1493F3B
:1040F000B9C74A3F2CBC4B3FA7AE4C3F2C9F4D3F0E
:10410000B98D4E3F4E7A4F3FED64503FEC4C513FDE
:104110009C33523F5518533F16FB533F38DB543FF7
:1041200063B9553F9695563FD26F573F1748583F52
:10413000641E593FBBF2593F72C45A3F31945B3FF2
:10414000FA615C3F232D5D3FFDF65D3F38BE5E3F6B
:10415000D4825F3F2046603FCD06613F82C5613F0C
:104160004182623F603C633F88F4633F11AA643F31
:104170004A5E653F3D0F663FE0BE663FE36B673FCB
:10418000F016683F5DBF683FD465693FAB096A3F81
:104190008AAB6A3FCB4A6B3F14E86B3F66836C3F48
:1041A000191C6D3FD5B26D3FF1466E3F6FD86E3F23
:1041B000F5676F3F84F56F3F7380703FC408713FB0
:1041C0001D8F713F7F13723F4295723F6614733F9C
:1041D0009291733F200C743F0E84743F05FA743F34
:1041E0005D6D753FBEDE753F7F4D763F49BA763FC8
:1041F000CD23773F008C773FEDF0773FE353783F57
:1042000039B4783F9912793F596E793F7AC7793F2F
:10421000A31E7A3F2E737A3F19C57A3F0E157B3F56
:10422000BB617B3F19AD7B3F30F57B3F4F3B7C3F14
:10423000D07E7C3FB1BF7C3F9BFE7C3FE73A7D3F19
:1042400092747D3F9FAB7D3FB5E07D3F2B137E3F5A
:1042500003437E3FE3707E3F7C9B7E3F1EC47E3FD8
:10426000C8EA7E3F2C0E7F3F982F7F3F664E7F3FF0
:10427000946A7F3FCB847F3F639C7F3F5BB17F3FEE
:10428000B5C37F3F6FD37F3F33E17F3F57EC7F3F25
:10429000DCF47F3FC2FA7F3FB0FE7F3F0000803FEB
:1042A000B0FE7F3FC2FA7F3FDCF47F3F57EC7F3F99
:1042B00033E17F3F6FD37F3FB5C37F3F5BB17F3F2C
:1042C000639C7F3FCB847F3F946A7F3F664E7F3FF6
:1042D000982F7F3F2C0E7F3FC8EA7E3F1EC47E3F53
:1042E0007C9B7E3FE3707E3F03437E3F2B137E3FEC
:1042F000B5E07D3F9FAB7D3F92747D3FE73A7D3FC8
:104300009BFE7C3FB1BF7C3FD07E7C3F4F3B7C3FE0
:1043100030F57B3F19AD7B3FBB617B3F0E157B3F8B
:1043200019C57A3F2E737A3FA31E7A3F7AC7793F29
:10433000596E793F9912793F39B4783FE353783F0A
:10434000EDF0773F008C773FCD23773F49BA763F3A
:104350007F4D763FBEDE753F5D6D753F05FA743F5C
:104360000E84743F200C743F9291733F6614733F28
:104370004295723F7F13723F1D8F713FC408713F9A
:104380007380703F84F56F3FF5676F3F6FD86E3F66
:10439000F1466E3FD5B26D3F191C6D3F66836C3F91
:1043A00014E86B3FCB4A6B3F8AAB6A3FAB096A3F6D
:1043B000D465693F5DBF683FF016683FE36B673FB8
:1043C000E0BE663F3D0F663F4A5E653F11AA643F0F
:1043D00088F4633F603C633F4182623F82C5613F36
:1043E000CD06613F2046603FD4825F3F38BE5E3FCE
:1043F000FDF65D3F232D5D3FFA615C3F31945B3FED
:1044000072C45A3FBBF2593F641E593F1748583F88
:10441000D26F573F9695563F63B9553F38DB543FAF
:1044200016FB533F5518533F9C33523FEC4C513FC2
:10443000ED64503F4E7A4F3FB98D4E3F2C9F4D3F1C
:10444000A7AE4C3F2CBC4B3FB9C74A3F4ED1493F6A
:10445000EDD8483F94DE473F43E2463FFCE3453F0B
:10446000BDE3443F2EE2433F01DE423F84D8413F5B
:104470000FD1403FA4C73F3F41BC3E3FE6AE3D3F6A
:104480003CA03C3FF38E3B3F5B7C3A3F7368393F37
:10449000EC51383F153A373F4720363F2905353F25
:1044A0006DE7333F08C9323F05A8313FB285303F41
:1044B00067612F3FCD3B2E3F3C142D3F5BEB2B3FE5
:1044C00083C02A3F5B94293F3C66283F2636273F1E
:1044D000C004263F0BD2243F5E9D233F6267223FEC
:1044E0001630213FD3F61F3F41BC1E3FB77F1D3F13
:1044F000DD411C3FB4021B3F3BC2193FCC7F183F3C
:104500000C3C173FFDF6153FF7AF143F4968133FCA
:10451000A31E123FAED3103F6A870F3FD6390E3F1E
:10452000F2EA0C3F179A0B3F95480A3FC3F5083F44
:10453000F9A0073F884B063FC7F4043F0F9C033F99
:10454000AF42023FFFE7003F0118FF3E645DFC3EC3
:1045500027A0F93E4CE0F63E211FF43E575BF13EAA
:10456000EE94EE3EE6CBEB3E3F00E93E4833E63EBE
:10457000B263E33ECD92E03EF9BDDD3E25E9DA3E91
:104580006210D83E5036D53E9F59D23E9E7BCF3EDC
:10459000FE9ACC3E0FB9C93ED0D5C63EA2EEC33E70
:1045A0007407C13EA81DBE3E3C31BB3ED044B83E60
:1045B0007654B53E1B64B23E2271AF3ED97CAC3E10
:1045C0004087A93E088FA63E8195A33EAA9AA03EA9
:1045D000849E9D3E0EA19A3EF9A0973E959F943EE3
:1045E000309E913E2C9A8E3ED9948B3E378E883EDB
:1045F0004486853E527E823E82E77E3EC0CF783E34
:104600005FB5723EFE9A6C3E5F7B663EC05B603E6D
:1046100082395A3EA514543E29ED4D3EACC5473E65
:10462000919B413ED66E3B3E7D3F353E23102F3E53
:104630002BDE283E32AC223E9A771C3E6440163E6A
:104640002D09103E57CF093E8195033E18B2FA3D21
:104650002E39EE3D06BBE13DDE3CD53DB6BEC83D44
:104660004F3BBC3DE9B7AF3D452FA33DA0A6963DCE
:10467000FC1D8A3DAE2A7B3D6519623DA0FD483D8B
:10468000DAE12F3D15C6163DA73FFB3C1C08C93C8F
:1046900091D0963C1C08493C0E32C93B00000000FA
:1046A0000E32C9BB1C0849BC91D096BC1C08C9BCC1
:1046B000A73FFBBC15C616BDDAE12FBDA0FD48BD66
:1046C000651962BDAE2A7BBDFC1D8ABDA0A696BD44
:1046D000452FA3BDE9B7AFBD4F3BBCBDB6BEC8BDFE
:1046E000DE3CD5BD06BBE1BD2E39EEBD18B2FABD2C
:1046F000819503BE57CF09BE2D0910BE644016BE7A
:104700009A771CBE32AC22BE2BDE28BE23102FBEF1
:104710007D3F35BED66E3BBE919B41BEACC547BE0C
:1047200029ED4DBEA51454BE82395ABEC05B60BE91
:104730005F7B66BEFE9A6CBE5FB572BEC0CF78BEB0
:1047400082E77EBE527E82BE448685BE378E88BE9C
:10475000D9948BBE2C9A8EBE309E91BE959F94BEEE
:10476000F9A097BE0EA19ABE849E9DBEAA9AA0BE35
:104770008195A3BE088FA6BE4087A9BED97CACBEDA
:104780002271AFBE1B64B2BE7654B5BED044B8BE73
:104790003C31BBBEA81DBEBE7407C1BEA2EEC3BEE7
:1047A000D0D5C6BE0FB9C9BEFE9ACCBE9E7BCFBEC9
:1047B0009F59D2BE5036D5BE6210D8BE25E9DABEAA
:1047C000F9BDDDBECD92E0BEB263E3BE4833E6BEC6
:1047D0003F00E9BEE6CBEBBEEE94EEBE575BF1BE0A
:1047E000211FF4BE4CE0F6BE27A0F9BE645DFCBEFE
:1047F0000118FFBEFFE700BFAF4202BF0F9C03BF1F
:10480000C7F404BF884B06BFF9A007BFC3F508BFB4
:1048100095480ABF179A0BBFF2EA0CBFD6390EBFF4
:104820006A870FBFAED310BFA31E12BF496813BF64
:10483000F7AF14BFFDF615BF0C3C17BFCC7F18BFF8
:104840003BC219BFB4021BBFDD411CBFB77F1DBFF8
:1048500041BC1EBFD3F61FBF163021BF626722BF07
:104860005E9D23BF0BD224BFC00426BF263627BFC0
:104870003C6628BF5B9429BF83C02ABF5BEB2BBF7C
:104880003C142DBFCD3B2EBF67612FBFB28530BF1B
:1048900005A831BF08C932BF6DE733BF290535BF51
:1048A000472036BF153A37BFEC5138BF736839BF60
:1048B0005B7C3ABFF38E3BBF3CA03CBFE6AE3DBF46
:1048C00041BC3EBFA4C73FBF0FD140BF84D841BF4A
:1048D00001DE42BF2EE243BFBDE344BFFCE345BF60
:1048E00043E246BF94DE47BFEDD848BF4ED149BF33
:1048F000B9C74ABF2CBC4BBFA7AE4CBF2C9F4DBF06
:10490000B98D4EBF4E7A4FBFED6450BFEC4C51BFD6
:104910009C3352BF551853BF16FB53BF38DB54BFEF
:1049200063B955BF969556BFD26F57BF174858BF4A
:10493000641E59BFBBF259BF72C45ABF31945BBFEA
:10494000FA615CBF232D5DBFFDF65DBF38BE5EBF63
:10495000D4825FBF204660BFCD0661BF82C561BF04
:10496000418262BF603C63BF88F463BF11AA64BF29
:104970004A5E65BF3D0F66BFE0BE66BFE36B67BFC3
:10498000F01668BF5DBF68BFD46569BFAB096ABF79
:104990008AAB6ABFCB4A6BBF14E86BBF66836CBF40
:1049A000191C6DBFD5B26DBFF1466EBF6FD86EBF1B
:1049B000F5676FBF84F56FBF738070BFC40871BFA8
:1049C0001D8F71BF7F1372BF429572BF661473BF94
:1049D000929173BF200C74BF0E8474BF05FA74BF2C
:1049E0005D6D75BFBEDE75BF7F4D76BF49BA76BFC0
:1049F000CD2377BF008C77BFEDF077BFE35378BF4F
:104A000039B478BF991279BF596E79BF7AC779BF27
:104A1000A31E7ABF2E737ABF19C57ABF0E157BBF4E
:104A2000BB617BBF19AD7BBF30F57BBF4F3B7CBF0C
:104A3000D07E7CBFB1BF7CBF9BFE7CBFE73A7DBF11
:104A400092747DBF9FAB7DBFB5E07DBF2B137EBF52
:104A500003437EBFE3707EBF7C9B7EBF1EC47EBFD0
:104A6000C8EA7EBF2C0E7FBF982F7FBF664E7FBFE8
:104A7000946A7FBFCB847FBF639C7FBF5BB17FBFE6
:104A8000B5C37FBF6FD37FBF33E17FBF57EC7FBF1D
:104A9000DCF47FBFC2FA7FBFB0FE7FBF000080BFE3
:104AA000B0FE7FBFC2FA7FBFDCF47FBF57EC7FBF91
:104AB00033E17FBF6FD37FBFB5C37FBF5BB17FBF24
:104AC000639C7FBFCB847FBF946A7FBF664E7FBFEE
:104AD000982F7FBF2C0E7FBFC8EA7EBF1EC47EBF4B
:104AE0007C9B7EBFE3707EBF03437EBF2B137EBFE4
:104AF000B5E07DBF9FAB7DBF92747DBFE73A7DBFC0
:104B00009BFE7CBFB1BF7CBFD07E7CBF4F3B7CBFD8
:104B100030F57BBF19AD7BBFBB617BBF0E157BBF83
:104B200019C57ABF2E737ABFA31E7ABF7AC779BF21
:104B3000596E79BF991279BF39B478BFE35378BF02
:104B4000EDF077BF008C77BFCD2377BF49BA76BF32
:104B50007F4D76BFBEDE75BF5D6D75BF05FA74BF54
:104B60000E8474BF200C74BF929173BF661473BF20
:104B7000429572BF7F1372BF1D8F71BFC40871BF92
:104B8000738070BF84F56FBFF5676FBF6FD86EBF5E
:104B9000F1466EBFD5B26DBF191C6DBF66836CBF89
:104BA00014E86BBFCB4A6BBF8AAB6ABFAB096ABF65
:104BB000D46569BF5DBF68BFF01668BFE36B67BFB0
:104BC000E0BE66BF3D0F66BF4A5E65BF11AA64BF07
:104BD00088F463BF603C63BF418262BF82C561BF2E
:104BE000CD0661BF204660BFD4825FBF38BE5EBFC6
:104BF000FDF65DBF232D5DBFFA615CBF31945BBFE5
:104C000072C45ABFBBF259BF641E59BF174858BF80
:104C1000D26F57BF969556BF63B955BF38DB54BFA7
:104C200016FB53BF551853BF9C3352BFEC4C51BFBA
:104C3000ED6450BF4E7A4FBFB98D4EBF2C9F4DBF14
:104C4000A7AE4CBF2CBC4BBFB9C74ABF4ED149BF62
:104C5000EDD848BF94DE47BF43E246BFFCE345BF03
:104C6000BDE344BF2EE243BF01DE42BF84D841BF53
:104C70000FD140BFA4C73FBF41BC3EBFE6AE3DBF62
:104C80003CA03CBFF38E3BBF5B7C3ABF736839BF2F
:104C9000EC5138BF153A37BF472036BF290535BF1D
:104CA0006DE733BF08C932BF05A831BFB28530BF39
:104CB00067612FBFCD3B2EBF3C142DBF5BEB2BBFDD
:104CC00083C02ABF5B9429BF3C6628BF263627BF16
:104CD000C00426BF0BD224BF5E9D23BF626722BFE4
:104CE000163021BFD3F61FBF41BC1EBFB77F1DBF0B
:104CF000DD411CBFB4021BBF3BC219BFCC7F18BF34
:104D00000C3C17BFFDF615BFF7AF14BF496813BFC2
:104D1000A31E12BFAED310BF6A870FBFD6390EBF16
:104D2000F2EA0CBF179A0BBF95480ABFC3F508BF3C
:104D3000F9A007BF884B06BFC7F404BF0F9C03BF91
:104D4000AF4202BFFFE700BF0118FFBE645DFCBEBB
:104D500027A0F9BE4CE0F6BE211FF4BE575BF1BEA2
:104D6000EE94EEBEE6CBEBBE3F00E9BE4833E6BEB6
:104D7000B263E3BECD92E0BEF9BDDDBE25E9DABE89
:104D80006210D8BE5036D5BE9F59D2BE9E7BCFBED4
:104D9000FE9ACCBE0FB9C9BED0D5C6BEA2EEC3BE68
:104DA0007407C1BEA81DBEBE3C31BBBED044B8BE58
:104DB0007654B5BE1B64B2BE2271AFBED97CACBE08
:104DC0004087A9BE088FA6BE8195A3BEAA9AA0BEA1
:104DD000849E9DBE0EA19ABEF9A097BE959F94BEDB
:104DE000309E91BE2C9A8EBED9948BBE378E88BED3
:104DF000448685BE527E82BE82E77EBEC0CF78BE2C
:104E00005FB572BEFE9A6CBE5F7B66BEC05B60BE65
:104E100082395ABEA51454BE29ED4DBEACC547BE5D
:104E2000919B41BED66E3BBE7D3F35BE23102FBE4B
:104E30002BDE28BE32AC22BE9A771CBE644016BE62
:104E40002D0910BE57CF09BE819503BE18B2FABD19
:104E50002E39EEBD06BBE1BDDE3CD5BDB6BEC8BD3C
:104E60004F3BBCBDE9B7AFBD452FA3BDA0A696BDC6
:104E7000FC1D8ABDAE2A7BBD651962BDA0FD48BD83
:104E8000DAE12FBD15C616BDA73FFBBC1C08C9BC87
:104E900091D096BC1C0849BC0E32C9BB0000000072
:104EA000789CA23D0C07223E0395713E4AB59F3E79
:104EB000187DC53EB1E1E93EBD52063FB4C8163F7C
:104EC0002E39263FDA8F343FB6B9413F00A94D3F16
:104ED0003B53583FD9B1613F94C1693F0A85703F48
:104EE0002A00763F213C7A3F63457D3F022B7F3F7E
:104EF0000000803FAED87F3FFBCB7E3FD0F27C3FAF
:104F0000B2687A3FD847773F71AC733F03B26F3FC7
:104F10000C766B3F1B12673F66A0623F7E3A5E3F96
:104F2000A9F6593F3AE9553F8126523FE8BC4E3F2A
:104F3000DCBA4B3FD82A493FBA14473F677E453F0A
:104F4000D769443F62D6433F6AC1433FAF25443FE0
:104F5000FCFB443F7E3A463FB6D6473F8BC3493FB2
:104F6000E0F34B3FFB574E3F19E2503F2783533F3F
:104F7000C32A563F29CB583F97565B3F48BF5D3FFA
:104F800072F95F3F98FA613F8CB9633FC22F653F6A
:104F9000AC56663F5A2A673F7EA9673F6FD3673F8B
:104FA00026AA673FE830673F4C6C663FE162653F89
:104FB000DA1B643F66A0623F09F9603FE8305F3F5B
:104FC0007E525D3F49685B3F6B7D593FBB9B573FBE
:104FD0000CCD553F821C543FAC90523F0E32513F96
:104FE0003507503F62154F3FD95F4E3FE2E94D3FD5
:104FF00024B44D3FA1BE4D3F07084E3F118D4E3F9B
:10500000CF494F3F0439503FCA54513FEA95523F70
:1050100088F4533F6E69553F70EB563FB072583F6E
:10502000A9F6593F2F6E5B3F0BD25C3FB01B5E3F32
:1050300042435F3F8143603FD717613F56BC613FAA
:10504000B62D623F516B623F7E74623F3D49623FC5
:1050500085EB613FF65D613F27A5603F05C55F3F7A
:1050600076C35E3FB9A55D3F04735C3FE4315B3FAF
:105070008EE9593F90A0583F705F573F6B2B563FCA
:105080005F0C553FE206543FDA20533F355E523FF6
:1050900033C4513F7A53513FF90F513F09F9503F03
:1050A000F90F513F2A52513FF5BE513F1153523F24
:1050B000910A533F87E1533F5BD3543F7FD9553F1C
:1050C0000FEE563F740C583FCF2C593FE4495A3FDE
:1050D000255D5B3F52615C3FDF4F5D3FDD245E3FFE
:1050E000B6DB5E3F22715F3F33E15F3F992A603F4D
:1050F000064C603F7845603FF016603F65C25F3FF9
:1051000028495F3F7DAE5E3F55F65D3F46255D3FDA
:10511000963E5C3FD4485B3F95485A3F6744593FB1
:105120003A40583F4243573FBD52563F9B72553F0E
:10513000C1A8543F1EF9533F5166533F49F4523FB3
:10514000A4A5523F637A523F7E74523FA392523FCE
:10515000D4D4523FC139533F7BBD533FB35E543F1C
:10516000D218553F43E7553F15C6563FB4B0573F99
:1051700038A1583F0C93593F49805A3F5A645B3FCE
:10518000A83A5C3FF4FD5C3F50AA5D3F753C5E3F32
:105190001CB15E3F4F065F3F153A5F3F1F4B5F3FBD
:1051A000153A5F3FF7065F3F14B35E3F64405E3FD2
:1051B00085B15D3FC0095D3F594C5C3F917E5B3FCF
:1051C00055A45A3F94C1593FDBDC583F1AFA573F68
:1051D000E71D573F274E563F7A8D553FC6E1543F56
:1051E000514E543F13D5533FFB79533FB03D533F8E
:1051F0002922533F6727533F124E533F3194533F69
:1052000077F8533FEA78543FEC12553FE8C1553FD9
:105210003C83563F5452573F992A583FCD06593F39
:10522000A8E3593F9DBA5A3F66885B3F6B485C3F95
:105230006FF55C3F7A8D5D3F4E0B5E3F446E5E3F87
:1052400014B35E3F6FD85E3FADDD5E3FCEC25E3FC2
:105250007B885E3F01305E3F5ABB5D3F232D5D3F43
:10526000FD875C3F7DD05B3F42095B3F8B375A3FF8
:10527000EE5F593F5986583FB4B0573F43E2563F1F
:105280004720563FAD6E553F0BD2543F594C543FCB
:1052900087E1533F8A93533FB263533FF853533FE1
:1052A000B263533F8A93533F87E1533F594C543F76
:1052B0000BD2543FAD6E553F4720563F43E2563F19
:1052C000B4B0573F5986583FEE5F593F8B375A3F2E
:1052D00042095B3F7DD05B3FFD875C3F232D5D3FF7
:1052E0005ABB5D3F01305E3F7B885E3FCEC25E3F72
:1052F000ADDD5E3F6FD85E3F14B35E3F446E5E3FF0
:105300004E0B5E3F7A8D5D3F6FF55C3F6B485C3FB7
:1053100066885B3F9DBA5A3FA8E3593FCD06593F87
:10532000992A583F5452573F3C83563FE8C1553F56
:10533000EC12553FEA78543F77F8533F3194533F8E
:10534000124E533F6727533F2922533FB03D533FEF
:10535000FB79533F13D5533F514E543FC6E1543F61
:105360007A8D553F274E563FE71D573F1AFA573F54
:10537000DBDC583F94C1593F55A45A3F917E5B3FB7
:10538000594C5C3FC0095D3F85B15D3F64405E3F65
:1053900014B35E3FF7065F3F153A5F3F1F4B5F3F19
:1053A000153A5F3F4F065F3F1CB15E3F753C5E3F65
:1053B00050AA5D3FF4FD5C3FA83A5C3F5A645B3FF6
:1053C00049805A3F0C93593F38A1583FB4B0573FDA
:1053D00015C6563F43E7553FD218553FB35E543F7D
:1053E0007BBD533FC139533FD4D4523FA392523F68
:1053F0007E74523F637A523FA4A5523F49F4523F14
:105400005166533F1EF9533FC1A8543F9B72553F0D
:10541000BD52563F4243573F3A40583F6744593F79
:1054200095485A3FD4485B3F963E5C3F46255D3FDA
:1054300055F65D3F7DAE5E3F28495F3F65C25F3FE9
:10544000F016603F7845603F064C603F992A603F08
:1054500033E15F3F22715F3FB6DB5E3FDD245E3F9D
:10546000DF4F5D3F52615C3F255D5B3FE4495A3F42
:10547000CF2C593F740C583F0FEE563F7FD9553F04
:105480005BD3543F87E1533F910A533F1153523F3F
:10549000F5BE513F2A52513FF90F513F09F9503F94
:1054A000F90F513F7A53513F33C4513F355E523F5C
:1054B000DA20533FE206543F5F0C553F6B2B563FBB
:1054C000705F573F90A0583F8EE9593FE4315B3FF2
:1054D00004735C3FB9A55D3F76C35E3F05C55F3F82
:1054E00027A5603FF65D613F85EB613F3D49623F27
:1054F0007E74623F516B623FB62D623F56BC613F86
:10550000D717613F8143603F42435F3FB01B5E3F1F
:105510000BD25C3F2F6E5B3FA9F6593FB072583FEC
:1055200070EB563F6E69553F88F4533FEA95523F02
:10553000CA54513F0439503FCF494F3F118D4E3F20
:1055400007084E3FA1BE4D3F24B44D3FE2E94D3F19
:10555000D95F4E3F62154F3F3507503F0E32513FE6
:10556000AC90523F821C543F0CCD553FBB9B573FE4
:105570006B7D593F49685B3F7E525D3FE8305F3F3E
:1055800009F9603F66A0623FDA1B643FE162653F54
:105590004C6C663FE830673F26AA673F6FD3673F92
:1055A0007EA9673F5A2A673FAC56663FC22F653FC8
:1055B0008CB9633F98FA613F72F95F3F48BF5D3F26
:1055C00097565B3F29CB583FC32A563F2783533F0B
:1055D00019E2503FFB574E3FE0F34B3F8BC3493F2F
:1055E000B6D6473F7E3A463FFCFB443FAF25443F9B
:1055F0006AC1433F62D6433FD769443F677E453F18
:10560000BA14473FD82A493FDCBA4B3FE8BC4E3F6B
:105610008126523F3AE9553FA9F6593F7E3A5E3F0F
:1056200066A0623F1B12673F0C766B3F03B26F3F71
:1056300071AC733FD847773FB2687A3FD0F27C3F76
:10564000FBCB7E3FAED87F3F0000803F022B7F3FE9
:1056500063457D3F213C7A3F2A00763F0A85703FB3
:1056600094C1693FD9B1613F3B53583F00A94D3FB9
:10567000B6B9413FDA8F343F2E39263FB4C8163FC2
:10568000BD52063FB1E1E93E187DC53E4AB59F3E99
:105690000395713E0C07223E789CA23D000000005D
:1056A000789CA2BD0C0722BE039571BE4AB59FBE71
:1056B000187DC5BEB1E1E9BEBD5206BFB4C816BF74
:1056C0002E3926BFDA8F34BFB6B941BF00A94DBF0E
:1056D0003B5358BFD9B161BF94C169BF0A8570BF40
:1056E0002A0076BF213C7ABF63457DBF022B7FBF76
:1056F000000080BFAED87FBFFBCB7EBFD0F27CBFA7
:10570000B2687ABFD84777BF71AC73BF03B26FBFBF
:105710000C766BBF1B1267BF66A062BF7E3A5EBF8E
:10572000A9F659BF3AE955BF812652BFE8BC4EBF22
:10573000DCBA4BBFD82A49BFBA1447BF677E45BF02
:10574000D76944BF62D643BF6AC143BFAF2544BFD8
:10575000FCFB44BF7E3A46BFB6D647BF8BC349BFAA
:10576000E0F34BBFFB574EBF19E250BF278353BF37
:10577000C32A56BF29CB58BF97565BBF48BF5DBFF2
:1057800072F95FBF98FA61BF8CB963BFC22F65BF62
:10579000AC5666BF5A2A67BF7EA967BF6FD367BF83
:1057A00026AA67BFE83067BF4C6C66BFE16265BF81
:1057B000DA1B64BF66A062BF09F960BFE8305FBF53
:1057C0007E525DBF49685BBF6B7D59BFBB9B57BFB6
:1057D0000CCD55BF821C54BFAC9052BF0E3251BF8E
:1057E000350750BF62154FBFD95F4EBFE2E94DBFCD
:1057F00024B44DBFA1BE4DBF07084EBF118D4EBF93
:10580000CF494FBF043950BFCA5451BFEA9552BF68
:1058100088F453BF6E6955BF70EB56BFB07258BF66
:10582000A9F659BF2F6E5BBF0BD25CBFB01B5EBF2A
:1058300042435FBF814360BFD71761BF56BC61BFA2
:10584000B62D62BF516B62BF7E7462BF3D4962BFBD
:1058500085EB61BFF65D61BF27A560BF05C55FBF72
:1058600076C35EBFB9A55DBF04735CBFE4315BBFA7
:105870008EE959BF90A058BF705F57BF6B2B56BFC2
:105880005F0C55BFE20654BFDA2053BF355E52BFEE
:1058900033C451BF7A5351BFF90F51BF09F950BFFB
:1058A000F90F51BF2A5251BFF5BE51BF115352BF1C
:1058B000910A53BF87E153BF5BD354BF7FD955BF14
:1058C0000FEE56BF740C58BFCF2C59BFE4495ABFD6
:1058D000255D5BBF52615CBFDF4F5DBFDD245EBFF6
:1058E000B6DB5EBF22715FBF33E15FBF992A60BF45
:1058F000064C60BF784560BFF01660BF65C25FBFF1
:1059000028495FBF7DAE5EBF55F65DBF46255DBFD2
:10591000963E5CBFD4485BBF95485ABF674459BFA9
:105920003A4058BF424357BFBD5256BF9B7255BF06
:10593000C1A854BF1EF953BF516653BF49F452BFAB
:10594000A4A552BF637A52BF7E7452BFA39252BFC6
:10595000D4D452BFC13953BF7BBD53BFB35E54BF14
:10596000D21855BF43E755BF15C656BFB4B057BF91
:1059700038A158BF0C9359BF49805ABF5A645BBFC6
:10598000A83A5CBFF4FD5CBF50AA5DBF753C5EBF2A
:105990001CB15EBF4F065FBF153A5FBF1F4B5FBFB5
:1059A000153A5FBFF7065FBF14B35EBF64405EBFCA
:1059B00085B15DBFC0095DBF594C5CBF917E5BBFC7
:1059C00055A45ABF94C159BFDBDC58BF1AFA57BF60
:1059D000E71D57BF274E56BF7A8D55BFC6E154BF4E
:1059E000514E54BF13D553BFFB7953BFB03D53BF86
:1059F000292253BF672753BF124E53BF319453BF61
:105A000077F853BFEA7854BFEC1255BFE8C155BFD1
:105A10003C8356BF545257BF992A58BFCD0659BF31
:105A2000A8E359BF9DBA5ABF66885BBF6B485CBF8D
:105A30006FF55CBF7A8D5DBF4E0B5EBF446E5EBF7F
:105A400014B35EBF6FD85EBFADDD5EBFCEC25EBFBA
:105A50007B885EBF01305EBF5ABB5DBF232D5DBF3B
:105A6000FD875CBF7DD05BBF42095BBF8B375ABFF0
:105A7000EE5F59BF598658BFB4B057BF43E256BF17
:105A8000472056BFAD6E55BF0BD254BF594C54BFC3
:105A900087E153BF8A9353BFB26353BFF85353BFD9
:105AA000B26353BF8A9353BF87E153BF594C54BF6E
:105AB0000BD254BFAD6E55BF472056BF43E256BF11
:105AC000B4B057BF598658BFEE5F59BF8B375ABF26
:105AD00042095BBF7DD05BBFFD875CBF232D5DBFEF
:105AE0005ABB5DBF01305EBF7B885EBFCEC25EBF6A
:105AF000ADDD5EBF6FD85EBF14B35EBF446E5EBFE8
:105B00004E0B5EBF7A8D5DBF6FF55CBF6B485CBFAF
:105B100066885BBF9DBA5ABFA8E359BFCD0659BF7F
:105B2000992A58BF545257BF3C8356BFE8C155BF4E
:105B3000EC1255BFEA7854BF77F853BF319453BF86
:105B4000124E53BF672753BF292253BFB03D53BFE7
:105B5000FB7953BF13D553BF514E54BFC6E154BF59
:105B60007A8D55BF274E56BFE71D57BF1AFA57BF4C
:105B7000DBDC58BF94C159BF55A45ABF917E5BBFAF
:105B8000594C5CBFC0095DBF85B15DBF64405EBF5D
:105B900014B35EBFF7065FBF153A5FBF1F4B5FBF11
:105BA000153A5FBF4F065FBF1CB15EBF753C5EBF5D
:105BB00050AA5DBFF4FD5CBFA83A5CBF5A645BBFEE
:105BC00049805ABF0C9359BF38A158BFB4B057BFD2
:105BD00015C656BF43E755BFD21855BFB35E54BF75
:105BE0007BBD53BFC13953BFD4D452BFA39252BF60
:105BF0007E7452BF637A52BFA4A552BF49F452BF0C
:105C0000516653BF1EF953BFC1A854BF9B7255BF05
:105C1000BD5256BF424357BF3A4058BF674459BF71
:105C200095485ABFD4485BBF963E5CBF46255DBFD2
:105C300055F65DBF7DAE5EBF28495FBF65C25FBFE1
:105C4000F01660BF784560BF064C60BF992A60BF00
:105C500033E15FBF22715FBFB6DB5EBFDD245EBF95
:105C6000DF4F5DBF52615CBF255D5BBFE4495ABF3A
:105C7000CF2C59BF740C58BF0FEE56BF7FD955BFFC
:105C80005BD354BF87E153BF910A53BF115352BF37
:105C9000F5BE51BF2A5251BFF90F51BF09F950BF8C
:105CA000F90F51BF7A5351BF33C451BF355E52BF54
:105CB000DA2053BFE20654BF5F0C55BF6B2B56BFB3
:105CC000705F57BF90A058BF8EE959BFE4315BBFEA
:105CD00004735CBFB9A55DBF76C35EBF05C55FBF7A
:105CE00027A560BFF65D61BF85EB61BF3D4962BF1F
:105CF0007E7462BF516B62BFB62D62BF56BC61BF7E
:105D0000D71761BF814360BF42435FBFB01B5EBF17
:105D10000BD25CBF2F6E5BBFA9F659BFB07258BFE4
:105D200070EB56BF6E6955BF88F453BFEA9552BFFA
:105D3000CA5451BF043950BFCF494FBF118D4EBF18
:105D400007084EBFA1BE4DBF24B44DBFE2E94DBF11
:105D5000D95F4EBF62154FBF350750BF0E3251BFDE
:105D6000AC9052BF821C54BF0CCD55BFBB9B57BFDC
:105D70006B7D59BF49685BBF7E525DBFE8305FBF36
:105D800009F960BF66A062BFDA1B64BFE16265BF4C
:105D90004C6C66BFE83067BF26AA67BF6FD367BF8A
:105DA0007EA967BF5A2A67BFAC5666BFC22F65BFC0
