:020000040800F2
:10000000A48F0020A90C0008A50C0008A50C00086E
:10001000A50C0008A50C0008A50C000800000000B5
:10002000000000000000000000000000A50C000817
:10003000A50C000800000000A50C0008A50C000895
:10004000A50C0008A50C0008A50C0008A50C0008CC
:10005000A50C0008A50C0008A50C0008A50C0008BC
:10006000A50C0008A50C0008A50C0008BD08000898
:10007000790F0008A50C0008A50C0008A50C0008C5
:10008000A50C0008A50C0008A50C0008A50C00088C
:10009000A50C0008A50C0008A50C0008A50C00087C
:1000A000A50C0008A50C0008A50C0008A50C00086C
:1000B000A50C0008A50C0008A50C0008A50C00085C
:1000C000A50C0008A50C0008A50C0008A50C00084C
:1000D000A50C0008710F0008A50C0008750F00089A
:1000E000A50C0008A50C0008A50C0008A50C00082C
:1000F000A50C0008A50C0008A50C00086D08000858
:10010000A50C0008A50C0008A50C00080D090008A6
:10011000A50C0008A50C0008A50C0008A50C0008FB
:10012000A50C0008A50C00089D0F0008A50C0008F0
:10013000A50C0008A50C0008A50C0008A50C0008DB
:10014000A50C0008A50C0008A50C0008A50C0008CB
:10015000A50C0008A50C0008A50C0008A50C0008BB
:10016000A50C0008A50C0008A50C0008A50C0008AB
:10017000A50C0008A50C0008A50C0008A50C00089B
:10018000A50C0008A50C000870B58D4C4FF4961313
:1001900006460D46236005E023685A1E2260002BA8
:1001A00000F0018187484FF4003102F047FE00283B
:1001B000F2D18448012102F0FBFD4FF4805323600B
:1001C00005E023685A1E2260002B00F0EC807D4879
:1001D0007D4902F027FE0028F3D07A4894210022BE
:1001E00002F002FE4FF48053236005E023685A1E9C
:1001F0002260002B00F0D7807248744902F012FE92
:100200000028F3D06F48314602F006FE4FF48053C9
:10021000236005E023685A1E2260002B00F0C38093
:1002200068486B4902F0FEFD0028F3D06548294676
:1002300002F0F2FD4FF49613236005E023685A1E86
:100240002260002B00F0B9805E48624902F0F6FDA2
:100250000028F3D05B48012102F0B8FD4FF496135B
:10026000236005E023685A1E2260002B00F09F8067
:1002700054484FF4003102F0E1FD0028F2D151481A
:10028000012102F095FD4FF48053236005E02368BF
:100290005A1E2260002B00F08A804A484A4902F028
:1002A000C1FD0028F3D047489421002202F09CFDB4
:1002B0004FF48053236004E023685A1E2260002B11
:1002C00075D04048414902F0ADFD0028F4D03146D8
:1002D0003C4802F0A1FD4FF48053236004E0236802
:1002E0005A1E2260002B62D036483A4902F0A6FD21
:1002F0000028F4D03348012102F05AFD4FF4805316
:10030000236004E023685A1E2260002B4FD02D4842
:100310002D4902F087FD0028F4D02A4894210122BB
:1003200002F062FD4FF48053236004E023685A1EFC
:100330002260002B3BD0234E2749304602F07EFD41
:100340000028F3D03046002102F058FD304601214C
:10035000338B02F03BFD4FF48053236003E02368AE
:100360005A1E22601BB317481C4902F067FD002883
:10037000F5D0144802F052FD4FF480530646236036
:10038000104A03E02368591E216083B113889B053E
:10039000F8D40C48012102F031FD0A48104902F05E
:1003A00069FD304605E0BDE8704000F0DFBD00F0BB
:1003B000DDFD281A18BF012070BD00F0D7FD43E70E
:1003C00000000020005400400100030082000700EC
:1003D0008000070004000010020000104000001020
:1003E000000400102DE9F04F64298BB0914600F213
:1003F0001E81D04BC1EB012183FB012AC917C1EB40
:100400006A1A5FFA8AFA0AF119085FFA88F808206E
:10041000012100F01DFE02250024012706A9C6487F
:100420008DF81C704FF0100BCDF818B08DF81D50E2
:100430008DF81E408DF81F4002F090F839460720D5
:1004400000F006FE4FF4107306A9BC4806938DF821
:100450001C508DF81D508DF81E708DF81F4002F055
:100460007DF8B648B64E0621042202F0E5F80422D3
:10047000B248092102F0E0F84FF4A05306A9B148B0
:1004800006938DF81C508DF81D508DF81E408DF888
:100490001F4002F063F8AC480421062202F0CCF8B9
:1004A000A8480A21062202F0C7F87368AB4200F0A0
:1004B0000081A548CDF818B006A902F04FF8A14870
:1004C0000C21062202F0B8F80223002480229D4865
:1004D0008DF81C3006A98DF81D3006928DF81E404F
:1004E0008DF81F4002F03AF896480721062202F0E4
:1004F000A3F822469048102102F098F844F6FF74C1
:10050000013CFDD101228C48904D102102F08EF863
:1005100001214FF4001000F0A7FD8D4802F094FB7C
:100520004FF480674BF6FF7C4FF0330E4FF4804260
:10053000884B8748ADF81EC00121ADF820E0ADF82A
:1005400024200693ADF81C40ADF8227002F022FC86
:100550007F4806A902F0AEFB01210220FFF714FE3E
:10056000AF2104460420FFF70FFEAF23044481218E
:1005700005202B71FFF708FE042104440620FFF735
:1005800003FE414604442020FFF7FEFD41462120A2
:10059000FFF7FAFD7368022B00F0AC809E21022069
:1005A000FFF7F2FD002104440A20FFF7EDFD736818
:1005B000022B044404D00E200421FFF7E5FD04447F
:1005C00000212720FFF7E0FD0F2127181F20FFF74C
:1005D000DBFD0A2107441A20FFF7D6FD0A21074454
:1005E0001B20FFF7D1FD012107444FF4004000F02C
:1005F0003BFD594802F04CFA00244FF4007302A965
:100600005548ADF80830ADF80E30CDF81090ADF883
:100610000A40ADF80C40ADF8144002F06FFA736870
:10062000022B56D037B101200BB0BDE8F08F4FF050
:100630007D08ECE67468DFF80881012C00F09080FA
:100640007268012A71D04548012100F001FD4FF088
:100650000050012100F008FD00240323102202A90C
:1006600039488DF80C3002928DF80F4001F076FF7A
:1006700006A9204606940794099400F0E9F920465B
:10068000012100F0FDF934480122712102F0C6FA7F
:100690003322012301A88DF805408DF806408DF81E
:1006A00004208DF8073002F0F3FB00200BB0BDE80A
:1006B000F08F3846394600F0CBFC03232248CDF8B2
:1006C00018B006A98DF81F408DF81C3001F046FFC8
:1006D000FAE64FF00050012100F0C6FC204606A9C2
:1006E00006940794099400F0B3F92046012100F024
:1006F000C7F997E701210820FFF746FD01210746CA
:100700000920FFF741FDC02107440E20FFF73CFD03
:100710003C44002104441420FFF736FD002104442A
:100720001520FFF731FD044438E70B48022102F0A1
:100730006BFABAE71F85EB51000C0240000402403F
:100740000000002000080240000002408C08002049
:1007500000540040A0860100003C00400100200041
:10076000D8F80800214600F073FC3946D8F80C0090
:1007700002F0E4F8D8F80C0002F010F8204B2968D9
:100780001960D8F810505D6040224FF6FE714FF4AA
:10079000006C4FF4005EDA601961D8F80C009F60BD
:1007A00019464FF440324FF480694FF480755F6111
:1007B000DF621F635F639F63C3F81890C3F81CC0B8
:1007C000C3F820E05D629A6202F080F8D8F80C006D
:1007D0002246102102F0F8F8D8F80C000821224631
:1007E00002F0F2F8D8F814308DF8043001A88DF832
:1007F00005708DF806708DF8074002F049FB1FE781
:10080000BC09002070B5154B154C0D464FF6FF7214
:1008100019460646E068954294BF1D611A619E60C4
:10082000E562636802F052F8E068012102F086F8A0
:100830000C48838B5B0502D4012102F0D5F9E36AF1
:10084000094A4FF6FF718B4228BF0B46ED1A06EBA3
:10085000430625631660002070BD00BFBC09002060
:1008600000000020003C00407C09002070B5114CC5
:10087000114BE068A169256B1E6802F06DF880B924
:10088000E068E1690B4C02F067F800B970BD3046D2
:10089000294600F05BFBE068E169BDE8704002F0CA
:1008A00079B83046294600F043FBE068A16902F0C0
:1008B00071F8E5E7000000207C09002070B5114CBC
:1008C000114BE068A169256B1E6802F045F880B9FC
:1008D000E068E1690B4C02F03FF800B970BD3046AA
:1008E000294600F033FBE068E169BDE8704002F0A2
:1008F00051B83046294600F01BFBE068A16902F0C0
:1009000049F8E5E7000000207C09002008B50C4804
:10091000022102F093F958B10A4B5B68022B08D010
:1009200000F022FBBDE808400146054802F06AB924
:1009300008BD00F019FB0146042000F0B5F8EFE710
:10094000003C004000000020F0B50D46018AEF8811
:100950002E89AB88AA8989B2044621F440513943D3
:1009600068892182A189334389B2034321F4B051BC
:1009700021F00C019BB20B43A381A38A9BB223F409
:100980004073134385B0A382684600F019FB1D4BEA
:100990009C4229D003F580639C4225D0029BA2890A
:1009A0002968A08912B2002A03EB8303B4BF49006F
:1009B000890003EB8303B3FBF1F2134900B2A1FBFF
:1009C00002535B096425002803FB15224FEA031339
:1009D0000CDB12013232A1FB0251C1F343110B4374
:1009E0009BB2238105B0F0BD039BD8E7D200323221
:1009F000A1FB0201C1F342110B439BB2238105B05D
:100A0000F0BD00BF001001401F85EB51838929B95B
:100A100023F400531B041B0C838170479BB243F4E7
:100A200000538381704700BFC1F308018180704784
:100A3000838A9BB21AB923EA010181827047194364
:100A400081827047038819420CBF00200120704743
:100A500070B491E860008C68084BC9681A68354327
:100A60002C4340F6FE768640214322EA060201FA34
:100A700000F002431A6070BC704700BF0074004071
:100A8000084B39B91A68012101FA00F022EA000086
:100A9000186070471A68012101FA00F010431860CD
:100AA000704700BF0074004082B00022054B0192E5
:100AB0000193019B083318440190019B196002B017
:100AC000704700BF00740040E0B5054650200E4658
:100AD000174602F019FC1B4BDFED1B7A93ED0C7AE5
:100AE000D3ED106A067027EE277A66EEA76AF7EE56
:100AF000007A87EE877A0023012100224770C264C2
:100B0000017480F8401043608360C360C3638361F5
:100B10008364C7EEA67AC361036243628362C362E1
:100B200003634363836380ED057AC0ED117A3DB1C1
:100B30002A4600E01A46D36C002BFBD1D06428462D
:100B4000E0BD00BFF809002000803B472DE9F041DF
:100B50000F4660B105788D4204D00BE02378AB429C
:100B600009D12046C46C02F0D7FB002CF6D100203E
:100B7000BDE8F0810446E06C60B10678BE4204D066
:100B80000DE02B78B3420BD12846C56C02F0C4FBB4
:100B9000002DF6D10025E5642046BDE8F08105462C
:100BA000E86C68B190F80080B84504D00EE0337866
:100BB00043450CD13046C66C02F0AEFB002EF6D198
:100BC0000026EE642046E564BDE8F0810646F06C40
:100BD00078B10378BB4205D00EE098F80030BB42F4
:100BE0000BD14046D0F84C8002F096FBB8F1000FD4
:100BF000F3D10023F364E4E780463946D8F84C008B
:100C0000FFF7A4FF4346C8F84C00F3E728B1037888
:100C10008B4203D0C06C0028F9D17047184BDFED30
:100C2000197AD3ED0C5A93ED0F4A0274D3ED133AAF
:100C300093ED105AD0ED036A90ED0F7A80F84020C2
:100C4000B7EE006A76EE664A65EEA75A24EE274AAA
:100C500025EE275A36EE476A63EEA77AC6EE846A17
:100C6000C4EEA55A86EE056A87EE277AC0ED066ABD
:100C7000C0ED055A80ED116A80ED127A704700BF11
:100C8000F809002000803B4748B103788B4203D12C
:100C900006E003788B4202D0C06C0028F9D170477F
:100CA000704700BFFEE700BF08B51148114B9842DE
:100CB00007D2C243134423F0030204320E4902F068
:100CC000CFFD0E480E494FF000028842B8BF40F8F1
:100CD000042BFFF6FAAFDFF82C00016841F4700135
:100CE000016001F0BDFCBDE8084000F07DB800BF28
:100CF000000000208C08002060A400088C08002060
:100D0000A40F002088ED00E070B5082082B001211A
:100D100000F09EF90120014600F09AF900244FF4FA
:100D200070430126694603250D4800938DF8046041
:100D30008DF806408DF807408DF8055001F00EFC47
:100D40006946084800968DF804408DF806408DF8F5
:100D500005508DF8074001F001FC02B070BD00BFE6
:100D6000000C0240000002402DE9F0411C4F1D4ED6
:100D700086B04FF40030012100F076F900240225FE
:100D8000042338464FF00108694600938DF804505B
:100D90008DF805508DF806408DF8078001F0DEFBD8
:100DA00038462946072201F047FC08234FF47A32DF
:100DB0000DEB030130460292ADF81230ADF80C4055
:100DC000ADF80E40ADF81040ADF81440FFF7BCFD93
:100DD00030464146FFF71AFE06B0BDE8F08100BF7D
:100DE00000000240004400402DE9F84FFFF78CFF5F
:100DF000FFF7BAFF02F088F8044600F065F9414BAE
:100E00000546002103F5A06243F8041B9342FBD181
:100E10003D4B3E4A1A604FF0040803224FF0804ECB
:100E20003B49DFF804C19A74F2EE047A4FF07E5623
:100E3000C3F81CE099624FF07C5E4BF68032354F70
:100E4000DFF8E8B0DE604FF0000A4FF07D59552121
:100E500040469E61DE629E65C3ED147AC3F868B0B9
:100E6000C3F804A0C3F85CA083F81380C3F82090F3
:100E7000C3F82490C3F830C0C3F834C0C3F83CC0F2
:100E8000C3F838E0C3F848E0C3F854E01F645F6477
:100E9000DF64FFF7A7FA4FF420711A48FFF7B2FC9E
:100EA0001D4800F053FF1D4800F050FF002620466B
:100EB00002F0BCF8C0B9284600F09CF9E8B918481F
:100EC000012101F0A9FB0128F1D10136B6B24FF69C
:100ED000FF739E42EBD1134800F0D0FE204600265F
:100EE00002F0A4F80028E6D00146204602F0B4F84B
:100EF000284600F07FF90028E1D00146284600F09E
:100F0000F9FADCE7700A0020F809002000005C43D1
:100F10000000C041CDCCCC3D8C3C0008903C00088A
:100F200000000240A43C00080AD7233C9A99993E4D
:100F300008B505484FF4805101F074FB4FF4A070E0
:100F4000BDE8084000F02EBF000C024008B505487F
:100F50004FF4805101F068FB0020BDE8084000F02C
:100F600021BF00BF000C02400020704700207047E6
:100F7000704700BF704700BF08B50648064901F03A
:100F800043FD00B908BD03480349BDE8084001F02E
:100F900065BD00BF286002400088001008B5064803
:100FA000064901F031FD00B908BD03480349BDE819
:100FB000084001F053BD00BF4064024000880010AB
:100FC0001F4A936803F00C03042B10B41BD0082BAA
:100FD0001CD01C4B03601A491B4A8C68C4F30314D1
:100FE000145DE34043608C68C4F38224145D23FAEB
:100FF00004F4846089685DF8044BC1F34231525CAB
:10100000D340C3607047114B0360E4E754685168F4
:10101000526863024CBF0D4B0A4B01F03F01C2F313
:101020008812B3FBF1F303FB02F3054A5268C2F3E3
:10103000014201325200B3FBF2F30360CBE700BF81
:10104000003802400024F4003400002000127A002E
:10105000044B1A6B19B922EA000018637047104359
:101060001863704700380240044B1A6C19B922EA21
:10107000000018647047104318647047003802403D
:10108000044B5A6C19B922EA0000586470471043A7
:101090005864704700380240044B1A6A19B922EAB2
:1010A0000000186270471043186270470038024011
:1010B000044B5A6A19B922EA00005862704710437B
:1010C00058627047003802402DE9F04F4FF48020FD
:1010D00097B0DFF81481424F424EDFF81091DFF8ED
:1010E00010A10121FFF7C0FF4FF4001001210024DF
:1010F000FFF7AEFF0125022340464FF4407201A9DD
:101100008DF808308DF8093001928DF80A408DF87D
:101110000B5001F023FA40460821072201F08CFA17
:1011200040460921072201F087FA4FF4164203A92D
:10113000384604230392ADF81630ADF81040ADF8F0
:101140001240ADF81440ADF81840FFF7FDFB0C233A
:1011500068468DF800308DF801408DF802408DF81A
:10116000035001F095FE4FF4A06001F087FE294680
:101170003846FFF74BFC304601F010FB4FF04008BB
:101180004FF4806C4FF4807E032330464FF40032DE
:1011900007A94FF0006BCDF834C0CDF840E01393B1
:1011A00011920A940C940E940F9412941494159422
:1011B000CDF81CB0CDF82490CDF82C80CDF820A02F
:1011C00001F084FB384641462A46FFF731FC3046A1
:1011D000294601F0B3FB484617B0BDE8F08F00BFC9
:1011E0000048004028600240000C0240980800209F
:1011F0000448004008B5084801F0AAFB074B1A88CC
:10120000904206D028BF4032121A92B21880D0B253
:1012100008BD002008BD00BF286002404400002037
:10122000013819281DD8DFE810F044013E013001D3
:10123000220116010A010301F300E300D300C700F5
:10124000B700A70097008B007B006F005F00530082
:10125000470038002F00270022001D001A009F4B76
:10126000597470470429FCD89C4B59757047042960
:10127000F7D89A4B1975704707EE101A974BF8EE8E
:10128000477AC3ED027A7047323907EE101A934B52
:10129000F8EEC77AC3ED017A7047323907EE901A3B
:1012A0009FED8F7A8D4BF8EEE76AF7EE007AE6EE67
:1012B000877AC3ED037A704707EE901AB8EE677A23
:1012C000DFED887A854BC7EE277AC3ED157A704734
:1012D00007EE901AB8EE677AF2EE047AC7EE277A34
:1012E0007E4BC3ED147A704707EE101ADFED7E7A5D
:1012F0007A4BF8EE476A9FED7B7A66EEA77AC7EEE7
:10130000877AC3ED177A704707EE901AB8EE677ABE
:10131000F2EE047AC7EE277A704BC3ED167A704767
:1013200007EE101ADFED6F7A6C4BF8EE476A9FED0F
:101330006F7AC6EEA77A77EE877AC3ED137A704795
:1013400007EE901AB8EE677ADFED667A634BC7EE68
:10135000277AC3ED127A704707EE101ADFED617A33
:101360005E4BF8EE476A9FED617AC6EEA77A77EE9C
:10137000877AC3ED117A704707EE901AF8EE676A24
:10138000DFED587A9FED597A544BC6EEA77A77EE87
:10139000877AC3ED107A704707EE101ADFED517AA5
:1013A0004E4BF8EE476A9FED517AC6EEA77A77EE7C
:1013B000877AC3ED0F7A704707EE901AB8EE677A16
:1013C000DFED487A454BC7EE277AC3ED0E7A7047BA
:1013D00007EE901AF8EE676ADFED427A9FED437AE6
:1013E0003E4BC6EEA77A77EE877AC3ED0D7A70474B
:1013F00007EE101ADFED3B7A384BF8EE476A9FEDA7
:101400003B7AC6EEA77A77EE877AC3ED0C7A7047FF
:1014100007EE901AB8EE677AF1EE007A27EE277A97
:10142000DFED307A2D4BC7EE277AC3ED0B7A70478C
:101430002F4A2A4B02EB81010A689A62704707EE35
:10144000901AB8EE677ADFED277A244BC7EE277A39
:10145000C3ED097A704707EE901AB8EE677ADFEDB0
:10146000217A1E4BC7EE277AC3ED087A70471B4BD3
:1014700093ED077AF1EE047AB4EE677AF1EE10FAA2
:101480001DD14FF07C52DA617047144B93ED067A10
:10149000F1EE047AB4EE677AF1EE10FA16D14FF05D
:1014A0007C529A61704704293FF6DBAE0B4BD9742E
:1014B000704704293FF6D5AE084B9974704707EE84
:1014C000101AF8EE477AC3ED077A704707EE101A44
:1014D000F8EE477AC3ED067A704700BFF80900209E
:1014E00017B7D1390000C842CDCCCC3D6F12833A3A
:1014F000AC40000801392DE9F047CEB2FF2E8046FE
:10150000654CDFF89C91654F1DD094F8405094F8DD
:10151000413018F80520042BFDD8DFE803F0815492
:10152000431603003B2A00F0A4803F2D1ABF01356B
:10153000EDB20025002384F8405084F84130013E8C
:10154000F6B2FF2EE1D1BDE8F087A2F13001092902
:101550007CD994F8422000233F2D1ABF0135EDB20B
:101560000025032A84F8413084F84050E7D199F8E7
:101570000020002389F8033072B1494901E0002BB3
:1015800009DB57F8220011F8012F03EB830300EB6E
:101590004303002AF3D1DAB2042384F8442084F808
:1015A0004130CCE73A2AC0D100233F2D84F84230A5
:1015B0004FF0030218BF6B1C84F8412018BFDBB248
:1015C00084F84030BBE7A2F13001092935D994F8FD
:1015D000422000233F2D1ABF0135EDB20025032A1A
:1015E00084F8413084F84050A9D199F800200023B4
:1015F00089F8033072B12A4901E0002B09DB57F862
:10160000220011F8012F03EB830300EB4303002AB0
:10161000F3D1DAB2022384F8432084F841308EE714
:10162000232A1CD1012100223F2D84F8411084F887
:101630004220C5D06B18DBB2C2E794F84210481CB8
:1016400009F80120C2B284F84220C3E794F842109E
:10165000481C09F80120C2B284F842207CE73F2DE3
:101660001CBF6B1CDBB2002284F8403084F84120A0
:1016700065E74FF0000A94F8430094F8441084F8AA
:1016800041A0FFF7CDFD3F2D1CBF05F1010A5FFA18
:101690008AFA84F840A052E798080020AC3C000881
:1016A000740F0020092B2DE9F84317461C4602F160
:1016B000FF36054614D8002ED8BF012004DD32467F
:1016C00002F068F9354438461D4BA3FB0423DB08C0
:1016D00003EB8303A4EB430430342C70BDE8F883A0
:1016E000174BA3FB04284FEAD808B8F1090FA7F15C
:1016F000020915D8B9F1000F1DDD4A4602F04AF97A
:10170000A94438460E4BA3FB0823DB0803EB8303F5
:10171000A8EB430808F13008354489F80080D3E786
:10172000A3FB0823DB084A46FFF7BCFF05EB0009D3
:10173000461C0230E6E7814601260220E2E700BFB0
:10174000CDCCCCCC2DE9F8431E1E174604460A46E4
:101750003DDB092E35461CD8013F002F40F3878022
:10176000114620463A4602F015F93C44781C002EFA
:1017700003DA2D2304F8013B01304D4BA3FB052375
:10178000DB0803EB8303A5EB430530352570BDE88B
:10179000F883474BA3FB0626F608092E36D8A7F197
:1017A0000208B8F1000F74DD424602F0F3F8A044DD
:1017B0007A1E38463E4BA3FB0613DB0803EB83037C
:1017C000A6EB4306303688F800601444D5E775422E
:1017D000092D3DD9364BA3FB0526F608092E48D91D
:1017E000A3FB0623DB08BA1E5B42FFF7ABFF211801
:1017F000421C02302E4BA3FB0673DB0803EB830372
:10180000A6EB430630360E701444B6E7A3FB062958
:101810004FEAD909B9F1090FA7F103081AD9A3FBB7
:1018200009734246DB08FFF78DFF211800F101081C
:10183000821C03301E4BA3FB0973DB0803EB8303FD
:10184000A9EB430909F13009A04481F80090B1E700
:10185000023F82E7B8F1000F1FDD424602F09AF81E
:1018600004EB08017A1EA7F102083846E2E70120DE
:101870007DE7A7F10308B8F1000F14DD424602F03E
:1018800089F804EB08017A1E38462D2301F8013B44
:10189000B0E7A046022001228CE721460320022265
:1018A0004FF00108C6E7214603200222EDE700BF02
:1018B000CDCCCCCC2DE9F04383B016460A9C270949
:1018C000054698461FD1571E002FD8BF012004DDC2
:1018D0003A4602F05FF83D44304604F00F04092C0C
:1018E0000CD9B8F1000F04D157342C7003B0BDE807
:1018F000F08337342C7003B0BDE8F08330342C70A3
:1019000003B0BDE8F083A2F10209220A19D1B9F1AE
:10191000000F24DD4A4602F03DF8A944731E30460C
:1019200007F00F07092F07D9B8F1000F12D1573769
:1019300089F800701D44D0E7303789F800701D44E5
:10194000CBE700924A46FFF7B5FF05EB0009431CC1
:101950000230E5E7373789F800701D44BDE781465E
:1019600001230220DCE700BF2DE9F04F05468BB0D4
:101970000F469B4608B100230370DFF8FCA2002647
:1019800013785BB1BE4280F0C180252B0ED00132AE
:101990002B70137801360135002BF3D1B74240F29A
:1019A000B58030462B700BB0BDE8F08F50782528FD
:1019B0003DD0302840D00346541CA3F13002092A00
:1019C0004FF020013FD8621C4FF0000C0CEB8C0C48
:1019D00003EB4C0C1378A3F13000ACF1300C092868
:1019E00014460CF0FF0C02F10102EFD962463244BA
:1019F000974238BFC6EB070CA3F1580338BF5FFA14
:101A00008CFC202B00F28980DFE803F07487878745
:101A1000878787878787876C6287878787628787BB
:101A20008787878787878752872F87872000287037
:101A3000023201360135A3E79378941CA3F13002FA
:101A4000092A0146BFD900229446D0E7DBF80030CE
:101A50000093624628460023FFF72CFF0BF1040B8E
:101A60000146621C0D4406448AE7DBF80080B8F1A9
:101A7000090F0BF1040B63460CF1FF3952D8B9F191
:101A8000000F7DDD4A462846CDF808C001F082FFF0
:101A9000DDF808C0A94461466046AAFB0823DB08BC
:101AA00003EB8303A8EB4303303389F80030D8E716
:101AB000DBF8003019780BF1040B00295ED0002010
:101AC000295413F8011F01300029F9D10146C8E754
:101AD000DBF8003062462846FFF734FE0BF1040BBA
:101AE0000146BEE7DBF800302B7001210BF1040B3F
:101AF0000846B6E7DBF8003000936246284601232B
:101B0000FFF7D8FE0BF1040B0146AAE70023701E75
:101B100005F8013C0BB0BDE8F08F4FF0FF300BB083
:101B2000BDE8F08FAAFB0802D20805920598ACF137
:101B300002020928049227D8002A19DD2846049AAF
:101B4000CDF80CC001F026FFDDF810C0039BAC44BB
:101B500019460598AAFB0002D208059802EB8202FA
:101B6000A0EB42023032A94418468CF8002094E7DA
:101B700002210B46AC464FF00109EAE7084670E740
:101B800001210846A94688E7AAFB0002D20806926E
:101B90000698ACF10302092807921CD8002A46DDFA
:101BA0002846079ACDF80CC001F0F4FE0798039B75
:101BB000DDF810C02844079019460698AAFB0002D9
:101BC000D208069802EB8202A0EB4202079830325C
:101BD000AC440270BDE7AAFB0002D208092A0892B1
:101BE000ACF1040C35D8BCF1000F28DD6246284664
:101BF0000393CDF808C001F0CDFEDDF808C0039BCB
:101C0000AC44CDF824C0DDF810C019460898AAFBF2
:101C100000200490089AC00800EB8000A2EB40006E
:101C2000079A2A440792099A30301070C5E70321B9
:101C30000B4607954FF002094FF0010CBDE7042158
:101C400001220B4609954FF003094FF0020C079251
:101C5000DCE71046AAFB00036246DB082846FFF7D4
:101C600021FD2A18031D0992421C1946079200F112
:101C7000020C00F10309C9E7CDCCCCCC0FB42DE99F
:101C8000F0412F4D2F4E0FCDA4B001AC0FC40FCD9E
:101C90000FC42AAF2B6857F8042B23600DF12808D6
:101CA000346800973B4640466421A768FFF75CFE16
:101CB00063281CDD33689DF80440DF6801AD2CB15A
:101CC0009A68974203D0DB689F4200D0FEE71E4827
:101CD0004021FEF7B7FE0028F9D021461A48FEF74A
:101CE000A3FE15F8014F002CF0D03368E8E79DF80B
:101CF000284020464CB1002533689A68974209D0A5
:101D0000DB689F4206D04FF0FF3024B0BDE8F041C1
:101D100004B070470C484021FEF794FE0028F9D02B
:101D2000013521460848FEF77FFE18F80540002CD3
:101D3000E2D1284624B0BDE8F04104B0704700BFAE
:101D4000AC42000848000020004400402DE9F0416A
:101D5000124D06782B689C68EEB18046002710482B
:101D60004021FEF76FFE0028F9D031460C48FEF7FF
:101D70005BFE18F8016F013756B12B689A689442E0
:101D8000EDD0DB689C42EAD04FF0FF30BDE8F08137
:101D90003846BDE8F0813046BDE8F08148000020BB
:101DA000004400402DE9F04F2DED0E8B834685B0A9
:101DB0004FF40051A448A54FDFF8B492A44DA54EAE
:101DC0009FEDA58A9FEDA5CA9FEDA5BA00F02AFC5C
:101DD0004FEA4B020192A34BDDF804803C68A24914
:101DE0009346984403F52072019B201C18BF0120E4
:101DF000CBF1000B13440870CDF80CB00293D5ED75
:101E0000147ADFED9A6A99ED007A994B67EE887A39
:101E1000F7EE00BAC7EEA67ADFED946A77EE877A1E
:101E2000F4EEC87AF1EE10FACABF37EEC87AC3ED05
:101E3000007AF0EE477AFCEEE77AC8BF83ED007ACD
:101E400017EE903AD5ED157A9BB206EB830393ED2E
:101E5000007A874BF5EE407AF1EE10FA18BFE7EE04
:101E600087BAD5ED167A99ED017A67EE887AC7EED2
:101E7000A67A77EE877AF4EEC87AF1EE10FACABF46
:101E800037EEC87AC3ED017A83ED017A2B7DC8BFA6
:101E9000F0EE477A032B00F22483DFE813F0C4014D
:101EA000BE01B8010400FCEEE77A724A17EE903AE0
:101EB0009BB202EB8303D5ED176AD3ED007A66EE91
:101EC000A77A95ED187ADFED695A99ED026A684BA9
:101ED00027EE087AF5EE406A87EE257AF1EE10FAE1
:101EE00037EE067A08BFF0EE4C7AB4EEC87AF1EE1F
:101EF00010FAC8BF37EE487A83ED027A002C00F062
:101F00001383F7EE00AA77EEAAAA9FED54AADFF892
:101F10007CA1DFED59CA9FED59DADFED549A4FF0FD
:101F20000D0BD4ED016A2078AA7CBDEEE66A0AEBBF
:101F3000800016EE101A4B1C9BB289B207EE103AC5
:101F400006EE101AF8EEC77AF8EEC68A50ED18DAE7
:101F5000B3F5806F08BF002377EEE67A76EEE88A65
:101F60006AEEADDA032A00F23D82DFE802F05E5C41
:101F70005A02404A02EB830393ED007A02EB81019F
:101F800068EE878A91ED007AE7EE278AEA7C94ED85
:101F9000027ABDEEC76A16EE101A4B1C9BB206EE13
:101FA000103A89B2F8EEC67A06EE101AB8EEC69A62
:101FB000B3F5806F08BF002377EEC77A37EE499AF2
:101FC000032A00F21C82DFE802F01E1C1A02294AD2
:101FD00002EB830393ED006A02EB810129EE069A7E
:101FE00091ED006AA6EE279A237C042B00F214825E
:101FF000DFE813F0F200D4004E000A01F700204A97
:10200000E6E7204AE4E7204A02EB830313ED3E6A49
:1020100002EB810129EE069A11ED3E6AA6EE279A9F
:10202000E2E7174AA6E7174AA4E7174A02EB830339
:1020300013ED3E7A02EB810168EE878A11ED3E7A5C
:10204000E7EE278AA2E700BF000C024094080020B8
:10205000F8090020D0420008000080440000000081
:102060000000FE42700A00206C0A002000803B47FE
:10207000E0080020D08200080AD7233C00A00C47CB
:10208000D0720008D0620008C8530008D09200083F
:10209000D5ED0E7A95ED0D6AD4ED035AE04AB7EE10
:1020A000005A35EE675A26EE296A85EE066A35EE45
:1020B000C66AF4EEC67AF1EE10FA84ED036A05DD25
:1020C00092ED0E6A032384ED036A23746278D5EDE2
:1020D000097AD5ED085A05EE102A6A7CB8EE455A01
:1020E00069EE277A012A85EE0B5AE5EEA87A00F010
:1020F000B080D5ED065A95ED074AD5ED034A6DEE51
:10210000A55A6DEE84DA65EE885A6DEEA4DAC5EE56
:10211000A95A6DEE88DA75EEA66ACDEEA9DAF4EE6C
:10212000C86A3DEE877AF1EE10FAB4EEC87AC8BFFD
:1021300076EEC86AF1EE10FA67EE857AC8BF37EE20
:10214000487AA7EE86AAC4ED016A84ED027A002BD4
:1021500078D0E46C2CB10BF1FF3B1BF0FF0B7FF44C
:10216000E0AE9FEDB07ADFEDB07A2AEE07AAB4EECA
:10217000E7AAF1EE10FA40F3898147F6FF73039A5C
:102180000199A8F8003042440A4408F10408538039
:10219000029A904500F0D0813C6830E694ED036AE5
:1021A000D4ED057A36EE276AF7EE007AB4EEE76AE8
:1021B000F1EE10FA25DD02232374C4ED037A9B4867
:1021C0004FF4004100F02EFA94ED036AD4ED016A59
:1021D00094ED027A237C79E79FED956A84ED03CA3A
:1021E000DEE72A7C012A00F06E8194ED036AD4EDCB
:1021F000067A36EE676AB4EEEC6AF1EE10FA00F198
:10220000518184ED036A61E795ED0E6AF9E7FCEE12
:10221000E77A884A17EE903A4AE6FCEEE77A864A71
:1022200017EE903A44E6FCEEE77A844AD5ED176A59
:1022300017EE903A9BB202EB830353ED3E7A66EEC3
:10224000A77A3EE621783868E46CFEF77FFC3860B8
:1022500080E794F84020042A00F23C81DFE802F095
:10226000BDA78C830300D4ED0F2AD4ED125A72EE71
:10227000E55AF4EEEC5AF1EE10FA00F14D81F7EE6A
:10228000002A75EEA22AC4ED0F5AF7EE005A3BEE73
:10229000A54A95ED0A3ADFED6A3ADFED6A4A24EE87
:1022A000034A24EE224A24EE2D4A24EE234A84EEE9
:1022B000244AB4EEE54AF1EE10FA40F3D380624AC4
:1022C000DFED5B4A9FED659A9FED60EAC2ED005A33
:1022D000B0EE653AD5ED0B5AD4ED0E3A5C4A9FED5F
:1022E0005D4AD4ED078A94ED0B0AD4ED080A94ED0B
:1022F0000C1AD4ED091A94ED0D2AD4ED0A2A564988
:102300006EEE255A81ED003AE5EEE37AC2ED005A11
:1023100067EE897AF0EE675AE8EE845AC4ED077AE0
:10232000E0EE245AF0EE657AE0EE847AC4ED0B5AC2
:10233000E1EE247AC4ED085AF0EE675AE1EE845AD1
:10234000C4ED0C7AE2EE245AC4ED097AF0EE657A17
:10235000E2EE847AC4ED0D5AE3EEA47AC4ED0A5A93
:10236000C4ED0E7AC5E6D5ED125AF7EE002AC4ED9B
:102370000F5A75EEA22A88E7D5ED125AD5ED114A0B
:10238000D4ED0F2AB7EE004A74EE653A64EEA94A1E
:10239000C3EEA44A72EEE42AF4EEE25AF1EE10FA29
:1023A00000F3B280C4ED0F2A72EE842A6DE7D4EDFB
:1023B0000F2AD4ED115A72EEA52AF7EE005AF4EE68
:1023C000E52AF1EE10FA40F39A800222C4ED0F5A8A
:1023D00084F84020F0EE002A57E7DFED152A84ED5F
:1023E0000FCAE6E706EB830393ED007A06EB810163
:1023F00068EE878A91ED007AE7EE278AC6E506EB5C
:10240000830393ED006A06EB810129EE069A91EDB4
:10241000006AA6EE279AE7E594ED036A56E600BF48
:10242000F809002000DEB14600FEFF46000C024025
:1024300000000000D0720008D0620008C8530008F5
:10244000E17A943F0080BB46940F00209A99593F4F
:10245000980F00209A99993E9C0F00203D44B33E6E
:102460009A99193E24EE043A1FED049A5FED044A4E
:10247000364A23EE099AB0EE65EAA3EE64EA23EE4B
:10248000099A75EEC44A82ED004A23E7DFED307AFF
:10249000B4EEE7AAF1EE10FA48BF48F201033FF5A7
:1024A0006EAE43E00023237484ED03CA29484FF441
:1024B000004100F0B9F894ED036AD4ED016A94ED9F
:1024C000027A237C02E6D4ED037A87EE8D6A37EE3A
:1024D000C66A90E6D4ED0F2AF7EE005A72EEA52AEE
:1024E000D3E6FCEEE77AD5ED176A17EE903A9BB289
:1024F00006EB8303D3ED007A66EEA77AE1E4C4ED40
:102500000F2A72EEA52AC0E60322C4ED0F5A75EE1B
:10251000842A84F84020B8E6002284ED0FCA84F8AB
:102520004020F7EE002AB0E69FED0BAABDEECAAA46
:102530001AEE103A9BB222E606484FF4005105B05D
:10254000BDEC0E8BBDE8F04F00F06EB8940F00208C
:1025500000FEFFC6000C02400000000000222DE932
:10256000F00713460E6801274FF0030804E001331B
:10257000102B02F102022CD007FA03F404EA06053C
:10258000A542F4D1D0F8009091F804C008FA02F402
:10259000E44304EA0909C0F80090D0F800900CFA6E
:1025A00002FA0CF1FF3C4AEA0909BCF1010FC0F83C
:1025B000009011D9C56891F807C02C40C460C56867
:1025C0000CFA02F401332C43102BC46002F1020216
:1025D000D2D1BDE8F0077047D0F808A091F8059077
:1025E00091F806C004EA0A0AC0F808A0D0F808A0CA
:1025F00009FA02F949EA0A09C0F80890D0F80490EB
:1026000029EA0505456045680CFA03FC1FFA8CFCB5
:102610004CEA05054560CDE7036919420CBF00206F
:102620000120704701837047418370470AB9418395
:1026300070470183704700BFCB0800EB830001F0B7
:10264000070110B48900046A0F238B4024EA0303B6
:102650000362036A5DF8044B8A40134303627047C8
:10266000404A414BD2F88810404841F47001C2F80A
:1026700088101968002241F0010119609A601968F8
:1026800021F0847121F4803119605860196882B09A
:1026900021F480211960DA60009201921A6842F4F4
:1026A00080321A601A4603E0009BB3F5A06F09D090
:1026B000136803F400330193009B01330093019BE3
:1026C000002BF1D0284B1B6813F4003318BF0123F3
:1026D0000193019B012B14D0234A254B916821F4CF
:1026E00000019160C2F88430136843F08063136086
:1026F00013681B01FCD51B4B4FF000629A6002B0BF
:102700007047194B1B4A186C1B4940F080501864E5
:10271000106840F4804010609A689A609A6842F4A9
:1027200060429A609A6842F4E0529A6059601A686E
:1027300042F080721A6019460B680B4A9801FBD56B
:102740000E4B40F205611960936823F00303936018
:10275000936843F002039360936803F00C03082B23
:10276000FAD1B9E700ED00E0003802401030002453
:10277000804000300070004008544007003C024098
:10278000044A05491368002B08BF0B461844106023
:1027900018467047FC080020A40F002010B4374AE8
:1027A0000468002324F001042121904204600360A6
:1027B00043608360C360036141614DD0304B9842F8
:1027C00035D0304B984239D02F4B98423DD02F4BCB
:1027D000984247D02E4B984248D02E4B98421DD05D
:1027E0002D4B98421ED02D4B984243D02C4B9842F3
:1027F0001DD02C4B984221D02B4B984225D02B4BEF
:1028000098422FD02A4B984230D02A4B984205D07C
:10281000294B984206D05DF8044B7047274A43F88D
:10282000942CF8E74FF03D5243F8AC2CF3E74FF40B
:10283000746243F8202C5DF8044B70474FF4741217
:1028400043F8382C5DF8044B70474FF0746243F83E
:10285000502C5DF8044B7047194B5DF8044B3D223A
:102860009A607047174A43F8642CD4E7164A43F835
:102870007C2CD0E73D2243F8082CCCE710600240C6
:102880002860024040600240586002407060024090
:1028900088600240A0600240B860024010640240BC
:1028A0002864024040640240586402407064024060
:1028B00088640240A0640240B864024000003D20E9
:1028C000006002403D000020400F0020CA680B68F5
:1028D000D0F800C02DE9F0074F698E69CD690C6A08
:1028E000D1F83490D1F8388042EA030A4AEA07075F
:1028F0003E434B6A4F6835432C4344EA03028B6ADC
:102900000D4ECC6A0D691A4342EA090949EA0808E2
:102910000CEA060648EA06060B6B896806604269FF
:10292000234322F007021343436145608760C1607F
:10293000BDE8F007704700BF3F801CF0036819B97D
:1029400023F001030360704743F001030360704705
:10295000406880B2704700BF0B4B0C4A10B40C4C5F
:10296000A0428CBF104618468B004CBF43680368DA
:102970005DF8044B21F0F02121F0821119420CBFC7
:1029800000200120704700BF006002400064024048
:102990000F64024010B4094A094C0A4BA0428CBF94
:1029A0001046184611F0005F21F0F02121F082114D
:1029B00014BFC16081605DF8044B70470064024041
:1029C0000F640240006002400B060CD54369AAB1B7
:1029D00043F08003802943610FD0036801F01E019A
:1029E000194301607047802907D0002AF5D1036898
:1029F00001F01E0123EA01010160704723F080030A
:102A000080294361F3D1704770B4114A114D124CC3
:102A100021F0F02323F0C316A84288BF224696B1C6
:102A2000046804F01E0404EAD12489004CBF5268F3
:102A3000126823F0821313EA020002D0201C18BF90
:102A4000012070BC7047446904F08004EDE700BFCA
:102A5000006002400F6402400064024010B4094A62
:102A6000094C0A4BA0428CBF1046184611F0005F7B
:102A700021F0F02121F0821114BFC16081605DF866
:102A8000044B7047006402400F6402400060024043
:102A900008B5174B984212D0164B98421BD0164BD4
:102AA000984200D008BD4FF400400121FEF7F4FA2F
:102AB0004FF400400021BDE80840FEF7EDBA4FF4A6
:102AC00080500121FEF7F4FA4FF480500021BDE858
:102AD0000840FEF7EDBA4FF480400121FEF7DCFA22
:102AE0004FF480400021BDE80840FEF7D5BA00BF92
:102AF0000030014000380040003C0040838B8A6871
:102B000023F47B6323F00F031B042DE9F0071B0C58
:102B1000022483830484B0F81CC0A2421FFA8CFCF8
:102B20004FD02E4B8C889D68002C0CBF4FF0200995
:102B30004FF040092D023FD4284B294FD3F8845041
:102B4000D3F88460D3F804A0CB880AF03F0AC5F319
:102B50008818B7FBFAF7C6F3027608FB07F7B3F558
:102B6000007FB7FBF6F62FD0B6FBF9F505EB850530
:102B70006D00B5FBF2F2053292B21A4DA5FB02626E
:102B8000D2085508AE1E02F00102FD2E94BF45EAA0
:102B9000022202220F884E888D894CEA070141F4F7
:102BA000006131432943134389B20C439BB2038430
:102BB0008483BDE8F00770479D6825F400059D609B
:102BC000BAE78C88CB88E5E7360A06EB86067600FE
:102BD000B6FBF2F2053292B2CFE700BF00380240F6
:102BE00000127A00CDCCCCCC838B29B923F480633E
:102BF0001B041B0C838370479BB243F48063838365
:102C0000704700BF8181704783889BB21AB923EA5D
:102C100001018180704719438180704701230909B0
:102C200003FA01F1838889B29BB21AB923EA010140
:102C30008180704719438180704700BF0389194222
:102C40000CBF00200120704708B5174B984212D0E6
:102C5000164B98421BD0164B984200D008BD4FF43B
:102C600000000121FEF718FA4FF400000021BDE832
:102C70000840FEF711BA4FF400100121FEF70CFADC
:102C80004FF400100021BDE80840FEF705BA4FF4EC
:102C900080000121FEF700FA4FF480000021BDE81A
:102CA0000840FEF7F9B900BF00540040005800404A
:102CB000005C0040F0B5044685B068460D46A68825
:102CC000FEF77EF9029930482A68DFF8C4C0A0FBFD
:102CD000013026F03F063604800C360C87B23E43A6
:102CE000A680238823F001031B041B0C624523806C
:102CF00023D85300B1FBF3F39BB2032B07F1010779
:102D000098BF04232784A38323886E89A8882989F0
:102D1000AA899BB243F001032380238823F48163B3
:102D200023F002031B0430431B0C03430A439BB2F2
:102D300092B22380228105B0F0BDEE884BF6FF737E
:102D40009E421AD002EB820202EB8202B1FBF2F346
:102D50009BB243F48043C3F30B020AB943F001036F
:102D60004FF49671094A01FB00F082FB00108009C4
:102D7000013043F400432084C5E702EB4202B1FB7B
:102D8000F2F39BB2E7E700BF83DE1B43D34D621033
:102D9000A0860100038829B923F001031B041B0C42
:102DA000038070479BB243F001030380704700BF6C
:102DB000038829B923F480731B041B0C038070471C
:102DC0009BB243F480730380704700BF038829B926
:102DD00023F400731B041B0C038070479BB243F465
:102DE00000730380704700BF1AB901F0FE01018231
:102DF000704741F001010182704700BF038829B983
:102E000023F480631B041B0C038070479BB243F4C4
:102E100080630380704700BF01827047008AC0B2A0
:102E2000704700BF828A038B90B240EA034021F0D2
:102E30007F4318400B1A58425841704782B0002314
:102E40000A0F0093019301900092009B21F07F41B3
:102E500053B1019B14330193019B1B6819420CBFB2
:102E60000020012002B07047019B1833090C019328
:102E7000F2E700BFC94389B28182704740F0BF606A
:102E8000024B40F40030D860704700BF00ED00E016
:102E9000C378F0B463B90378194A5909203103F0B3
:102EA0001F03012000FA03F342F82130F0BC704701
:102EB000144B4778DA68857803781149D243C2F316
:102EC0000222C2F104040F26E4B207FA04F446FA1F
:102ED00002F2E4B22A40224303F1604303F5614366
:102EE0001201D2B283F800230378012003F01F02FD
:102EF0005B0900FA02F241F82320F0BC704700BFE2
:102F000000E100E000ED00E02DE9F04F022097B075
:102F10000121FEF79DF8DFF808913F4F3F4EDFF8A3
:102F20000481DFF804A110200121FEF7A9F84FF475
:102F3000800001210024FEF78BF80125022348467A
:102F4000802201A98DF808308DF8093001928DF8A2
:102F50000A408DF80B50FFF701FB072148460A464F
:102F6000FFF76AFB47F6122203A9384604230392AF
:102F7000ADF81630ADF81040ADF81240ADF8144081
:102F8000ADF81840FDF7E0FC3A2368468DF80030B4
:102F90008DF801408DF802408DF80350FFF778FF5F
:102FA0004FF4A060FFF76AFF29463846FDF72EFD73
:102FB0003046FFF7F3FB4FF040094FF4806C4FF4BD
:102FC000807E032330464FF4003207A94FF0006B98
:102FD000CDF834C0CDF840E0139311920A940C94CC
:102FE0000E940F94129414941594CDF81CB0CDF84F
:102FF0002480CDF82C90CDF820A0FFF767FC384650
:1030000049462A46FDF714FD30462946FFF796FC4F
:10301000404617B0BDE8F08F001001404064024008
:1030200000040240000900200410014008B50848CF
:10303000FFF78EFC074B1A88904206D028BF40321B
:10304000121A92B21880D0B208BD002008BD00BF8D
:1030500040640240780400202DE9F8430C460646FF
:1030600000294ED0A44DDFF89C82A44FA94695F8C4
:103070004030F25CF82A00F00F81FE2A00F00C814B
:1030800099F8411029293AD8DFE811F0B300390046
:103090003900390039003900390039003900390068
:1030A000E900C3003900390039003900390039001E
:1030B000390039009D00820039003900390039009B
:1030C00039003900390039006B00530039003900EC
:1030D0003900390039003900390039003D002A0033
:1030E0003F2B18BF013385F8472014BFDBB2002304
:1030F000013C2822E4B285F8403085F84120002CBC
:10310000B5D1BDE8F883110600F1BF803F2B18BF91
:10311000013304F1FF3485F8462014BFDBB20023ED
:103120002922E4B285F8403085F84120002C9ED158
:10313000E7E73F2B1ABF0133DBB20023013C7F2AB4
:1031400085F840304FF01E010CBF01230023E4B28C
:1031500085F8452085F8411088F81030002C86D17C
:10316000CFE7100600F191803F2B18BF013304F127
:10317000FF3485F8442014BFDBB200231F22E4B2E1
:1031800085F8403085F84120002C7FF470AFB8E717
:103190003F2B18BF013304F1FF3414BFDBB200230F
:1031A00085F843204FF0140EE4B2386895F84210C9
:1031B00085F84030042285F841E0FDF727FD002C1A
:1031C0007FF455AF9DE711065FD43F2B18BF013345
:1031D00004F1FF3485F8422014BFDBB2002315222E
:1031E000E4B285F8403085F84120002C7FF43FAFF1
:1031F00087E702F0F002902A70D075D9B02A67D024
:10320000E02A49D128223F2B85F8412046D10023CE
:1032100046E03F2B18BF01334FF00A0114BFDBB269
:103220000023013C85F8411085F84320E4B285F87D
:103230004030386899F84210002A39D0FDF724FD53
:1032400000283CD0386899F842100122FDF7DEFCD6
:103250002B4B01221A70002C7FF409AF51E71006A6
:1032600013D43F2B18BF013304F1FF3485F84220FB
:1032700014BFDBB200230B22E4B285F8403085F89E
:103280004120002C7FF4F3AE3BE7002385F841306A
:10329000002C7FF4ECAE34E73F2BB8D00133DBB227
:1032A000013CE4B285F84030002C7FF4E0AE28E722
:1032B0000422FDF7ABFC002C7FF4D9AE21E738687F
:1032C00099F8421099F84320FDF7FEFB3860BFE7FC
:1032D0001E223F2B85F84120E0D198E70A223F2BA0
:1032E00085F84120DAD192E7802AD5D114223F2BEC
:1032F00085F84120D2D18AE70009002094080020F7
:10330000640A0020F8090020024B0146186800F00A
:103310000BB800BF48000020024B0146186800F0BF
:10332000E7BB00BF480000202DE9F04F01F10B057D
:10333000162D83B0064627D935F0070527D4A942B4
:1033400025D8304600F070FBB5F5FC7F26D2C14F82
:103350004FEAD50C07EBCC03DC689C4200F0D2812D
:103360006368E268A16823F00303234430465D6884
:10337000CA6045F0010591605D6000F057FB0834BC
:10338000204603B0BDE8F08F1025A942D9D900240A
:103390000C232046336003B0BDE8F08F5FEA552C64
:1033A00000F08A80BCF1040F00F260814FEA951CA6
:1033B0000CF1380C4FEA4C01A64F07EB8101CC68A9
:1033C000A14205D10CE0002B7ADAE468A14207D0D3
:1033D000626822F00302531B0F2BF4DD0CF1FF3C5B
:1033E0000CF1010C9B4B3C6903F1080E744500F095
:1033F0007E81616821F003014A1B0F2A00F364817A
:10340000002AC3F814E0C3F810E06ADAB1F5007FCF
:1034100080F03A81C90803EBC1004FEAA1085A685D
:103420008168A1604FF0010909FA08F848EA020230
:10343000E0605A608460CC604FEAAC0301209840A1
:1034400090425BD8024206D12CF0030C40000242AD
:103450000CF1040CFAD007EBCC084446E146E368D3
:103460009C4207D145E1002A80F25681DB689C42EC
:1034700000F03F81596821F003014A1B0F2AF2DD59
:103480001C46D3F80CC054F8088F591945F00109AF
:1034900042F00105C3F804903046C8F80CC0CCF8DF
:1034A000088079613961C1F80CE0C1F808E04D602D
:1034B0008A5000F0BBFA63E77E214FF03F0C7BE7B8
:1034C0002244E3685068A16840F00105CB603046B3
:1034D0009960556000F0AAFA0834204603B0BDE8B0
:1034E000F08F214430464B6843F001034B6000F0FD
:1034F0009DFA0834204603B0BDE8F08FBC686368CD
:1035000023F00309A94504D3C5EB09030F2B00F3EE
:103510009180514B514A19681368013305EB010A38
:1035200004EB090B00F061810AF5805A0AF10F0AD9
:103530002AF47F6A2AF00F0A30465146019200F0C1
:1035400077FAB0F1FF3F8046019A00F00081834591
:1035500000F2FA80DFF810C1DCF80030C3455344B4
:10356000CCF8003000F04A8112683C4901321BBFA0
:10357000CBEB080B5B44C1F80080CCF8003018F0AE
:10358000070300F01381C3F10802C3F58053904490
:103590000833C244CAF30B0ACAEB030A5146304649
:1035A000CDF804C000F044FA431CDDF804C000F07C
:1035B0003581C8EB0002524442F00102DCF80030D1
:1035C000C7F808805344BC42C8F80420CCF8003047
:1035D000DFF894A015D0B9F10F0F40F2EA806168CE
:1035E000A9F10C0222F0070201F0010EA11805203A
:1035F00042EA0E0E0F2AC4F804E04860886000F228
:103600001181174ABC6811688B4288BF1360154A44
:1036100011688B4288BF1360626822F003029542F2
:10362000C5EB020301D80F2B04DC304600F0FEF995
:103630000024A5E6621943F0010345F00105656029
:103640003046BA60536000F0F1F90834204603B008
:10365000BDE8F08F7C04002050090020880800207D
:103660004C0900204809002054090020BCF1140F27
:1036700061D9BCF1540F00F28F804FEA153C0CF178
:103680006E0C4FEA4C0197E64B0A042B58D9142BC9
:1036900000F2AE8003F15B02500007EB8000DFF820
:1036A000BC818368834200F08A805A6822F003025A
:1036B000914202D29B689842F7D1D9687A68E1605A
:1036C000A3608C60DC60B7E6611942F0010745F049
:1036D00001056560304659611961C1F80CE0C1F817
:1036E00008E04F608A50083400F0A0F948E65A68B4
:1036F000A2E609F1010919F0030F04F108047FF4AF
:10370000AEAE2DE004F108036469A34208BF0CF1DA
:10371000020C3FF467AE23E619441C464868DB6898
:1037200054F8082F40F001054D603046D3609A6090
:1037300000F07CF924E60CF15B0C4FEA4C013BE60F
:103740008A0938325000A8E7BC423FF403AFBC6896
:10375000626822F0030262E7D8F8008098457BD1C6
:103760001CF0030FA8F108030CF1FF3CF4D17B68B7
:1037700023EA00037B60400098423FF6BFAE00287A
:103780003FF4BCAE0342CC467FF465AE400003423A
:103790000CF1040CFAD05EE6BCF5AA7F1AD84FEA09
:1037A000D53C0CF1770C4FEA4C0105E64FF4805301
:1037B000EFE60123C8F80430444600222FE79110B9
:1037C0000120D8F8042000FA01F10A43C8F80420C7
:1037D000194674E740F254539C451BD84FEA954C68
:1037E0000CF17C0C4FEA4C01E6E50AF1100AA3E665
:1037F000542B1FD80A0B6E3250004EE7CBF30B014F
:1038000000297FF4B1AE0AEB0901BA6841F0010169
:103810005160F6E6FC214FF07E0CCDE501224FF021
:10382000000ACBE604F10801304600F061F9DAF84D
:103830000030E6E6B3F5AA7F03D8CA0B7732500012
:103840002BE740F25452934203D88A0C7C3250004A
:1038500023E7FC207E2220E77B688CE77C040020A5
:10386000844641EA000313F003036DD1403A41D38B
:1038700051F8043B40F8043B51F8043B40F8043B4A
:1038800051F8043B40F8043B51F8043B40F8043B3A
:1038900051F8043B40F8043B51F8043B40F8043B2A
:1038A00051F8043B40F8043B51F8043B40F8043B1A
:1038B00051F8043B40F8043B51F8043B40F8043B0A
:1038C00051F8043B40F8043B51F8043B40F8043BFA
:1038D00051F8043B40F8043B51F8043B40F8043BEA
:1038E00051F8043B40F8043B51F8043B40F8043BDA
:1038F000403ABDD2303211D351F8043B40F8043B7A
:1039000051F8043B40F8043B51F8043B40F8043BB9
:1039100051F8043B40F8043B103AEDD20C3205D389
:1039200051F8043B40F8043B043AF9D2043208D081
:10393000D2071CBF11F8013B00F8013B01D30B88F3
:1039400003806046704700BF082A13D38B078DD0D1
:1039500010F003038AD0C3F10403D21ADB071CBFA3
:1039600011F8013B00F8013B80D331F8023B20F80D
:10397000023B7BE7043AD9D3013A11F8013B00F846
:10398000013BF9D20B7803704B7843708B788370CE
:1039900060467047F0B4840743D0541E002A3ED0DE
:1039A000CDB2034603E0621E002C38D0144603F863
:1039B000015B9A07F7D1032C2AD9CDB245EA052538
:1039C0000F2C45EA054515D9A4F110073F0903F16D
:1039D000100606EB07161A46156055609560D5600F
:1039E0001032B242F8D104F00F040137032C03EB7C
:1039F00007130DD91E462246043A032A46F8045BF3
:103A0000FAD8221F22F003020432134404F0030404
:103A10002CB1C9B21C4403F8011BA342FBD1F0BC7A
:103A2000704714460346C6E7704700BF704700BFA3
:103A300038B5074C0023054608462360FEF7A0FE74
:103A4000431C00D038BD2368002BFBD02B6038BD51
:103A5000A00F0020F8B5234D0F460446FFF7E4FF02
:103A6000AB685E6826F00306F11B01F6EF7121F4E6
:103A70007F6121F00F01A1F58057B7F5805F07DB6B
:103A800020460021FFF7D4FFAB683344984204D0AE
:103A90002046FFF7CBFF0020F8BD20467942FFF714
:103AA000C7FF01300DD0104BAA681968F61B46F00D
:103AB00001062046C91B56601960FFF7B7FF0120B9
:103AC000F8BD20460021FFF7B3FFAB68C21A0F2AEA
:103AD000DEDD064D04492D6842F00102401B5A60AC
:103AE0000860D5E77C0400205409002088080020E5
:103AF0002DE9F0410D460646002955D0FFF794FF09
:103B000055F8041CDFF874C121F00103A5F1080485
:103B1000E218DCF808005768904227F0030769D0E4
:103B200011F00101576032D00021D0194068C00760
:103B300006D43B44906800294ED0D268C2609060A1
:103B400043F001026260E350E1B9B3F5007F2DD389
:103B50005A0A042A6AD89809383041000CEB810CC3
:103B60004649DCF80820624566D0516821F003011F
:103B70008B4202D292689445F7D1D368E360A26089
:103B80009C60D4603046BDE8F041FFF74FBF55F868
:103B9000085C641B0CF10808A06840452B4443D026
:103BA000E568C560A860C0E7BDE8F081DB080CEB04
:103BB000C3020125DCF804009168A1609B1005FA9E
:103BC00003F31843E260CCF8040094603046CC6004
:103BD000BDE8F041FFF72ABF294DA842ADD143F01F
:103BE0000102CCF81440CCF81040E060A0606260A4
:103BF000E350C7E71F44CB0707D455F8083CE41A45
:103C00001F44A268E368D3609A601E4B1B6847F0AC
:103C100001029F426260CCF80840B3D31A4B304691
:103C20001968FFF717FFADE701217EE7142A0CD8CA
:103C300002F15B00410091E74B688010012505FA15
:103C400000F003434B60134698E7542A03D8180B3F
:103C50006E30410082E7B2F5AA7F03D8D80B7730E7
:103C600041007BE740F254518A4203D8980C7C30E3
:103C7000410073E7FC217E2070E700BF7C04002038
:103C80008404002084080020500900200A0000005D
:103C9000496E6974207465726D696E617465642023
:103CA00000000000427574746F6E0000FFFFFFFF9C
:103CB000FFFFFFFFFFFFFFFFFFFFFFFFFFFFFFFF14
:103CC000FFFFFFFFFFFFFFFFFFFFFFFFFFFFFFFF04
:103CD000FFFFFFFFFFFFFFFFFFFFFFFFFFFFFFFFF4
:103CE000FFFFFFFFFFFFFFFFFFFFFFFFFFFFFFFFE4
:103CF000FFFFFFFFFFFFFFFFFFFFFFFFFFFFFFFFD4
:103D0000FFFFFFFFFFFFFFFFFFFFFFFFFFFFFFFFC3
:103D1000FFFFFFFFFFFFFFFFFFFFFFFFFFFFFFFFB3
:103D2000FFFFFFFFFFFFFFFFFFFFFFFFFFFFFFFFA3
:103D3000FFFFFFFFFFFFFFFFFFFFFFFFFFFFFFFF93
:103D4000FFFFFFFFFFFFFFFFFFFFFFFFFFFFFFFF83
:103D5000FFFFFFFFFFFFFFFFFFFFFFFFFFFFFFFF73
:103D6000FFFFFFFFFFFFFFFFFFFFFFFF000000005F
:103D70000100000002000000030000000400000039
:103D80000500000006000000070000000800000019
:103D900009000000FFFFFFFFFFFFFFFFFFFFFFFF26
:103DA000FFFFFFFFFFFFFFFFFFFFFFFFFFFFFFFF23
:103DB000FFFFFFFFFFFFFFFFFFFFFFFFFFFFFFFF13
:103DC000FFFFFFFFFFFFFFFFFFFFFFFFFFFFFFFF03
:103DD000FFFFFFFFFFFFFFFFFFFFFFFFFFFFFFFFF3
:1040A000FFFFFFFFFFFFFFFFFFFFFFFF0000803F5D
:1040B000B03D833F0490863FF9F7893F36768D3FC8
:1040C0000F0B913FD8B6943FE17A983FD6569C3F6C
:1040D000064CA03F185BA43F0E84A83F36C8AC3FF7
:1040E000E527B13F16A4B53F1D3DBA3FF5F3BE3FEE
:1040F0009BC9C33F62BEC83F46D3CD3F4209D33FB1
:10410000FE60D83F23DBDD3FFF78E33F3A3BE93FEA
:10411000D122EF3F6A30F53F5665FB3F48E1004052
:1041200089240440EE7C0740F2EA0A403F6F0E40CB
:10413000520A1240D3BC154040871940166A1D40F0
:1041400051662140467C2540C5AC29404DF82D40A4
:10415000D95F3240BDE33640F5843B405244404095
:1041600053224540C91F4A40B03D4F40D97C54407E
:10417000ECDD5940BB615F406C096540D0D56A40B9
:10418000B9C7704022E0764008207D4033C48140AA
:10419000300D8540666B88408FDF8B40016A8F4011
:1041A000630B93405DC496406C959A40397F9E4066
:1041B0006B82A240959FA64073D7AA40992AAF4030
:1041C000C499B340AF25B84018CFBC40BC96C1409D
:1041D000567DC640A583CB408FAAD040D0F2D540B3
:1041E000645DDB4007EBE040A29CE6402E73EC40B0
:1041F0007E6FF240A392F84098DDFE40A2A80241F3
:1042000066F70541965B0941C5D50C4171661041C1
:10421000410E1441C8CD17418FA51B413E961F4149
:104220007BA02341E5C4274123042C41F25E3041A9
:10423000EFD53441E26939417C1B3E417BEB424181
:10424000BADA4741E2E94C41E31952417B6B5741ED
:1042500085DF5C41F37662419632684160136E41BE
:10426000411A744136487A411D4F8041A58E8341E1
:1042700035E38641604D8A41A9CD8D41A9649141C4
:10428000E7129541FCD898418BB79C4130AFA041D3
:1042900083C0A44137ECA841F432AD416795B141E8
:1042A0004614B64140B0BA41216ABF417374646993
:1042B0006F2E633A20696E637265617365204D41AC
:1042C000585F535452494E475F53495A450A0D00AF
:1042D000000000000E32C93B1C08493C91D0963CBE
:1042E0001C08C93CA73FFB3C15C6163DDAE12F3D33
:1042F000A0FD483D6519623DAE2A7B3DFC1D8A3D0F
:10430000A0A6963D452FA33DE9B7AF3D4F3BBC3D31
:10431000B6BEC83DDE3CD53D06BBE13D2E39EE3D87
:1043200018B2FA3D8195033E57CF093E2D09103E44
:104330006440163E9A771C3E32AC223E2BDE283E6D
:1043400023102F3E7D3F353ED66E3B3E919B413E36
:10435000ACC5473E29ED4D3EA514543E82395A3E28
:10436000C05B603E5F7B663EFE9A6C3E5FB5723E10
:10437000C0CF783E82E77E3E527E823E4486853EB6
:10438000378E883ED9948B3E2C9A8E3E309E913E3D
:10439000959F943EF9A0973E0EA19A3E849E9D3E25
:1043A000AA9AA03E8195A33E088FA63E4087A93ECB
:1043B000D97CAC3E2271AF3E1B64B23E7654B53E12
:1043C000D044B83E3C31BB3EA81DBE3E7407C13E42
:1043D000A2EEC33ED0D5C63E0FB9C93EFE9ACC3E32
:1043E0009E7BCF3E9F59D23E5036D53E6210D83E7E
:1043F00025E9DA3EF9BDDD3ECD92E03EB263E33E13
:104400004833E63E3F00E93EE6CBEB3EEE94EE3E1F
:10441000575BF13E211FF43E4CE0F63E27A0F93EEB
:10442000645DFC3E0118FF3EFFE7003FAF42023FE4
:104430000F9C033FC7F4043F884B063FF9A0073F9A
:10444000C3F5083F95480A3F179A0B3FF2EA0C3F25
:10445000D6390E3F6A870F3FAED3103FA31E123FDF
:104460004968133FF7AF143FFDF6153F0C3C173F6B
:10447000CC7F183F3BC2193FB4021B3FDD411C3FBC
:10448000B77F1D3F41BC1E3FD3F61F3F1630213F73
:104490006267223F5E9D233F0BD2243FC004263F2C
:1044A0002636273F3C66283F5B94293F83C02A3F3E
:1044B0005BEB2B3F3C142D3FCD3B2E3F67612F3FE5
:1044C000B285303F05A8313F08C9323F6DE7333F21
:1044D0002905353F4720363F153A373FEC51383FE5
:1044E0007368393F5B7C3A3FF38E3B3F3CA03C3FD7
:1044F000E6AE3D3F41BC3E3FA4C73F3F0FD1403FEA
:1045000084D8413F01DE423F2EE2433FBDE3443FBA
:10451000FCE3453F43E2463F94DE473FEDD8483F4A
:104520004ED1493FB9C74A3F2CBC4B3FA7AE4C3F89
:104530002C9F4D3FB98D4E3F4E7A4F3FED64503F1B
:10454000EC4C513F9C33523F5518533F16FB533FA1
:1045500038DB543F63B9553F9695563FD26F573F6E
:104560001748583F641E593FBBF2593F72C45A3F27
:1045700031945B3FFA615C3F232D5D3FFDF65D3F6B
:1045800038BE5E3FD4825F3F2046603FCD06613F2C
:1045900082C5613F4182623F603C633F88F4633F74
:1045A00011AA643F4A5E653F3D0F663FE0BE663F2D
:1045B000E36B673FF016683F5DBF683FD465693FB6
:1045C000AB096A3F8AAB6A3FCB4A6B3F14E86B3F4B
:1045D00066836C3F191C6D3FD5B26D3FF1466E3F4F
:1045E0006FD86E3FF5676F3F84F56F3F7380703F04
:1045F000C408713F1D8F713F7F13723F4295723F18
:104600006614733F9291733F200C743F0E84743F85
:1046100005FA743F5D6D753FBEDE753F7F4D763F99
:1046200049BA763FCD23773F008C773FEDF0773F57
:10463000E353783F39B4783F9912793F596E793F07
:104640007AC7793FA31E7A3F2E737A3F19C57A3F06
:104650000E157B3FBB617B3F19AD7B3F30F57B3F48
:104660004F3B7C3FD07E7C3FB1BF7C3F9BFE7C3F7D
:10467000E73A7D3F92747D3F9FAB7D3FB5E07D3F44
:104680002B137E3F03437E3FE3707E3F7C9B7E3F48
:104690001EC47E3FC8EA7E3F2C0E7F3F982F7F3F8F
:1046A000664E7F3F946A7F3FCB847F3F639C7F3F12
:1046B0005BB17F3FB5C37F3F6FD37F3F33E17F3F28
:1046C00057EC7F3FDCF47F3FC2FA7F3FB0FE7F3F75
:1046D0000000803FB0FE7F3FC2FA7F3FDCF47F3FA7
:1046E00057EC7F3F33E17F3F6FD37F3FB5C37F3FC1
:1046F0005BB17F3F639C7F3FCB847F3F946A7F3F6A
:10470000664E7F3F982F7F3F2C0E7F3FC8EA7E3F4B
:104710001EC47E3F7C9B7E3FE3707E3F03437E3F13
:104720002B137E3FB5E07D3F9FAB7D3F92747D3F75
:10473000E73A7D3F9BFE7C3FB1BF7C3FD07E7C3F14
:104740004F3B7C3F30F57B3F19AD7B3FBB617B3FEF
:104750000E157B3F19C57A3F2E737A3FA31E7A3F11
:104760007AC7793F596E793F9912793F39B4783FCA
:10477000E353783FEDF0773F008C773FCD23773FD1
:1047800049BA763F7F4D763FBEDE753F5D6D753F22
:1047900005FA743F0E84743F200C743F9291733F6E
:1047A0006614733F4295723F7F13723F1D8F713FB6
:1047B000C408713F7380703F84F56F3FF5676F3FAA
:1047C0006FD86E3FF1466E3FD5B26D3F191C6D3FFD
:1047D00066836C3F14E86B3FCB4A6B3F8AAB6A3F02
:1047E000AB096A3FD465693F5DBF683FF016683F1B
:1047F000E36B673FE0BE663F3D0F663F4A5E653F45
:1048000011AA643F88F4633F603C633F4182623F8A
:1048100082C5613FCD06613F2046603FD4825F3F45
:1048200038BE5E3FFDF65D3F232D5D3FFA615C3F84
:1048300031945B3F72C45A3FBBF2593F641E593FEB
:104840001748583FD26F573F9695563F63B9553F2B
:1048500038DB543F16FB533F5518533F9C33523FB0
:10486000EC4C513FED64503F4E7A4F3FB98D4E3F77
:104870002C9F4D3FA7AE4C3F2CBC4B3FB9C74A3F86
:104880004ED1493FEDD8483F94DE473F43E2463F93
:10489000FCE3453FBDE3443F2EE2433F01DE423FA0
:1048A00084D8413F0FD1403FA4C73F3F41BC3E3F6A
:1048B000E6AE3D3F3CA03C3FF38E3B3F5B7C3A3F46
:1048C0007368393FEC51383F153A373F4720363F40
:1048D0002905353F6DE7333F08C9323F05A8313F11
:1048E000B285303F67612F3FCD3B2E3F3C142D3FBB
:1048F0005BEB2B3F83C02A3F5B94293F3C66283FFC
:104900002636273FC004263F0BD2243F5E9D233F1F
:104910006267223F1630213FD3F61F3F41BC1E3F46
:10492000B77F1D3FDD411C3FB4021B3F3BC2193F17
:10493000CC7F183F0C3C173FFDF6153FF7AF143FF7
:104940004968133FA31E123FAED3103F6A870F3F43
:10495000D6390E3FF2EA0C3F179A0B3F95480A3FB3
:10496000C3F5083FF9A0073F884B063FC7F4043F53
:104970000F9C033FAF42023FFFE7003F0118FF3E9D
:10498000645DFC3E27A0F93E4CE0F63E211FF43E5C
:10499000575BF13EEE94EE3EE6CBEB3E3F00E93E48
:1049A0004833E63EB263E33ECD92E03EF9BDDD3EE4
:1049B00025E9DA3E6210D83E5036D53E9F59D23EA8
:1049C0009E7BCF3EFE9ACC3E0FB9C93ED0D5C63EA7
:1049D000A2EEC33E7407C13EA81DBE3E3C31BB3EA5
:1049E000D044B83E7654B53E1B64B23E2271AF3E11
:1049F000D97CAC3E4087A93E088FA63E8195A33E58
:104A0000AA9AA03E849E9D3E0EA19A3EF9A0973E92
:104A1000959F943E309E913E2C9A8E3ED9948B3E2B
:104A2000378E883E4486853E527E823E82E77E3EB9
:104A3000C0CF783E5FB5723EFE9A6C3E5F7B663EAD
:104A4000C05B603E82395A3EA514543E29ED4D3E6E
:104A5000ACC5473E919B413ED66E3B3E7D3F353EC9
:104A600023102F3E2BDE283E32AC223E9A771C3E8E
:104A70006440163E2D09103E57CF093E8195033EF6
:104A800018B2FA3D2E39EE3D06BBE13DDE3CD53D88
:104A9000B6BEC83D4F3BBC3DE9B7AF3D452FA33D3A
:104AA000A0A6963DFC1D8A3DAE2A7B3D6519623D60
:104AB000A0FD483DDAE12F3D15C6163DA73FFB3C62
:104AC0001C08C93C91D0963C1C08493C0E32C93B9D
:104AD000000000000E32C9BB1C0849BC91D096BC36
:104AE0001C08C9BCA73FFBBC15C616BDDAE12FBD2B
:104AF000A0FD48BD651962BDAE2A7BBDFC1D8ABD07
:104B0000A0A696BD452FA3BDE9B7AFBD4F3BBCBD29
:104B1000B6BEC8BDDE3CD5BD06BBE1BD2E39EEBD7F
:104B200018B2FABD819503BE57CF09BE2D0910BE3C
:104B3000644016BE9A771CBE32AC22BE2BDE28BE65
:104B400023102FBE7D3F35BED66E3BBE919B41BE2E
:104B5000ACC547BE29ED4DBEA51454BE82395ABE20
:104B6000C05B60BE5F7B66BEFE9A6CBE5FB572BE08
:104B7000C0CF78BE82E77EBE527E82BE448685BEAE
:104B8000378E88BED9948BBE2C9A8EBE309E91BE35
:104B9000959F94BEF9A097BE0EA19ABE849E9DBE1D
:104BA000AA9AA0BE8195A3BE088FA6BE4087A9BEC3
:104BB000D97CACBE2271AFBE1B64B2BE7654B5BE0A
:104BC000D044B8BE3C31BBBEA81DBEBE7407C1BE3A
:104BD000A2EEC3BED0D5C6BE0FB9C9BEFE9ACCBE2A
:104BE0009E7BCFBE9F59D2BE5036D5BE6210D8BE76
:104BF00025E9DABEF9BDDDBECD92E0BEB263E3BE0B
:104C00004833E6BE3F00E9BEE6CBEBBEEE94EEBE17
:104C1000575BF1BE211FF4BE4CE0F6BE27A0F9BEE3
:104C2000645DFCBE0118FFBEFFE700BFAF4202BFDC
:104C30000F9C03BFC7F404BF884B06BFF9A007BF92
:104C4000C3F508BF95480ABF179A0BBFF2EA0CBF1D
:104C5000D6390EBF6A870FBFAED310BFA31E12BFD7
:104C6000496813BFF7AF14BFFDF615BF0C3C17BF63
:104C7000CC7F18BF3BC219BFB4021BBFDD411CBFB4
:104C8000B77F1DBF41BC1EBFD3F61FBF163021BF6B
:104C9000626722BF5E9D23BF0BD224BFC00426BF24
:104CA000263627BF3C6628BF5B9429BF83C02ABF36
:104CB0005BEB2BBF3C142DBFCD3B2EBF67612FBFDD
:104CC000B28530BF05A831BF08C932BF6DE733BF19
:104CD000290535BF472036BF153A37BFEC5138BFDD
:104CE000736839BF5B7C3ABFF38E3BBF3CA03CBFCF
:104CF000E6AE3DBF41BC3EBFA4C73FBF0FD140BFE2
:104D000084D841BF01DE42BF2EE243BFBDE344BFB2
:104D1000FCE345BF43E246BF94DE47BFEDD848BF42
:104D20004ED149BFB9C74ABF2CBC4BBFA7AE4CBF81
:104D30002C9F4DBFB98D4EBF4E7A4FBFED6450BF13
:104D4000EC4C51BF9C3352BF551853BF16FB53BF99
:104D500038DB54BF63B955BF969556BFD26F57BF66
:104D6000174858BF641E59BFBBF259BF72C45ABF1F
:104D700031945BBFFA615CBF232D5DBFFDF65DBF63
:104D800038BE5EBFD4825FBF204660BFCD0661BF24
:104D900082C561BF418262BF603C63BF88F463BF6C
:104DA00011AA64BF4A5E65BF3D0F66BFE0BE66BF25
:104DB000E36B67BFF01668BF5DBF68BFD46569BFAE
:104DC000AB096ABF8AAB6ABFCB4A6BBF14E86BBF43
:104DD00066836CBF191C6DBFD5B26DBFF1466EBF47
:104DE0006FD86EBFF5676FBF84F56FBF738070BFFC
:104DF000C40871BF1D8F71BF7F1372BF429572BF10
:104E0000661473BF929173BF200C74BF0E8474BF7D
:104E100005FA74BF5D6D75BFBEDE75BF7F4D76BF91
:104E200049BA76BFCD2377BF008C77BFEDF077BF4F
:104E3000E35378BF39B478BF991279BF596E79BFFF
:104E40007AC779BFA31E7ABF2E737ABF19C57ABFFE
:104E50000E157BBFBB617BBF19AD7BBF30F57BBF40
:104E60004F3B7CBFD07E7CBFB1BF7CBF9BFE7CBF75
:104E7000E73A7DBF92747DBF9FAB7DBFB5E07DBF3C
:104E80002B137EBF03437EBFE3707EBF7C9B7EBF40
:104E90001EC47EBFC8EA7EBF2C0E7FBF982F7FBF87
:104EA000664E7FBF946A7FBFCB847FBF639C7FBF0A
:104EB0005BB17FBFB5C37FBF6FD37FBF33E17FBF20
:104EC00057EC7FBFDCF47FBFC2FA7FBFB0FE7FBF6D
:104ED000000080BFB0FE7FBFC2FA7FBFDCF47FBF9F
:104EE00057EC7FBF33E17FBF6FD37FBFB5C37FBFB9
:104EF0005BB17FBF639C7FBFCB847FBF946A7FBF62
:104F0000664E7FBF982F7FBF2C0E7FBFC8EA7EBF43
:104F10001EC47EBF7C9B7EBFE3707EBF03437EBF0B
:104F20002B137EBFB5E07DBF9FAB7DBF92747DBF6D
:104F3000E73A7DBF9BFE7CBFB1BF7CBFD07E7CBF0C
:104F40004F3B7CBF30F57BBF19AD7BBFBB617BBFE7
:104F50000E157BBF19C57ABF2E737ABFA31E7ABF09
:104F60007AC779BF596E79BF991279BF39B478BFC2
:104F7000E35378BFEDF077BF008C77BFCD2377BFC9
:104F800049BA76BF7F4D76BFBEDE75BF5D6D75BF1A
:104F900005FA74BF0E8474BF200C74BF929173BF66
:104FA000661473BF429572BF7F1372BF1D8F71BFAE
:104FB000C40871BF738070BF84F56FBFF5676FBFA2
:104FC0006FD86EBFF1466EBFD5B26DBF191C6DBFF5
:104FD00066836CBF14E86BBFCB4A6BBF8AAB6ABFFA
:104FE000AB096ABFD46569BF5DBF68BFF01668BF13
:104FF000E36B67BFE0BE66BF3D0F66BF4A5E65BF3D
:1050000011AA64BF88F463BF603C63BF418262BF82
:1050100082C561BFCD0661BF204660BFD4825FBF3D
:1050200038BE5EBFFDF65DBF232D5DBFFA615CBF7C
:1050300031945BBF72C45ABFBBF259BF641E59BFE3
:10504000174858BFD26F57BF969556BF63B955BF23
:1050500038DB54BF16FB53BF551853BF9C3352BFA8
:10506000EC4C51BFED6450BF4E7A4FBFB98D4EBF6F
:105070002C9F4DBFA7AE4CBF2CBC4BBFB9C74ABF7E
:105080004ED149BFEDD848BF94DE47BF43E246BF8B
:10509000FCE345BFBDE344BF2EE243BF01DE42BF98
:1050A00084D841BF0FD140BFA4C73FBF41BC3EBF62
:1050B000E6AE3DBF3CA03CBFF38E3BBF5B7C3ABF3E
:1050C000736839BFEC5138BF153A37BF472036BF38
:1050D000290535BF6DE733BF08C932BF05A831BF09
:1050E000B28530BF67612FBFCD3B2EBF3C142DBFB3
:1050F0005BEB2BBF83C02ABF5B9429BF3C6628BFF4
:10510000263627BFC00426BF0BD224BF5E9D23BF17
:10511000626722BF163021BFD3F61FBF41BC1EBF3E
:10512000B77F1DBFDD411CBFB4021BBF3BC219BF0F
:10513000CC7F18BF0C3C17BFFDF615BFF7AF14BFEF
:10514000496813BFA31E12BFAED310BF6A870FBF3B
:10515000D6390EBFF2EA0CBF179A0BBF95480ABFAB
:10516000C3F508BFF9A007BF884B06BFC7F404BF4B
:105170000F9C03BFAF4202BFFFE700BF0118FFBE95
:10518000645DFCBE27A0F9BE4CE0F6BE211FF4BE54
:10519000575BF1BEEE94EEBEE6CBEBBE3F00E9BE40
:1051A0004833E6BEB263E3BECD92E0BEF9BDDDBEDC
:1051B00025E9DABE6210D8BE5036D5BE9F59D2BEA0
:1051C0009E7BCFBEFE9ACCBE0FB9C9BED0D5C6BE9F
:1051D000A2EEC3BE7407C1BEA81DBEBE3C31BBBE9D
:1051E000D044B8BE7654B5BE1B64B2BE2271AFBE09
:1051F000D97CACBE4087A9BE088FA6BE8195A3BE50
:10520000AA9AA0BE849E9DBE0EA19ABEF9A097BE8A
:10521000959F94BE309E91BE2C9A8EBED9948BBE23
:10522000378E88BE448685BE527E82BE82E77EBEB1
:10523000C0CF78BE5FB572BEFE9A6CBE5F7B66BEA5
:10524000C05B60BE82395ABEA51454BE29ED4DBE66
:10525000ACC547BE919B41BED66E3BBE7D3F35BEC1
:1052600023102FBE2BDE28BE32AC22BE9A771CBE86
:10527000644016BE2D0910BE57CF09BE819503BEEE
:1052800018B2FABD2E39EEBD06BBE1BDDE3CD5BD80
:10529000B6BEC8BD4F3BBCBDE9B7AFBD452FA3BD32
:1052A000A0A696BDFC1D8ABDAE2A7BBD651962BD58
:1052B000A0FD48BDDAE12FBD15C616BDA73FFBBC5A
:1052C0001C08C9BC91D096BC1C0849BC0E32C9BB95
:1052D00000000000789CA23D0C07223E0395713E21
:1052E0004AB59F3E187DC53EB1E1E93EBD52063F3D
:1052F000B4C8163F2E39263FDA8F343FB6B9413F46
:1053000000A94D3F3B53583FD9B1613F94C1693F1C
:105310000A85703F2A00763F213C7A3F63457D3FF6
:10532000022B7F3F0000803FAED87F3FFBCB7E3F0C
:10533000D0F27C3FB2687A3FD847773F71AC733F79
:1053400003B26F3F0C766B3F1B12673F66A0623F54
:105350007E3A5E3FA9F6593F3AE9553F8126523FD2
:10536000E8BC4E3FDCBA4B3FD82A493FBA14473F0E
:10537000677E453FD769443F62D6433F6AC1433F9A
:10538000AF25443FFCFB443F7E3A463FB6D6473FFD
:105390008BC3493FE0F34B3FFB574E3F19E2503F71
:1053A0002783533FC32A563F29CB583F97565B3F2D
:1053B00048BF5D3F72F95F3F98FA613F8CB9633F28
:1053C000C22F653FAC56663F5A2A673F7EA9673FAA
:1053D0006FD3673F26AA673FE830673F4C6C663F54
:1053E000E162653FDA1B643F66A0623F09F9603FF6
:1053F000E8305F3F7E525D3F49685B3F6B7D593FC0
:10540000BB9B573F0CCD553F821C543FAC90523F45
:105410000E32513F3507503F62154F3FD95F4E3F27
:10542000E2E94D3F24B44D3FA1BE4D3F07084E3F3A
:10543000118D4E3FCF494F3F0439503FCA54513F21
:10544000EA95523F88F4533F6E69553F70EB563FE3
:10545000B072583FA9F6593F2F6E5B3F0BD25C3FAD
:10546000B01B5E3F42435F3F8143603FD717613FC0
:1054700056BC613FB62D623F516B623F7E74623F06
:105480003D49623F85EB613FF65D613F27A5603F87
:1054900005C55F3F76C35E3FB9A55D3F04735C3FC2
:1054A000E4315B3F8EE9593F90A0583F705F573F12
:1054B0006B2B563F5F0C553FE206543FDA20533FBB
:1054C000355E523F33C4513F7A53513FF90F513F3C
:1054D00009F9503FF90F513F2A52513FF5BE513F54
:1054E0001153523F910A533F87E1533F5BD3543FDF
:1054F0007FD9553F0FEE563F740C583FCF2C593F84
:10550000E4495A3F255D5B3F52615C3FDF4F5D3FA1
:10551000DD245E3FB6DB5E3F22715F3F33E15F3FDC
:10552000992A603F064C603F7845603FF016603F27
:1055300065C25F3F28495F3F7DAE5E3F55F65D3FE8
:1055400046255D3F963E5C3FD4485B3F95485A3FB9
:105550006744593F3A40583F4243573FBD52563F38
:105560009B72553FC1A8543F1EF9533F5166533FAC
:1055700049F4523FA4A5523F637A523F7E74523F92
:10558000A392523FD4D4523FC139533F7BBD533FC6
:10559000B35E543FD218553F43E7553F15C6563FBB
:1055A000B4B0573F38A1583F0C93593F49805A3FF8
:1055B0005A645B3FA83A5C3FF4FD5C3F50AA5D3FF4
:1055C000753C5E3F1CB15E3F4F065F3F153A5F3F43
:1055D0001F4B5F3F153A5F3FF7065F3F14B35E3FD7
:1055E00064405E3F85B15D3FC0095D3F594C5C3F03
:1055F000917E5B3F55A45A3F94C1593FDBDC583F35
:105600001AFA573FE71D573F274E563F7A8D553FB1
:10561000C6E1543F514E543F13D5533FFB79533F9E
:10562000B03D533F2922533F6727533F124E533F0C
:105630003194533F77F8533FEA78543FEC12553F8B
:10564000E8C1553F3C83563F5452573F992A583F33
:10565000CD06593FA8E3593F9DBA5A3F66885B3F44
:105660006B485C3F6FF55C3F7A8D5D3F4E0B5E3F54
:10567000446E5E3F14B35E3F6FD85E3FADDD5E3F6C
:10568000CEC25E3F7B885E3F01305E3F5ABB5D3FCE
:10569000232D5D3FFD875C3F7DD05B3F42095B3F33
:1056A0008B375A3FEE5F593F5986583FB4B0573F4A
:1056B00043E2563F4720563FAD6E553F0BD2543F15
:1056C000594C543F87E1533F8A93533FB263533F52
:1056D000F853533FB263533F8A93533F87E1533F9D
:1056E000594C543F0BD2543FAD6E553F4720563F67
:1056F00043E2563FB4B0573F5986583FEE5F593F9B
:105700008B375A3F42095B3F7DD05B3FFD875C3F53
:10571000232D5D3F5ABB5D3F01305E3F7B885E3F7E
:10572000CEC25E3FADDD5E3F6FD85E3F14B35E3FDD
:10573000446E5E3F4E0B5E3F7A8D5D3F6FF55C3F82
:105740006B485C3F66885B3F9DBA5A3FA8E3593F70
:10575000CD06593F992A583F5452573F3C83563FF4
:10576000E8C1553FEC12553FEA78543F77F8533F74
:105770003194533F124E533F6727533F2922533FE3
:10578000B03D533FFB79533F13D5533F514E543FE8
:10579000C6E1543F7A8D553F274E563FE71D573F90
:1057A0001AFA573FDBDC583F94C1593F55A45A3F82
:1057B000917E5B3F594C5C3FC0095D3F85B15D3FC9
:1057C00064405E3F14B35E3FF7065F3F153A5F3FAC
:1057D0001F4B5F3F153A5F3F4F065F3F1CB15E3F77
:1057E000753C5E3F50AA5D3FF4FD5C3FA83A5C3FCC
:1057F0005A645B3F49805A3F0C93593F38A1583F48
:10580000B4B0573F15C6563F43E7553FD218553FF2
:10581000B35E543F7BBD533FC139533FD4D4523F55
:10582000A392523F7E74523F637A523FA4A5523FE7
:1058300049F4523F5166533F1EF9533FC1A8543FAC
:105840009B72553FBD52563F4243573F3A40583FE7
:105850006744593F95485A3FD4485B3F963E5C3F6A
:1058600046255D3F55F65D3F7DAE5E3F28495F3F73
:1058700065C25F3FF016603F7845603F064C603F71
:10588000992A603F33E15F3F22715F3FB6DB5E3FA5
:10589000DD245E3FDF4F5D3F52615C3F255D5B3F36
:1058A000E4495A3FCF2C593F740C583F0FEE563FF6
:1058B0007FD9553F5BD3543F87E1533F910A533F14
:1058C0001153523FF5BE513F2A52513FF90F513FFC
:1058D00009F9503FF90F513F7A53513F33C4513FBB
:1058E000355E523FDA20533FE206543F5F0C553F8E
:1058F0006B2B563F705F573F90A0583F8EE9593F42
:10590000E4315B3F04735C3FB9A55D3F76C35E3F06
:1059100005C55F3F27A5603FF65D613F85EB613FB1
:105920003D49623F7E74623F516B623FB62D623FDC
:1059300056BC613FD717613F8143603F42435F3FA1
:10594000B01B5E3F0BD25C3F2F6E5B3FA9F6593F09
:10595000B072583F70EB563F6E69553F88F4533F25
:10596000EA95523FCA54513F0439503FCF494F3F07
:10597000118D4E3F07084E3FA1BE4D3F24B44D3F11
:10598000E2E94D3FD95F4E3F62154F3F3507503F2B
:105990000E32513FAC90523F821C543F0CCD553FCC
:1059A000BB9B573F6B7D593F49685B3F7E525D3FD4
:1059B000E8305F3F09F9603F66A0623FDA1B643F51
:1059C000E162653F4C6C663FE830673F26AA673F5F
:1059D0006FD3673F7EA9673F5A2A673FAC56663F41
:1059E000C22F653F8CB9633F98FA613F72F95F3F00
:1059F00048BF5D3F97565B3F29CB583FC32A563F70
:105A00002783533F19E2503FFB574E3FE0F34B3F94
:105A10008BC3493FB6D6473F7E3A463FFCFB443FE7
:105A2000AF25443F6AC1433F62D6433FD769443FF5
:105A3000677E453FBA14473FD82A493FDCBA4B3FFF
:105A4000E8BC4E3F8126523F3AE9553FA9F6593FFF
:105A50007E3A5E3F66A0623F1B12673F0C766B3F4B
:105A600003B26F3F71AC733FD847773FB2687A3F5C
:105A7000D0F27C3FFBCB7E3FAED87F3F0000803F23
:105A8000022B7F3F63457D3F213C7A3F2A00763FD2
:105A90000A85703F94C1693FD9B1613F3B53583F7C
:105AA00000A94D3FB6B9413FDA8F343F2E39263F2A
:105AB000B4C8163FBD52063FB1E1E93E187DC53E70
:105AC0004AB59F3E0395713E0C07223E789CA23D4D
:105AD00000000000789CA2BD0C0722BE039571BE99
:105AE0004AB59FBE187DC5BEB1E1E9BEBD5206BF35
:105AF000B4C816BF2E3926BFDA8F34BFB6B941BF3E
:105B000000A94DBF3B5358BFD9B161BF94C169BF14
:105B10000A8570BF2A0076BF213C7ABF63457DBFEE
:105B2000022B7FBF000080BFAED87FBFFBCB7EBF04
:105B3000D0F27CBFB2687ABFD84777BF71AC73BF71
:105B400003B26FBF0C766BBF1B1267BF66A062BF4C
:105B50007E3A5EBFA9F659BF3AE955BF812652BFCA
:105B6000E8BC4EBFDCBA4BBFD82A49BFBA1447BF06
:105B7000677E45BFD76944BF62D643BF6AC143BF92
:105B8000AF2544BFFCFB44BF7E3A46BFB6D647BFF5
:105B90008BC349BFE0F34BBFFB574EBF19E250BF69
:105BA000278353BFC32A56BF29CB58BF97565BBF25
:105BB00048BF5DBF72F95FBF98FA61BF8CB963BF20
:105BC000C22F65BFAC5666BF5A2A67BF7EA967BFA2
:105BD0006FD367BF26AA67BFE83067BF4C6C66BF4C
:105BE000E16265BFDA1B64BF66A062BF09F960BFEE
:105BF000E8305FBF7E525DBF49685BBF6B7D59BFB8
:105C0000BB9B57BF0CCD55BF821C54BFAC9052BF3D
:105C10000E3251BF350750BF62154FBFD95F4EBF1F
:105C2000E2E94DBF24B44DBFA1BE4DBF07084EBF32
:105C3000118D4EBFCF494FBF043950BFCA5451BF19
:105C4000EA9552BF88F453BF6E6955BF70EB56BFDB
:105C5000B07258BFA9F659BF2F6E5BBF0BD25CBFA5
:105C6000B01B5EBF42435FBF814360BFD71761BFB8
:105C700056BC61BFB62D62BF516B62BF7E7462BFFE
:105C80003D4962BF85EB61BFF65D61BF27A560BF7F
:105C900005C55FBF76C35EBFB9A55DBF04735CBFBA
:105CA000E4315BBF8EE959BF90A058BF705F57BF0A
:105CB0006B2B56BF5F0C55BFE20654BFDA2053BFB3
:105CC000355E52BF33C451BF7A5351BFF90F51BF34
:105CD00009F950BFF90F51BF2A5251BFF5BE51BF4C
:105CE000115352BF910A53BF87E153BF5BD354BFD7
:105CF0007FD955BF0FEE56BF740C58BFCF2C59BF7C
:105D0000E4495ABF255D5BBF52615CBFDF4F5DBF99
:105D1000DD245EBFB6DB5EBF22715FBF33E15FBFD4
:105D2000992A60BF064C60BF784560BFF01660BF1F
:105D300065C25FBF28495FBF7DAE5EBF55F65DBFE0
:105D400046255DBF963E5CBFD4485BBF95485ABFB1
:105D5000674459BF3A4058BF424357BFBD5256BF30
:105D60009B7255BFC1A854BF1EF953BF516653BFA4
:105D700049F452BFA4A552BF637A52BF7E7452BF8A
:105D8000A39252BFD4D452BFC13953BF7BBD53BFBE
:105D9000B35E54BFD21855BF43E755BF15C656BFB3
