:020000040800F2
:100000006016002061090008CD0900083B190008AE
:10001000CD090008CD090008CD0900080000000046
:10002000000000000000000000000000CD090008F2
:10003000CD09000800000000CD090008CD09000826
:10004000CD090008CD090008CD090008CD09000838
:10005000CD090008CD090008CD090008CD09000828
:10006000CD090008CD090008CD090008CD09000818
:10007000950D0008CD090008CD090008CD0900083C
:10008000CD090008CD090008CD090008CD090008F8
:10009000CD090008CD090008CD090008CD090008E8
:1000A000CD090008CD090008CD090008CD090008D8
:1000B000CD090008CD090008CD090008CD090008C8
:1000C000CD090008CD090008CD090008CD090008B8
:1000D000CD090008CD090008CD090008890D0008E8
:1000E000CD090008CD090008CD090008CD09000898
:1000F000CD090008CD090008CD090008CD09000888
:10010000CD090008CD090008CD090008CD09000877
:10011000CD090008CD090008CD090008CD09000867
:10012000CD090008CD090008CD090008CD09000857
:10013000CD090008CD090008CD090008CD09000847
:10014000CD090008CD090008CD090008CD09000837
:10015000CD090008CD090008CD090008CD09000827
:10016000CD090008CD090008CD090008CD09000817
:10017000CD090008CD090008CD090008CD09000807
:10018000CD090008CD09000880B58AB000AF07F19D
:100190002003184601F04AFB10233B62012387F835
:1001A0002430022387F82730002387F826300223E3
:1001B00087F825300B20012100F0C6FE07F120034F
:1001C0004748194601F0A4FA022387F82430012396
:1001D00087F826304FF410733B62002387F82730EE
:1001E000022387F8253007F120033E48194601F025
:1001F0008FFA3C480621042201F04EFB39480921C0
:10020000042201F049FB002000F090FE4FF40210A0
:10021000012100F0B7FE012000F0CEFD002387F899
:1002200026304FF4A4533B6207F120032E481946B1
:1002300001F06EFA10233B6207F120032B481946A8
:1002400001F066FA29480421062201F025FB264820
:100250000721062201F020FB23480A21062201F093
:100260001BFB21480C21062201F016FB1C48102123
:1002700001F004FB1E4801F065FD4BF68033BB61C5
:100280004FF40073FB820023BB824FF400733B8268
:1002900000237B820023BB8307F110031448194617
:1002A00001F08AFD134801F0A9FE134B3B600023C7
:1002B000BB8033233B814FF480637B814FF48043C9
:1002C000BB814BF6FF73FB800A48012101F092FFCE
:1002D0003B460848194601F0CBFE2837BD4680BD95
:1002E000000C0240000402400008024000000240EE
:1002F000003C004000540040A086010080B584B05E
:1003000000AFFF23FB725448102101F0A9FA534BB0
:10031000FB6002E0FB68013BFB60FB68002BF9D14E
:100320000D233B7101237B713B1D1846022100F018
:1003300097F800233B7199237B713B1D18460221DE
:1003400000F08EF847233B7180237B713B1D1846DC
:10035000022100F085F8322000F0DEF80346FB723F
:1003600032233B71FB7A63F07F03DBB27B713B1D71
:100370001846022100F074F8322000F0CDF8034650
:10038000FB7232233B71FB7A03F07F03DBB27B719C
:100390003B1D1846022100F063F800233B71002347
:1003A0007B713B1D1846022100F05AF804233B7173
:1003B000AF237B713B1D1846022100F051F80D233D
:1003C0003B7170237B713B1D1846022100F048F8F9
:1003D00005233B7181237B713B1D1846022100F0F0
:1003E0003FF806233B7107237B713B1D1846022112
:1003F00000F036F80A233B7100237B713B1D184641
:10040000022100F02DF827233B7100237B713B1D57
:100410001846022100F024F89A233B710A237B71CD
:100420000A23BB713B1D1846032100F019F81F2356
:100430003B710F237B713B1D1846022100F010F821
:1004400002233B719E237B713B1D1846022100F065
:1004500007F81037BD4680BD000C024040420F0037
:1004600080B584B000AF78600B46FB700023FB734F
:1004700000BF24484FF4003101F0A8FF0346002BD1
:10048000F7D12048012101F0D5FE00BF1D481E49CB
:1004900001F09CFF0346002BF8D01A48942100225B
:1004A00001F008FF00BF1748184901F05FFF03463D
:1004B000002BF8D012E0FB7B7A6813441B781148BC
:1004C000194601F035FFFB7B0133FB7300BF0D487C
:1004D0000F4901F04BFF0346002BF8D0FA7BFB7865
:1004E0009A42E8D300BF07480A4901F06FFF03466C
:1004F000002BF8D00348012101F0BCFE1037BD46A7
:1005000080BD00BF005400400100001082000700C1
:10051000800007000400001080B584B000AF0346DF
:10052000FB710023FB7300BF36484FF4003101F02C
:100530004DFF0346002BF7D13248012101F07AFE2E
:1005400000BF3048304901F041FF0346002BF8D08E
:100550002C489421002201F0ADFE00BF29482B4910
:1005600001F004FF0346002BF8D0FB79254819461B
:1005700001F0DEFE00BF2348254901F0F7FE0346E7
:10058000002BF8D01F48012101F074FE00BF1D4868
:100590004FF4003101F01AFF0346002BF7D1194840
:1005A000002101F0A5FE1748012101F043FE00BF24
:1005B0001448154901F00AFF0346002BF8D01148F2
:1005C0009421012201F076FE00BF0E48114901F08E
:1005D000CDFE0346002BF8D000BF0A480E4901F0BB
:1005E000C5FE0346002BF8D0064801F0B1FE0346D5
:1005F000FB730448012101F03DFEFB7B18461037D8
:10060000BD4680BD0054004001000010820007007C
:1006100080000700020003004000030080B58AB09C
:1006200000AF7860396000237B6200233B620023C7
:10063000FB610023BB617B681B8A9BB27B627B6A88
:1006400023F440537B623B68DB887A6A13437B6206
:100650007B6A9AB27B681A827B689B899BB27B62B9
:100660007B6A23F4B05323F00C037B623B689A88C7
:100670003B681B8913439AB23B685B8913439BB267
:100680007A6A13437B627B6A9AB27B689A817B6841
:100690009B8A9BB27B627B6A23F440737B623B68DC
:1006A0009B897A6A13437B627B6A9AB27B689A82DF
:1006B00007F10803184600F08FFB7A68314B9A4225
:1006C00003D07A68304B9A4202D17B693B6201E0E9
:1006D0003B693B627B689B899BB29BB21BB2002B40
:1006E0000CDA3A6A13469B0013449A001A443B689A
:1006F0001B685B00B2FBF3F3FB610BE03A6A134645
:100700009B0013449A001A443B681B689B00B2FB91
:10071000F3F3FB61FA691D4BA3FB02135B091B0199
:100720007B627B6A1B09642202FB03F3FA69D31A1A
:10073000BB617B689B899BB29BB21BB2002B0DDA1D
:10074000BB69DB0003F13202104BA3FB02135B0910
:1007500003F007037A6A13437B620CE0BB691B0159
:1007600003F13202094BA3FB02135B0903F00F03F1
:100770007A6A13437B627B6A9AB27B681A81283754
:10078000BD4680BD00100140001401401F85EB51A3
:1007900080B483B000AF78600B46FB70FB78002B11
:1007A00008D07B689B899BB243F400539AB27B6864
:1007B0009A8107E07B689B899BB223F400539AB22D
:1007C0007B689A810C37BD465DF8047B704700BF9B
:1007D00080B483B000AF78600B467B807B88C3F326
:1007E00008039AB27B689A800C37BD465DF8047B9B
:1007F000704700BF80B483B000AF786013460A46EC
:100800007A807B707B78002B08D07B689B8A9AB2B9
:100810007B8813439AB27B689A8209E07B689B8A43
:100820009AB27B88DB439BB213409AB27B689A8270
:100830000C37BD465DF8047B704700BF80B485B0BF
:1008400000AF78600B467B800023FB737B681B88BE
:100850009AB27B8813409BB2002B02D00123FB731A
:1008600001E00023FB73FB7B18461437BD465DF89F
:10087000047B704780B584B000AF786013460A46A9
:10088000FA70BB70082002F0BFFF0346BB60BB6874
:10089000FA781A70BB68BA785A70BB6800225A603E
:1008A0007B68002B01D1BB680DE07B68FB6002E038
:1008B000FB685B68FB60FB685B68002BF8D1FB683A
:1008C000BA685A607B6818461037BD4680BD00BFC5
:1008D00080B584B000AF78600B46FB707B68002B5E
:1008E00001D100231DE07B681B78FA789A420DD174
:1008F0007B685B68FB60786802F08EFFFB78F868C5
:100900001946FFF7E5FFF860FB680AE07B685A6864
:10091000FB7810461946FFF7DBFF02467B685A60FA
:100920007B6818461037BD4680BD00BF80B485B0D7
:1009300000AF78607B68002B01D100230AE07B6860
:10094000FB6002E0FB685B68FB60FB685B68002B98
:10095000F8D1FB6818461437BD465DF8047B704734
:1009600080B582B000AF134B7B60134B3B6007E058
:100970003B681A1D3A607A68111D796012681A6026
:100980003A680E4B9A42F3D30D480E494FF00002DD
:100990008842B8BF40F8042BFFF6FAAFDFF8280012
:1009A000016841F47001016000F016F80837BD4697
:1009B00080BD00BFD843000800000020540800207C
:1009C000540800205C0E002088ED00E080B400AFE9
:1009D000FEE700BF0000000080B584B000AF00F06B
:1009E00067F900F097F901F095FDB8600023FB600E
:1009F0000DE0994BFA68002123F81210FB685A1C8D
:100A0000954B002123F81210FB680233FB60FB6852
:100A1000B3F5207FEDDB914800F024FE904800F014
:100A200021FE0820012100F08FFA8E4B4FF4004286
:100A30001A608C4B01221A718A4B00229A71894BE1
:100A400002225A718848874900F062FE0420012181
:100A500000F07AFAFFF798FBFFF750FC834801217A
:100A600001F082FA824B834A1A60814B4FF00002F8
:100A70005A607F4B4FF07E529A607D4B03221A736F
:100A80007B4B03225A737A4B4FF07E521A61784B9C
:100A90004FF07E525A61764B774A9A61744B764A90
:100AA000DA61734B754A1A62714B4FF07E525A628B
:100AB0006F4B734A9A626E4B714ADA626C4B4FF01D
:100AC0007C521A636A4B6E4A5A63694B6C4A9A634A
:100AD000674B6B4ADA63664B4FF07C521A64644B87
:100AE000674A5A64624B674A9A64614B664ADA64A1
:100AF0005F4B644A1A655E4B634A5A65574800F07B
:100B0000B1FD574800F0AEFD5848022101F05AFAF5
:100B10000346002B55D05D4B1B889BB29BB25348BC
:100B2000194601F041FA5A4B1B6803F00103002BF0
:100B300042D0584B1B68184602F088FB02460B4611
:100B40001046194640A3D3E9002302F021FA0246D9
:100B50000B461046194602F007FE02464D4B1A603E
:100B60004C4B93ED007AF7EE007AB4EEE77AF1EEB3
:100B700010FA09DD474B93ED007AF7EE007A77EE35
:100B8000677A444BC3ED007A424B1B68184602F06B
:100B90005DFB02460B46104619462DA3D3E9002300
:100BA00002F0A8FB02460B461046194602F0B4FDBF
:100BB00003469AB2354B1A80354B1B685A1C344B8E
:100BC0001A60334B1A684BF680339A4204D1264B95
:100BD0004FF400425A830BE02D4B1A682E4B9A4279
:100BE00006D1214B4FF400421A83294B00221A6090
:100BF000B86801F02FFD0346FB71FB79002B09D08B
:100C0000FB792648194600F019FDFB79B8681946AA
:100C100001F050FD224B1B681846FFF787FE386035
:100C20003B68002B03D11F4B00221A706CE73B6816
:100C30001B78183B1C4A9B0013441A680C4B1A6023
:100C4000184B01221A705FE79A9999999999A93FCF
:100C50000000000000BDDF404C09002054410008A6
:100C6000584100084C0E0020000C0240003C00409F
:100C7000E808002000005C43CDCC4C3E0000C041A1
:100C8000CDCCCC3D00002041CDCC4C3F5C080020B9
:100C90005808002060080020007701006C4100081F
:100CA0005408002048090020C43F0008AFF300802A
:100CB00080B582B000AF0820012100F045F9012085
:100CC000012100F041F94FF470433B6001233B7177
:100CD0000023BB7103237B710023FB713B460B4850
:100CE000194600F015FD01233B6000233B710023F2
:100CF000BB7103237B710023FB713B4604481946FB
:100D000000F006FD0837BD4680BD00BF000C024064
:100D10000000024080B586B000AF4FF400300121E2
:100D200000F030F904233B6102233B7502237B75FD
:100D30000023BB750123FB7507F11003104819460A
:100D400000F0E6FC0E480221072200F0A5FD47F660
:100D500012233B600023BB800023FB8000233B81E8
:100D60000023BB8108237B813B4606481946FFF7D9
:100D700055FC04480121FFF70BFD1837BD4680BD27
:100D8000000002400044004080B400AFBD465DF862
:100D9000047B704780B500AF0548064900F04CFF62
:100DA0000346002B03D00248024900F09DFF80BD9E
:100DB000286002400088001080B483B000AF034672
:100DC000FB71044BFA791A600C37BD465DF8047B61
:100DD000704700BF6800474280B489B000AF7860B8
:100DE0000023BB6100237B610023FB6102233B6185
:100DF0000023FB600223BB60484B9B6803F00C039D
:100E0000BB61BB69042B07D0082B09D0002B3FD155
:100E10007B68434A1A603FE07B68424A1A603BE0C5
:100E20003E4B5B6803F480039B0DFB603B4B5B68B0
:100E300003F03F03BB60FB68002B0DD0394ABB6851
:100E4000B2FBF3F2354B596847F6C0730B409B0970
:100E500003FB02F3FB610CE0314ABB68B2FBF3F227
:100E60002E4B596847F6C0730B409B0903FB02F3F6
:100E7000FB612A4B5B6803F440331B0C01335B00BE
:100E80003B61FA693B69B2FBF3F27B681A6003E0ED
:100E90007B68234A1A6000BF204B9B6803F0F00375
:100EA000BB61BB691B09BB611F4ABB6913441B784B
:100EB000DBB27B617B681A687B69DA407B685A60C9
:100EC000164B9B6803F4E053BB61BB699B0ABB6193
:100ED000154ABB6913441B78DBB27B617B685A6897
:100EE0007B69DA407B689A600C4B9B6803F4604333
:100EF000BB61BB695B0BBB610B4ABB6913441B78CD
:100F0000DBB27B617B685A687B69DA407B68DA60B8
:100F10002437BD465DF8047B704700BF00380240AF
:100F20000024F40000127A000000002080B483B096
:100F300000AF7860034B7A681A600C37BD465DF8E5
:100F4000047B70475C01474280B483B000AF786097
:100F50000B46FB70FB78002B06D0094B084A116B3F
:100F60007A680A431A6306E0054B054A116B7A68F2
:100F7000D2430A401A630C37BD465DF8047B7047C4
:100F80000038024080B483B000AF78600B46FB703D
:100F9000FB78002B06D0094B084A116C7A680A438B
:100FA0001A6406E0054B054A116C7A68D2430A4080
:100FB0001A640C37BD465DF8047B70470038024068
:100FC00080B483B000AF78600B46FB70FB78002BD9
:100FD00006D0094B084A116A7A680A431A6206E089
:100FE000054B054A116A7A68D2430A401A620C37E7
:100FF000BD465DF8047B70470038024080B483B082
:1010000000AF78600B46FB70FB78002B06D0094BD5
:10101000084A516A7A680A435A6206E0054B054A53
:10102000516A7A68D2430A405A620C37BD465DF86D
:10103000047B70470038024080B582B000AF0346A1
:10104000FB7100BF07484021FFF7F8FB0346002B68
:10105000F8D0FB799BB203481946FFF7B9FB083774
:10106000BD4680BD0044004080B483B000AF7860CE
:101070000B46FB707B68FA781A70012318460C3710
:10108000BD465DF8047B704780B485B000AF7860E2
:1010900039600023FB600AE07B685A1C7A603A687A
:1010A000511C396012781A70FB680133FB603B6891
:1010B0001B78002BF0D1FB6818461437BD465DF84D
:1010C000047B704780B586B000AFF8607A603B6003
:1010D0000B46FB7200237B617B68013B7B603B68B6
:1010E000092B10D93A681E4BA3FB0213DB08FA7ACE
:1010F000F86811467A68FFF7E5FF78617B69FA685E
:101100001344FB6011E00DE0FB7AF8681946FFF725
:10111000ABFFFB680133FB607B6901337B617B685C
:10112000013B7B607B68002BEEDC39680C4BA3FB3A
:101130000123DA0813469B0013445B00CA1AD3B29A
:101140003033DBB2F8681946FFF78EFF03467A6941
:1011500013447B617B6918461837BD4680BD00BFCC
:10116000CDCCCCCC80B586B000AFF8607A603B6067
:101170000B46FB7200237B613B68002B03DA3B6864
:101180005B423B6101E03B683B617B68013B7B600C
:101190003B69092B21D93B68002B0DDA3A692F4BAB
:1011A000A3FB0213DB085B42FA7AF86811467A68FF
:1011B000FFF7D8FF78610BE03A69284BA3FB0213D5
:1011C000DB08FA7AF86811467A68FFF7CBFF786196
:1011D0007B69FA681344FB6026E03B68002B03DA66
:1011E0007B68013B7B600EE00DE0FB7AF8681946F6
:1011F000FFF73AFFFB680133FB607B6901337B61DA
:101200007B68013B7B607B68002BEEDC3B68002B3E
:101210000ADAF8682D21FFF727FF03467A6913449D
:101220007B61FB680133FB6039690C4BA3FB012335
:10123000DA0813469B0013445B00CA1AD3B230335A
:10124000DBB2F8681946FFF70FFF03467A691344CB
:101250007B617B6918461837BD4680BDCDCCCCCCB0
:1012600080B588B002AFF8607A600A46FA72BB7245
:1012700000237B617B68013B7B603B6A1B09002B81
:1012800012D03B6A1909FA7ABB7A0091F8681146C4
:101290007A68FFF7E5FF03467A6913447B617B694F
:1012A000FA681344FB6011E00DE0FB7AF868194618
:1012B000FFF7DAFEFB680133FB607B6901337B617A
:1012C0007B68013B7B607B68002BEEDC3B6A03F0B4
:1012D0000F03092B0BD83B6ADBB203F00F03DBB221
:1012E0003033DBB2F8681946FFF7BEFE19E0BB7A6F
:1012F000002B0BD03B6ADBB203F00F03DBB23733BA
:10130000DBB2F8681946FFF7AFFE0AE03B6ADBB2D2
:1013100003F00F03DBB25733DBB2F8681946FFF76F
:10132000A3FE7B6901337B617B6918461837BD4694
:1013300080BD00BF80B58AB002AFF860B9607A6046
:101340003B600023BB6100237B61FB68002B03D063
:10135000FB6800221A70F8E0F7E07B681B78252B09
:101360000BD0FB685A1CFA607A68511C79601278BD
:101370001A707B6901337B61E7E07B6801331B787E
:10138000252B0BD1FB685A1CFA6025221A707B684A
:1013900002337B607B6901337B61D6E02023FB77DE
:1013A0000023BB777B6801337B607B681B78302B25
:1013B00005D13023FB777B6801337B600FE00EE0C3
:1013C000BB7F1A46920013445B00DAB27B681B783D
:1013D0001344DBB2303BBB777B6801337B607B68B7
:1013E0001B782F2B03D97B681B78392BE8D9BA7F60
:1013F0007B6913441A46BB689A4205D9BB68DAB2C6
:101400007B69DBB2D31ABB777B681B78583B202BF8
:1014100000F28D8001A252F823F000BFE914000809
:101420002F1500082F1500082F1500082F1500088C
:101430002F1500082F1500082F1500082F1500087C
:101440002F1500082F15000819150008A114000811
:101450002F1500082F1500082F1500082F1500085C
:10146000A11400082F1500082F1500082F150008DB
:101470002F1500082F1500082F1500082F1500083C
:101480002F1500082F150008051500082F15000856
:10149000B71400082F1500082F150008CD140008F8
:1014A000BA7F3B68191D39601B68F97FF868FFF740
:1014B00059FEB8613EE0BA7F3B68191D39601B6870
:1014C000F97FF868FFF7FEFDB86133E0BA7F3B684B
:1014D000191D39601968FB7F0091F86819460023CF
:1014E000FFF7BEFEB86125E0BA7F3B68191D396081
:1014F0001968FB7F0091F86819460123FFF7B0FED9
:10150000B86117E03B681A1D3A601B68F868194615
:10151000FFF7BAFDB8610DE03B681A1D3A601B6821
:10152000DBB2F8681946FFF79FFDB86102E04FF0A3
:10153000FF3325E07B6801337B60BB69FA681344A5
:10154000FB607A69BB6913447B617B681B78002B65
:1015500004D07A69BB689A42FFF4FFAE7A69BB682F
:101560009A4203D2FB6800221A7008E0FB68013B34
:10157000FB60FB6800221A707B69013B7B617B6921
:1015800018462037BD4680BD80B584B000AFF860F6
:10159000B9607A60F8686421BA687B68FFF7CAFEB0
:1015A000034618461037BD4680BD00BFB0B5A6B093
:1015B00000AFF860B9607A60144B07F110041D4663
:1015C0000FCD0FC40FCD0FC42B68236007F1340378
:1015D0001846B9687A68FFF7D7FF0346632B09DD21
:1015E0000B4B1B68DB6807F110021046194600F030
:1015F0006BF8FEE707F134031846F96800F064F869
:10160000034618469837BD46B0BD00BF804100086C
:101610003804002080B582B000AF78603960064B96
:101620001B689B68184679683A68FFF7BFFF034656
:1016300018460837BD4680BD380400200FB480B579
:1016400082B000AF07F114033B6038693968FFF7D7
:10165000E1FF78607B6818460837BD46BDE88040EA
:1016600004B0704780B582B000AF7860054B1B684E
:101670009B687868194600F027F803461846083733
:10168000BD4680BD3804002080B582B000AF7860D0
:1016900039600C4B1B689A683B689A4205D0094B2D
:1016A0001B68DA683B689A4206D17B68DBB2184651
:1016B000FFF7C2FC7B6801E04FF0FF3318460837A4
:1016C000BD4680BD3804002080B584B000AF78608E
:1016D00039600023FB6012E07B681B78184639688C
:1016E000FFF7D2FF0346B3F1FF3F02D14FF0FF33C4
:1016F0000AE0FB680133FB607B6801337B607B6839
:101700001B78002BE8D1FB6818461037BD4680BD1A
:1017100080B487B000AF7860396000237B6100231C
:101720003B610023FB6000237B6176E07B69012243
:1017300002FA03F33B613B681A683B691340FB60A4
:10174000FA683B699A4265D17B681A687B695B00DD
:10175000032101FA03F3DB431A407B681A607B68BC
:101760001A683B681B7919467B695B0001FA03F331
:101770001A437B681A603B681B79012B03D03B68D6
:101780001B79022B2ED17B689A687B695B00032151
:1017900001FA03F3DB431A407B689A607B689A681E
:1017A0003B685B7919467B695B0001FA03F31A43D6
:1017B0007B689A607B685A687B699BB2012101FA59
:1017C00003F3DB431A407B685A607B685A683B68C6
:1017D0009B7919467B699BB201FA03F39BB21A43CA
:1017E0007B685A607B68DA687B699BB25B00032187
:1017F00001FA03F3DB431A407B68DA607B68DA683E
:101800003B68DB7919467B695B0001FA03F31A43F5
:101810007B68DA607B6901337B617B690F2B85D93B
:101820001C37BD465DF8047B704700BF80B483B0B1
:1018300000AF78607B684FF6FF721A607B68002209
:101840001A717B6800225A717B6800229A717B684A
:101850000022DA710C37BD465DF8047B704700BF8B
:1018600080B483B000AF78600B467B807B687A8859
:101870001A830C37BD465DF8047B704780B483B093
:1018800000AF78600B467B807B687A885A830C3780
:10189000BD465DF8047B704780B485B000AF7860CA
:1018A00013460A467A807B700023FB600023BB60EE
:1018B0007A787B8803F007039B0002FA03F3FB604E
:1018C0007B88DB089BB21A467B88DB089BB21946F3
:1018D0007B68083153F821107B8803F007039B00D5
:1018E0000F2000FA03F3DB4319407B68083243F80A
:1018F00022107B88DB089BB21A467B68083253F8BB
:101900002220FB681343BB607B88DB089BB21A462E
:101910007B680832B96843F822101437BD465DF879
:10192000047B7047ABBE00F002B800207047002A6D
:1019300000F0018010600120704706980188044A79
:10194000914240F00380043006907047FEE70000AB
:10195000ABBE000080B485B000AF78600B4B1B6855
:10196000002B02D1094B0A4A1A60084B1B68FB6026
:10197000064B1A687B681A44044B1A60FB681846C9
:101980001437BD465DF8047B704700BF680800202F
:101990005C0E002080B483B000AF78607B681B6869
:1019A00023F001027B681A607B6800221A607B6862
:1019B00000225A607B6800229A607B680022DA600D
:1019C0007B6800221A617B6821225A617A68454B44
:1019D0009A4203D1444B3D229A607EE07A68434BA1
:1019E0009A4204D1404B4FF474629A6075E07A6871
:1019F0003F4B9A4204D13C4B4FF474129A606CE016
:101A00007A683C4B9A4204D1374B4FF074629A602B
:101A100063E07A68384B9A4203D1334B374ADA6035
:101A20005BE07A68364B9A4203D12F4B354ADA6035
:101A300053E07A68344B9A4203D12B4B334ADA6035
:101A40004BE07A68324B9A4204D1274B4FF03D521B
:101A5000DA6042E07A682F4B9A4203D12E4B3D2246
:101A60009A603AE07A682D4B9A4204D12A4B4FF49F
:101A700074629A6031E07A68294B9A4204D1264B0D
:101A80004FF474129A6028E07A68264B9A4204D187
:101A9000214B4FF074629A601FE07A68224B9A42A1
:101AA00003D11D4B154ADA6017E07A681F4B9A4242
:101AB00003D1194B134ADA600FE07A681C4B9A4243
:101AC00003D1154B114ADA6007E07A68194B9A4244
:101AD00003D1114B4FF03D52DA600C37BD465DF833
:101AE000047B7047106002400060024028600240A2
:101AF0004060024058600240706002403D0000209B
:101B000088600240400F0020A060024000003D209D
:101B1000B860024010640240006402402864024041
:101B2000406402405864024070640240886402408D
:101B3000A0640240B864024080B485B000AF786011
:101B400039600023FB607B681B68FB60FA68244BEC
:101B50001340FB603B681A683B68DB681A433B68CC
:101B60005B691A433B689B691A433B68DB691A430C
:101B70003B681B6A1A433B685B6A1A433B689B6A73
:101B80001A433B685B6B1A433B689B6B1343FA68D1
:101B90001343FB607B68FA681A607B685B69FB60D3
:101BA000FB6823F00703FB603B68DA6A3B681B6B4A
:101BB0001343FA681343FB607B68FA685A613B6819
:101BC0001A697B685A603B685A687B689A603B6810
:101BD0009A687B68DA601437BD465DF8047B70470D
:101BE0003F801CF080B483B000AF78600B46FB7080
:101BF000FB78002B06D07B681B6843F001027B68F2
:101C00001A6005E07B681B6823F001027B681A609C
:101C10000C37BD465DF8047B704700BF80B483B0CD
:101C200000AF78607B685B689BB218460C37BD4696
:101C30005DF8047B704700BF80B487B000AF786068
:101C400039600023FB750023FB600023BB607A68CA
:101C5000224B9A4202D8224B3B6101E0214B3B616F
:101C60003B6823F0F02323F0C313002B0AD03B681A
:101C7000DB0A03F01E03FB607B681A68FB681340F5
:101C8000BB6004E07B685B6903F08003BB603B687A
:101C900003F00053002B03D03B695B68FB6002E05C
:101CA0003B691B68FB60FB6823F0F02323F0821381
:101CB000FB60FA683B681340002B05D0BB68002B23
:101CC00002D00123FB7501E00023FB75FB7D184664
:101CD0001C37BD465DF8047B704700BF0F640240AF
:101CE000006002400064024080B485B000AF7860BC
:101CF00039607A68104B9A4202D8104BFB6001E0C1
:101D00000F4BFB603B6803F00053002B07D03B6890
:101D100023F0F02323F08213FA68D36006E03B68D7
:101D200023F0F02323F08213FA6893601437BD4642
:101D30005DF8047B704700BF0F6402400060024002
:101D40000064024080B582B000AF78607A68174BBB
:101D50009A420AD14FF480500121FFF74FF94FF416
:101D600080500021FFF74AF91CE07A68104B9A4234
:101D70000AD14FF480400121FFF722F94FF480404F
:101D80000021FFF71DF90DE07A680A4B9A4209D14C
:101D90004FF400400121FFF713F94FF400400021F8
:101DA000FFF70EF90837BD4680BD00BF0030014087
:101DB00000380040003C004080B48BB000AF786039
:101DC000396000237B830223FB840023BB8401232F
:101DD0007B840023FB6100237B6100233B610023A4
:101DE000FB600023BB607B689B8B9BB223F47B630F
:101DF00023F00F039AB27B689A837B6802221A84CD
:101E00007B689B8B7B833B689B68022B04D1002300
:101E1000BB840223FB8471E03B689B88002B02D1CA
:101E200001237B8401E002237B844C4B9B6803F4F9
:101E30000003002B05D0494B484A926822F4000267
:101E40009A60464BD3F8842047F6C07313409B0931
:101E5000C3F30803FB60414BD3F8843003F0E04345
:101E60001B0F03F00703BB603C4B5B6803F03F03B1
:101E70003B613B4A3B69B2FBF3F3FA6802FB03F2B6
:101E8000BB68B2FBF3F37B613B68DB88B3F5007F93
:101E90000FD17B691A0A13469B0013445B001A4654
:101EA0003B689B68B2FBF3F39BB205339BB2FB61CB
:101EB00011E07B8C5B017A69B2FBF3F213469B0065
:101EC00013445B001A463B689B68B2FBF3F39BB27A
:101ED00005339BB2FB61FA69224BA3FB0213DB08BB
:101EE000FB61FB699BB203F00103BB84BB8CFA6905
:101EF000D31A5B08FB84BB8C1B02BB84FB8C012BBD
:101F000002D9FB8CFF2B03D90223FB840023BB8463
:101F10003B68DA88BB8C13439AB2FB8C13439AB2AA
:101F20007B681A843B681A883B6859883B689888A4
:101F30003B689B8903439BB20B439BB213439AB20A
:101F40007B8B13439BB243F400637B837B687A8B68
:101F50009A832C37BD465DF8047B704700380240F9
:101F600000127A00CDCCCCCC80B483B000AF7860C6
:101F70000B46FB70FB78002B08D07B689B8B9BB2D9
:101F800043F480639AB27B689A8307E07B689B8BFB
:101F90009BB223F480639AB27B689A830C37BD4668
:101FA0005DF8047B704700BF80B483B000AF7860F9
:101FB0000B467B807B687A889A810C37BD465DF83A
:101FC000047B704780B485B000AF78600B467B809F
:101FD0000023FB737B681B899AB27B8813409BB2FA
:101FE000002B02D00123FB7301E00023FB73FB7B7A
:101FF00018461437BD465DF8047B704780B582B043
:1020000000AF78607A68174B9A420AD14FF40010FB
:102010000121FEF7D5FF4FF400100021FEF7D0FF9D
:102020001CE07A68104B9A420AD14FF480000121DB
:10203000FEF7C6FF4FF480000021FEF7C1FF0DE060
:102040007A680A4B9A4209D14FF400000121FEF749
:10205000B7FF4FF400000021FEF7B2FF0837BD467E
:1020600080BD00BF0054004000580040005C0040AC
:1020700080B58AB000AF786039600023FB8400230C
:102080007B840423BB84574BFB617B689B88FB8468
:10209000FB8C23F03F03FB8407F10C031846FEF78B
:1020A0009BFE7B69FB61FA694F4BA3FB02139B0C00
:1020B0007B84FA8C7B8C1343FB847B68FA8C9A803C
:1020C0007B681B889BB223F001039AB27B681A805D
:1020D0000023FB843B681A68444B9A4215D83B683E
:1020E0001B685B00FA69B2FBF3F3BB84BB8C032B68
:1020F00001D80423BB84FA8CBB8C1343FB847B8CF8
:1021000001339AB27B681A8440E03B68DA884BF668
:10211000FF739A4209D13B681A6813465B00134467
:10212000FA69B2FBF3F3BB840EE03B681A6813460E
:102130009B0013449A001344FA69B2FBF3F3BB8487
:10214000BB8C43F48043BB84BB8CC3F30B03002BD9
:1021500003D1BB8C43F00103BB84BA8CFB8C1343CB
:102160009BB26FEA43436FEA5343FB847B8C4FF48B
:10217000967202FB03F31E4A82FB03129211DB17D5
:10218000D31A9BB201339AB27B681A847B68FA8CAB
:102190009A837B681B889BB243F001039AB27B68E9
:1021A0001A807B681B88FB84FB8C23F4816323F0FB
:1021B0000203FB843B689A883B685B8913439AB2AD
:1021C000FB8C1343FB847B68FA8C1A803B689A89EA
:1021D0003B681B8913439AB27B681A812837BD4636
:1021E00080BD00BF00127A0083DE1B43A086010081
:1021F000D34D621080B483B000AF78600B46FB70A3
:10220000FB78002B08D07B681B889BB243F001034E
:102210009AB27B681A8007E07B681B889BB223F028
:1022200001039AB27B681A800C37BD465DF8047BC7
:10223000704700BF80B483B000AF78600B46FB707E
:10224000FB78002B08D07B681B889BB243F480731B
:102250009AB27B681A8007E07B681B889BB223F4E4
:1022600080739AB27B681A800C37BD465DF8047B98
:10227000704700BF80B483B000AF78600B46FB703E
:10228000FB78002B08D07B681B889BB243F400735B
:102290009AB27B681A8007E07B681B889BB223F4A4
:1022A00000739AB27B681A800C37BD465DF8047BD8
:1022B000704700BF80B483B000AF786013460A4611
:1022C000FA70BB70BB78002B04D0FB7843F001039D
:1022D000FB7003E0FB7823F00103FB70FB789AB2FC
:1022E0007B681A820C37BD465DF8047B704700BFDF
:1022F00080B483B000AF78600B46FB70FB78002B96
:1023000008D07B681B889BB243F480639AB27B68D9
:102310001A8007E07B681B889BB223F480639AB223
:102320007B681A800C37BD465DF8047B704700BFA0
:1023300080B483B000AF78600B46FB70FB789AB234
:102340007B681A820C37BD465DF8047B704700BF7E
:1023500080B483B000AF78607B681B8A9BB2DBB22D
:1023600018460C37BD465DF8047B704780B487B0D3
:1023700000AF7860396000233B610023FB600023DD
:10238000BB600023FB757B689B8A9BB2FB607B680C
:102390001B8B9BB2BB60BB681B04BB60FA68BB684D
:1023A000134323F07F433B613A693B681A403B6823
:1023B0009A4202D10123FB7501E00023FB75FB7DEE
:1023C00018461C37BD465DF8047B704780B487B063
:1023D00000AF786039600023FB7500233B61002368
:1023E000FB607B68FB603B681B0F3B613B6823F035
:1023F0007F433B603B69002B03D0FB681433FB60D9
:1024000005E03B681B0C3B60FB681833FB60FB6816
:102410001A683B681340002B02D00123FB7501E0D2
:102420000023FB75FB7D18461C37BD465DF8047B19
:10243000704700BF80B483B000AF7860054A7B6806
:1024400043F0BF6343F40033D3600C37BD465DF8FF
:10245000047B704700ED00E080B485B000AF786089
:102460000023FB730023BB730F237B737B68DB7834
:10247000002B37D0254BDB68DB4303F4E0631B0AFA
:10248000FB73FB7BC3F10403BB737A7BFB7B42FAD8
:1024900003F37B737B685B781A46BB7B02FA03F31A
:1024A000FB737B689A787B7B1340DAB2FB7B134328
:1024B000FB73FB7B1B01FB73154A7B681B78134482
:1024C000FA7B83F80023124B7A6812785209D2B251
:1024D0007968097801F01F01012000FA01F143F841
:1024E00022100EE00A4B7A6812785209D2B279684B
:1024F000097801F01F01012000FA01F1203243F8B0
:1025000022101437BD465DF8047B704700ED00E0F3
:1025100000E100E080B596B000AF4FF480200121CB
:10252000FEF730FD4FF400100121FEF70DFD4FF4D2
:1025300040733B65022387F85430022387F85530F7
:10254000002387F85630012387F8573007F15003EE
:102550003B481946FFF7DCF8394808210722FFF706
:102560009BF9374809210722FFF796F947F612230E
:102570003B640023A7F844300023A7F8463000232B
:10258000A7F848300023A7F84C300423A7F84A30B6
:1025900007F140032B481946FEF740F80C2387F853
:1025A0003C30002387F83D30002387F83E3001237C
:1025B00087F83F3007F13C031846FFF74DFF4FF413
:1025C000A060FFF737FF1F480121FEF7E1F81E4822
:1025D000FFF7E0F94FF000633B600023FB601B4B0B
:1025E000BB6040233B611A4B7B6000237B614FF44F
:1025F0008063BB610023FB6100233B624FF4807367
:102600007B624FF40033BB620023FB6203233B6316
:1026100000237B630023BB633B460B481946FFF74F
:102620008BFA084840210122FEF7E4F80648012110
:10263000FFF7D8FA054B18465837BD4680BD00BF96
:10264000000C024000480040286002406C08002056
:102650000448004080B584B000AF78600023FB815F
:102660001248FFF7DBFA0346BB81114B1B88BA897E
:102670009A4214D00E4B1B88BA899A4205D20C4B51
:102680001A88BB89D31AFB8106E0094B1A88BB89DB
:10269000D31A9BB24033FB81054BBA891A80FB8960
:1026A000DBB218461037BD4680BD00BF286002402F
:1026B0004004002080B584B000AF78600B46FB700A
:1026C00047E2AC4B1B787A6813441B78FB73AA4B28
:1026D0001B78292B00F23D8201A252F823F000BFA3
:1026E00089270008532B0008532B0008532B0008A0
:1026F000532B0008532B0008532B0008532B0008C2
:10270000532B0008532B000875280008B528000833
:10271000532B0008532B0008532B0008532B0008A1
:10272000532B0008532B0008532B0008532B000891
:102730004F290008AF290008532B0008532B00082D
:10274000532B0008532B0008532B0008532B000871
:10275000532B0008532B0008092A0008492A0008B7
:10276000532B0008532B0008532B0008532B000851
:10277000532B0008532B0008532B0008532B000841
:102780009D2A0008DD2A0008FB7B03F0F003902B54
:1027900009D0902B02DC802B1AD058E0B02B2CD023
:1027A000E02B3FD053E0744B0A221A70714B1B7818
:1027B0003F2B03D16F4B00221A7005E06D4B1B7845
:1027C0000133DAB26B4B1A70FB78013BFB7050E0BF
:1027D000694B14221A70674B1B783F2B03D1654B52
:1027E00000221A7005E0634B1B780133DAB2614BAB
:1027F0001A70FB78013BFB703BE05F4B1E221A70A6
:102800005C4B1B783F2B03D15A4B00221A7005E01A
:10281000584B1B780133DAB2564B1A70FB78013BE8
:10282000FB7026E0544B28221A70524B1B783F2B2A
:1028300003D1504B00221A7005E04E4B1B78013338
:10284000DAB24C4B1A70FB78013BFB7011E0494B3C
:102850001B783F2B03D1474B00221A7005E0454BF4
:102860001B780133DAB2434B1A70FB78013BFB70E3
:1028700000BF6EE1FB7B5BB2002B03DA3E4B002214
:102880001A7066E13D4BFA7B1A703A4B1B783F2B6E
:1028900003D1384B00221A7005E0364B1B78013308
:1028A000DAB2344B1A70FB78013BFB70324B0B22CF
:1028B0001A704EE1324BFA7B1A702E4B1B783F2B6D
:1028C00003D12C4B00221A7005E02A4B1B780133F0
:1028D000DAB2284B1A70FB78013BFB70264B0A22B8
:1028E0001A70274B1B78002B1BD0244B1B781A46E1
:1028F000234B1B78234811461A46FEF79FFE224BB6
:1029000019681E4B1A781E4B1B78084611461A464A
:10291000FDF7B0FF02461C4B1A601C4B01221A70D7
:1029200017E1164B1B781A46154B1B7818481146B1
:102930001A46FEF783FE144B1A68104B1B7810469C
:102940001946FDF7C5FF02460F4B1A6001E1FB7BFC
:102950005BB2002B03DA084B00221A70F9E0074B38
:10296000FA7B1A70034B1B783F2B13D1014B0022CB
:102970001A7015E0AC080020AD080020AE08002059
:10298000AF080020A443000854080020400900209C
:10299000B8430008724B1B780133DAB2704B1A70DF
:1029A000FB78013BFB706F4B15221A70D1E06E4B28
:1029B000FA7B1A706A4B1B783F2B03D1684B0022BD
:1029C0001A7005E0664B1B780133DAB2644B1A705B
:1029D000FB78013BFB70634B14221A70634B1B782E
:1029E0001A46614B1B78624811461A46FEF726FECE
:1029F000604B1A685D4B1B7810461946FDF768FF5F
:102A000002465C4B1A60A4E0FB7B5BB2002B03DA4E
:102A1000544B00221A709CE0574BFA7B1A70504BB3
:102A20001B783F2B03D14E4B00221A7005E04C4B14
:102A30001B780133DAB24A4B1A70FB78013BFB700A
:102A4000484B1F221A7084E04C4BFA7B1A70444B9F
:102A50001B783F2B03D1424B00221A7005E0404BFC
:102A60001B780133DAB23E4B1A70FB78013BFB70E6
:102A70003C4B1E221A70404B1B781A463F4B1B786A
:102A80003F4811461A46FEF7D9FD3B4B1A783B4B9F
:102A90001B781046194600F07FF85AE0FB7B5BB2CA
:102AA000002B03DA2F4B00221A7052E0354BFA7BD1
:102AB0001A702B4B1B783F2B03D1294B00221A7025
:102AC00005E0274B1B780133DAB2254B1A70FB78EF
:102AD000013BFB70234B29221A703AE02A4BFA7B08
:102AE0001A701F4B1B783F2B03D11D4B00221A700D
:102AF00005E01B4B1B780133DAB2194B1A70FB78D7
:102B0000013BFB70204B1B78BB81BB89DB01BB8188
:102B10001C4B1B781A46BB891343BB811B4BD3ED5F
:102B2000007A37EEA77ABB8907EE903AF8EE676A2B
:102B3000DFED177A76EEE77A27EE277ADFED157A62
:102B4000C7EE277A114BC3ED017A064B28221A7083
:102B500000BFFB78002B7FF4B4AD1037BD4680BDBD
:102B6000AC080020AD080020AF080020AE0800200F
:102B7000B843000854080020B0080020B108002025
:102B8000CC430008B2080020B3080020E808002069
:102B9000000000460000404780B483B000AF02460A
:102BA0000B46FA71BB71FB79203B392B00F2D981BE
:102BB00001A252F823F000BFA12C0008C52C000888
:102BC000632F0008632F0008632F0008632F00089D
:102BD000632F0008632F0008632F0008632F00088D
:102BE000632F0008632F0008632F0008632F00087D
:102BF000632F0008632F0008BF2D0008E12D000897
:102C0000032E00081D2E00083F2E0008612E00082C
:102C1000832E00089D2E0008592D0008732D0008F2
:102C20008D2D00089D2D0008BF2E0008E12E000804
:102C3000FB2E00081D2F0008632F0008632F0008DB
:102C40003F2F0008632F0008632F0008632F000840
:102C5000632F0008632F0008632F0008632F00080C
:102C6000632F0008632F0008632F0008632F0008FC
:102C7000632F0008632F0008632F0008632F0008EC
:102C8000632F0008632F0008632F0008632F0008DC
:102C9000632F0008632F0008E92C0008212D00088D
:102CA000BB797F2B0DD1B14B1B7B0133DAB2AF4B1C
:102CB0001A73AE4B1B7B052B03D1AC4B00221A734E
:102CC0004FE14EE1BB797F2B0DD1A84B5B7B0133EC
:102CD000DAB2A64B5A73A54B5B7B052B03D1A34BF2
:102CE00000225A733DE13CE1BB797F2B17D19F4B0A
:102CF000D3ED047A77EEA77A9C4BC3ED047A9B4B15
:102D000093ED047AF1EE007AB4EEE77AF1EE10FA80
:102D100000DA26E1954B4FF07C521A6121E120E167
:102D2000BB797F2B17D1914BD3ED057A77EEA77A3C
:102D30008E4BC3ED057A8D4B93ED057AF1EE007A5B
:102D4000B4EEE77AF1EE10FA00DA0AE1874B4FF0C1
:102D50007C525A6105E104E1BB7907EE903AB8EE86
:102D6000677ADFED837AC7EE277A804BC3ED067A68
:102D7000F7E0BB7907EE903AB8EE677ADFED7C7A40
:102D8000C7EE277A794BC3ED077AEAE0BB79794A37
:102D90009B0013441A68754B1A62E2E0BB7907EE98
:102DA000903AB8EE677AF1EE007A27EE277ADFEDF7
:102DB000707AC7EE277A6D4BC3ED097AD1E0BB7903
:102DC00007EE903AB8EE677ADFED697A87EE277AF8
:102DD000DFED697A77EE277A644BC3ED0A7AC0E0BB
:102DE000BB7907EE903AB8EE677ADFED617A87EE4D
:102DF000277ADFED617A77EE277A5C4BC3ED0B7AA9
:102E0000AFE0BB7907EE903AB8EE677ADFED587A1B
:102E1000C7EE277A554BC3ED0C7AA2E0BB7907EEDB
:102E2000903AB8EE677ADFED527A87EE277ADFEDD7
:102E3000527A77EE277A4D4BC3ED0D7A91E0BB794C
:102E400007EE903AB8EE677ADFED497A87EE277A97
:102E5000DFED497A77EE277A444BC3ED0E7A80E0B6
:102E6000BB7907EE903AB8EE677ADFED417A87EEEC
:102E7000277ADFED417A77EE277A3C4BC3ED0F7A64
:102E80006FE0BB7907EE903AB8EE677ADFED387AFB
:102E9000C7EE277A354BC3ED107A62E0BB7907EEB7
:102EA000903AB8EE677ADFED327A87EE277ADFED77
:102EB000327A77EE277A2D4BC3ED117A51E0BB7948
:102EC00007EE903AB8EE677AF2EE047A27EE277AA8
:102ED000DFED277AC7EE277A244BC3ED127A40E064
:102EE000BB7907EE903AB8EE677ADFED217AC7EE4C
:102EF000277A1E4BC3ED137A33E0BB7907EE903A85
:102F0000B8EE677AF2EE047A27EE277ADFED187AC8
:102F1000C7EE277A154BC3ED147A22E0BB7907EE92
:102F2000903AB8EE677ADFED157A27EE277ADFED73
:102F3000107AC7EE277A0D4BC3ED157A11E0BB79F5
:102F4000403B07EE903AB8EEE77ADFED0D7A27EED8
:102F5000277AF7EE007A77EE277A044BC3ED027AF0
:102F600000BF0C37BD465DF8047B7047E8080020C1
:102F70000000FE42A44100086F12833ACDCCCC3D44
:102F800017B7D13981F0004102E000BF83F0004360
:102F900030B54FEA41044FEA430594EA050F08BFF4
:102FA00090EA020F1FBF54EA000C55EA020C7FEAB8
:102FB000645C7FEA655C00F0E2804FEA5454D4EB35
:102FC0005555B8BF6D420CDD2C4480EA020281EAFF
:102FD000030382EA000083EA010180EA020281EA37
:102FE0000303362D88BF30BD11F0004F4FEA013189
:102FF0004FF4801C4CEA113102D0404261EB410198
:1030000013F0004F4FEA03334CEA133302D052421D
:1030100063EB430394EA050F00F0A780A4F10104D9
:10302000D5F1200E0DDB02FA0EFC22FA05F2801813
:1030300041F1000103FA0EF2801843FA05F35941F9
:103040000EE0A5F120050EF1200E012A03FA0EFC78
:1030500028BF4CF0020C43FA05F3C01851EBE371A2
:1030600001F0004507D54FF0000EDCF1000C7EEBBF
:1030700000006EEB0101B1F5801F1BD3B1F5001FFD
:103080000CD349085FEA30004FEA3C0C04F101041C
:103090004FEA445212F5800F80F09A80BCF1004F45
:1030A00008BF5FEA500C50F1000041EB045141EAC7
:1030B000050130BD5FEA4C0C404141EB010111F4C8
:1030C000801FA4F10104E9D191F0000F04BF014673
:1030D0000020B1FA81F308BF2033A3F10B03B3F151
:1030E00020020CDA0C3208DD02F1140CC2F10C02E1
:1030F00001FA0CF021FA02F10CE002F11402D8BF3F
:10310000C2F1200C01FA02F120FA0CFCDCBF41EA0A
:103110000C019040E41AA2BF01EB0451294330BDD9
:103120006FEA04041F3C1CDA0C340EDC04F11404B6
:10313000C4F1200220FA04F001FA02F340EA03008D
:1031400021FA04F345EA030130BDC4F10C04C4F1D3
:10315000200220FA02F001FA04F340EA03002946B3
:1031600030BD21FA04F0294630BD94F0000F83F4FD
:10317000801306BF81F480110134013D4EE77FEAE0
:10318000645C18BF7FEA655C29D094EA050F08BF2C
:1031900090EA020F05D054EA000C04BF194610460D
:1031A00030BD91EA030F1EBF0021002030BD5FEA51
:1031B000545C05D14000494128BF41F0004130BD79
:1031C00014F580043CBF01F5801130BD01F00045CD
:1031D00045F0FE4141F470014FF0000030BD7FEA40
:1031E000645C1ABF194610467FEA655C1CBF0B463B
:1031F000024650EA013406BF52EA033591EA030F52
:1032000041F4002130BD00BF90F0000F04BF002149
:10321000704730B54FF4806404F132044FF000057C
:103220004FF0000150E700BF90F0000F04BF0021F5
:10323000704730B54FF4806404F1320410F000455B
:1032400048BF40424FF000013EE700BF42004FEA56
:10325000E2014FEA31014FEA02701FBF12F07F43D3
:1032600093F07F4F81F06051704792F0000F14BFD0
:1032700093F07F4F704730B54FF4607401F0004514
:1032800021F0004120E700BF50EA010208BF70476B
:1032900030B54FF000050AE050EA010208BF704760
:1032A00030B511F0004502D5404261EB41014FF4C9
:1032B000806404F132045FEA915C3FF4DCAE4FF0CD
:1032C00003025FEADC0C18BF03325FEADC0C18BFB4
:1032D000033202EBDC02C2F1200300FA03FC20FA05
:1032E00002F001FA03FE40EA0E0021FA02F1144452
:1032F000C1E600BF70B54FF0FF0C4CF4E06C1CEA67
:1033000011541DBF1CEA135594EA0C0F95EA0C0FDB
:1033100000F0DEF82C4481EA030621EA4C5123EA4E
:103320004C5350EA013518BF52EA033541F480117D
:1033300043F4801338D0A0FB02CE4FF00005E1FB30
:1033400002E506F00042E0FB03E54FF00006E1FB7A
:1033500003569CF0000F18BF4EF0010EA4F1FF04BD
:10336000B6F5007F64F5407404D25FEA4E0E6D41FD
:1033700046EB060642EAC62141EA55514FEAC5200E
:1033800040EA5E504FEACE2EB4F1FD0C88BFBCF58A
:10339000E06F1ED8BEF1004F08BF5FEA500E50F13B
:1033A000000041EB045170BD06F0004646EA010101
:1033B00040EA020081EA0301B4EB5C04C2BFD4EB33
:1033C0000C0541EA045170BD41F480114FF0000E2C
:1033D000013C00F3AB8014F1360FDEBF002001F09A
:1033E000004170BDC4F10004203C35DA0C341BDC14
:1033F00004F11404C4F1200500FA05F320FA04F0E6
:1034000001FA05F240EA020001F0004221F0004119
:1034100010EBD37021FA04F642EB06015EEA430E8C
:1034200008BF20EAD37070BDC4F10C04C4F12005BC
:1034300000FA04F320FA05F001FA04F240EA02006F
:1034400001F0004110EBD37041F100015EEA430E40
:1034500008BF20EAD37070BDC4F1200500FA05F260
:103460004EEA020E20FA04F301FA05F243EA0203DF
:1034700021FA04F001F0004121FA04F220EA0200EE
:1034800000EBD3705EEA430E08BF20EAD37070BD34
:1034900094F0000F0FD101F00046400041EB010114
:1034A00011F4801F08BF013CF7D041EA060195F0F6
:1034B000000F18BF704703F00046520043EB0303B0
:1034C00013F4801F08BF013DF7D043EA060370479D
:1034D00094EA0C0F0CEA135518BF95EA0C0F0CD0A8
:1034E00050EA410618BF52EA4306D1D181EA0301EE
:1034F00001F000414FF0000070BD50EA410606BFE8
:103500001046194652EA430619D094EA0C0F02D12C
:1035100050EA013613D195EA0C0F05D152EA033671
:103520001CBF104619460AD181EA030101F000418F
:1035300041F0FE4141F470014FF0000070BD41F0D8
:10354000FE4141F4780170BD70B54FF0FF0C4CF4B2
:10355000E06C1CEA11541DBF1CEA135594EA0C0FD1
:1035600095EA0C0F00F0A7F8A4EB050481EA030E1E
:1035700052EA03354FEA013100F088804FEA033305
:103580004FF0805545EA131343EA12634FEA0222D3
:1035900045EA111545EA10654FEA00260EF0004194
:1035A0009D4208BF964244F1FD0404F5407402D2E6
:1035B0005B084FEA3202B61A65EB03055B084FEA77
:1035C00032024FF480104FF4002CB6EB020E75EB74
:1035D000030E22BFB61A754640EA0C005B084FEA9C
:1035E0003202B6EB020E75EB030E22BFB61A754619
:1035F00040EA5C005B084FEA3202B6EB020E75EB64
:10360000030E22BFB61A754640EA9C005B084FEADB
:103610003202B6EB020E75EB030E22BFB61A7546E8
:1036200040EADC0055EA060E18D04FEA051545EAD7
:1036300016754FEA06164FEAC30343EA52734FEA80
:10364000C2025FEA1C1CC0D111F4801F0BD141EAF9
:1036500000014FF000004FF0004CB6E711F4801F5E
:1036600004BF01430020B4F1FD0C88BFBCF5E06F3E
:103670003FF6AFAEB5EB030C04BFB6EB020C5FEA4E
:10368000500C50F1000041EB045170BD0EF0004EA3
:103690004EEA113114EB5C04C2BFD4EB0C0541EAD5
:1036A000045170BD41F480114FF0000E013C90E6D2
:1036B00045EA060E8DE60CEA135594EA0C0F08BF96
:1036C00095EA0C0F3FF43BAF94EA0C0F0AD150EA95
:1036D00001347FF434AF95EA0C0F7FF425AF104628
:1036E00019462CE795EA0C0F06D152EA03353FF450
:1036F000FDAE1046194622E750EA410618BF52EACD
:1037000043067FF4C5AE50EA41047FF40DAF52EAA0
:1037100043057FF4EBAE12E74FEA410212F50012C7
:1037200015D211D56FF47873B3EB625212D94FEA08
:10373000C12343F0004343EA505311F0004F23FAF2
:1037400002F018BF404270474FF00000704750EA47
:10375000013005D111F0004008BF6FF00040704704
:103760004FF00000704700BF4FEA4102B2F1E04362
:1037700024BFB3F5001CDCF1FE5C0DD901F0004C58
:103780004FEAC0024CEA5070B2F1004F40EB8300A8
:1037900008BF20F00100704711F0804F21D113F1D4
:1037A0003872BCBF01F00040704741F480114FEA0D
:1037B0005252C2F11802C2F1200C10FA0CF320FA96
:1037C00002F018BF40F001004FEAC1234FEAD323B3
:1037D00003FA0CFC40EA0C0023FA02F34FEA43031D
:1037E000CCE77FEA625307D150EA01331EBF4FF0A6
:1037F000FE4040F44000704701F0004040F0FE40C1
:1038000040F40000704700BF024B0146186800F00A
:103810000BB800BF38040020024B0146186800F0C6
:1038200003BB00BF380400202DE9F04F01F10B0568
:10383000162D83B0064627D935F0070527D4A942AF
:1038400025D8304600F08CFAB5F5FC7F26D2C14F62
:103850004FEAD50C07EBCC03DC689C4200F0D28128
:103860006368E268A16823F00303234430465D687F
:10387000CA6045F0010591605D6000F073FA08349C
:10388000204603B0BDE8F08F1025A942D9D9002405
:103890000C232046336003B0BDE8F08F5FEA552C5F
:1038A00000F08A80BCF1040F00F260814FEA951CA1
:1038B0000CF1380C4FEA4C01A64F07EB8101CC68A4
:1038C000A14205D10CE0002B7ADAE468A14207D0CE
:1038D000626822F00302531B0F2BF4DD0CF1FF3C56
:1038E0000CF1010C9B4B3C6903F1080E744500F090
:1038F0007E81616821F003014A1B0F2A00F3648175
:10390000002AC3F814E0C3F810E06ADAB1F5007FCA
:1039100080F03A81C90803EBC1004FEAA1085A6858
:103920008168A1604FF0010909FA08F848EA02022B
:10393000E0605A608460CC604FEAAC03012098409C
:1039400090425BD8024206D12CF0030C40000242A8
:103950000CF1040CFAD007EBCC084446E146E368CE
:103960009C4207D145E1002A80F25681DB689C42E7
:1039700000F03F81596821F003014A1B0F2AF2DD54
:103980001C46D3F80CC054F8088F591945F00109AA
:1039900042F00105C3F804903046C8F80CC0CCF8DA
:1039A000088079613961C1F80CE0C1F808E04D6028
:1039B0008A5000F0D7F963E77E214FF03F0C7BE798
:1039C0002244E3685068A16840F00105CB603046AE
:1039D0009960556000F0C6F90834204603B0BDE890
:1039E000F08F214430464B6843F001034B6000F0F8
:1039F000B9F90834204603B0BDE8F08FBC686368AD
:103A000023F00309A94504D3C5EB09030F2B00F3E9
:103A10009180514B514A19681368013305EB010A33
:103A200004EB090B00F061810AF5805A0AF10F0AD4
:103A30002AF47F6A2AF00F0A30465146019200F0BC
:103A400093F9B0F1FF3F8046019A00F00081834571
:103A500000F2FA80DFF810C1DCF80030C3455344AF
:103A6000CCF8003000F04A8112683C4901321BBF9B
:103A7000CBEB080B5B44C1F80080CCF8003018F0A9
:103A8000070300F01381C3F10802C3F5805390448B
:103A90000833C244CAF30B0ACAEB030A5146304644
:103AA000CDF804C000F060F9431CDDF804C000F05C
:103AB0003581C8EB0002524442F00102DCF80030CC
:103AC000C7F808805344BC42C8F80420CCF8003042
:103AD000DFF894A015D0B9F10F0F40F2EA806168C9
:103AE000A9F10C0222F0070201F0010EA118052035
:103AF00042EA0E0E0F2AC4F804E04860886000F223
:103B00001181174ABC6811688B4288BF1360154A3F
:103B100011688B4288BF1360626822F003029542ED
:103B2000C5EB020301D80F2B04DC304600F01AF974
:103B30000024A5E6621943F0010345F00105656024
:103B40003046BA60536000F00DF90834204603B0E7
:103B5000BDE8F08F44040020BC080020500800207D
:103B6000B8080020B4080020C0080020BCF1140FE1
:103B700061D9BCF1540F00F28F804FEA153C0CF173
:103B80006E0C4FEA4C0197E64B0A042B58D9142BC4
:103B900000F2AE8003F15B02500007EB8000DFF81B
:103BA000BC818368834200F08A805A6822F0030255
:103BB000914202D29B689842F7D1D9687A68E16055
:103BC000A3608C60DC60B7E6611942F0010745F044
:103BD00001056560304659611961C1F80CE0C1F812
:103BE00008E04F608A50083400F0BCF848E65A6894
:103BF000A2E609F1010919F0030F04F108047FF4AA
:103C0000AEAE2DE004F108036469A34208BF0CF1D5
:103C1000020C3FF467AE23E619441C464868DB6893
:103C200054F8082F40F001054D603046D3609A608B
:103C300000F098F824E60CF15B0C4FEA4C013BE6EF
:103C40008A0938325000A8E7BC423FF403AFBC6891
:103C5000626822F0030262E7D8F8008098457BD1C1
:103C60001CF0030FA8F108030CF1FF3CF4D17B68B2
:103C700023EA00037B60400098423FF6BFAE002875
:103C80003FF4BCAE0342CC467FF465AE4000034235
:103C90000CF1040CFAD05EE6BCF5AA7F1AD84FEA04
:103CA000D53C0CF1770C4FEA4C0105E64FF48053FC
:103CB000EFE60123C8F80430444600222FE79110B4
:103CC0000120D8F8042000FA01F10A43C8F80420C2
:103CD000194674E740F254539C451BD84FEA954C63
:103CE0000CF17C0C4FEA4C01E6E50AF1100AA3E660
:103CF000542B1FD80A0B6E3250004EE7CBF30B014A
:103D000000297FF4B1AE0AEB0901BA6841F0010164
:103D10005160F6E6FC214FF07E0CCDE501224FF01C
:103D2000000ACBE604F10801304600F07DF8DAF82D
:103D30000030E6E6B3F5AA7F03D8CA0B773250000D
:103D40002BE740F25452934203D88A0C7C32500045
:103D500023E7FC207E2220E77B688CE744040020D8
:103D6000704700BF704700BF38B5074C00230546B9
:103D700008462360FDF7EEFD431C00D038BD2368E4
:103D8000002BFBD02B6038BD580E0020F8B5234D1A
:103D90000F460446FFF7E4FFAB685E6826F00306B3
:103DA000F11B01F6EF7121F47F6121F00F01A1F504
:103DB0008057B7F5805F07DB20460021FFF7D4FF6F
:103DC000AB683344984204D02046FFF7CBFF002075
:103DD000F8BD20467942FFF7C7FF01300DD0104BE8
:103DE000AA681968F61B46F001062046C91B5660F2
:103DF0001960FFF7B7FF0120F8BD20460021FFF74B
:103E0000B3FFAB68C21A0F2ADEDD064D04492D68E8
:103E100042F00102401B5A600860D5E744040020CC
:103E2000C0080020500800202DE9F0410D4606464C
:103E3000002955D0FFF794FF55F8041CDFF874C132
:103E400021F00103A5F10804E218DCF80800576826
:103E5000904227F0030769D011F00101576032D07A
:103E60000021D0194068C00706D43B44906800295F
:103E70004ED0D268C260906043F001026260E350AD
:103E8000E1B9B3F5007F2DD35A0A042A6AD89809FC
:103E9000383041000CEB810C4649DCF808206245C3
:103EA00066D0516821F003018B4202D2926894459A
:103EB000F7D1D368E360A2609C60D4603046BDE86F
:103EC000F041FFF74FBF55F8085C641B0CF1080880
:103ED000A06840452B4443D0E568C560A860C0E7B2
:103EE000BDE8F081DB080CEBC3020125DCF804001F
:103EF0009168A1609B1005FA03F31843E260CCF8C7
:103F0000040094603046CC60BDE8F041FFF72ABF62
:103F1000294DA842ADD143F00102CCF81440CCF8B1
:103F20001040E060A0606260E350C7E71F44CB0729
:103F300007D455F8083CE41A1F44A268E368D3602C
:103F40009A601E4B1B6847F001029F426260CCF8EA
:103F50000840B3D31A4B30461968FFF717FFADE797
:103F600001217EE7142A0CD802F15B00410091E7A1
:103F70004B688010012505FA00F003434B6013469F
:103F800098E7542A03D8180B6E30410082E7B2F547
:103F9000AA7F03D8D80B773041007BE740F2545119
:103FA0008A4203D8980C7C30410073E7FC217E20C4
:103FB00070E700BF440400204C0400204C0800209F
:103FC000BC080020CDCC82415C8F8A41CDCC92418F
:103FD0009A999B41CDCCA441D7A3AE41C3F5B8413A
:103FE0000000C44114AECF410000DC41B81EE941DD
:103FF000C3F5F641CDCC02429A990A420AD7124241
:104000005C8F1B42CDCC24429A992E42000039424B
:1040100000004442D7A34F4200005C427B14694237
:10402000C3F57642ECD182429A998A420AD79242EB
:104030005C8F9B42ECD1A442B89EAE420000B942D4
:104040000000C442F6A8CF420000DC427B14E942E3
:10405000A4F0F6425CCF02430A970A437BD4124392
:104060005C8F1B435CCF2443299C2E4300003943C3
:104070000000444366A64F4300005C437B14694341
:10408000A4F07643A4D082430A978A437BD4924318
:10409000A4909B43A4D0A443719DAE43B8FEB84303
:1040A0000000C44366A6CF430000DC437B14E94311
:1040B000A4F0F64300D00244AE970A441FD5124440
:1040C00000901B44A4D02444719D2E445CFF3844CE
:1040D0005CFF43440AA74F4400005C441F15694439
:1040E00048F1764400D082445C978A441FD59244BC
:1040F00052909B4452D0A4441F9DAE445CFFB844F0
:104100005CFFC3440AA7CF440000DC441F15E94408
:10411000F6F0F64400D002455C970A451FD51245DB
:1041200052901B4552D02445489D2E455CFF384592
:104130005CFF43450AA74F4500005C45F6146945FE
:104140001FF1764514D082455C978A451FD592456C
:104150003D909B450A000000496E697420746572A9
:104160006D696E6174656420000000006279746599
:10417000732061727269766564203A2025640A00B2
:10418000737464696F2E633A20696E63726561733C
:1041900065204D41585F535452494E475F53495A29
:1041A000450A0D000000803FB03D833F0490863FEC
:1041B000F9F7893F36768D3F0F0B913FD8B6943F84
:1041C000E17A983FD6569C3F064CA03F185BA43F2F
:1041D0000E84A83F36C8AC3FE527B13F16A4B53FD3
:1041E0001D3DBA3FF5F3BE3F9BC9C33F62BEC83F0A
:1041F00046D3CD3F4209D33FFE60D83F23DBDD3FAE
:10420000FF78E33F3A3BE93FD122EF3F6A30F53F89
:104210005665FB3F48E1004089240440EE7C07409E
:10422000F2EA0A403F6F0E40520A1240D3BC1540DA
:1042300040871940166A1D4051662140467C254042
:10424000C5AC29404DF82D40D95F3240BDE3364022
:10425000F5843B405244404053224540C91F4A40E8
:10426000B03D4F40D97C5440ECDD5940BB615F40CC
:104270006C096540D0D56A40B9C7704022E07640ED
:1042800008207D4033C48140300D8540666B8840F6
:104290008FDF8B40016A8F40630B93405DC4964073
:1042A0006C959A40397F9E406B82A240959FA640B4
:1042B00073D7AA40992AAF40C499B340AF25B840FC
:1042C00018CFBC40BC96C140567DC640A583CB40AC
:1042D0008FAAD040D0F2D540645DDB4007EBE040D0
:1042E000A29CE6402E73EC407E6FF240A392F84011
:1042F00098DDFE40A2A8024166F70541965B0941A0
:10430000C5D50C4171661041410E1441C8CD17410D
:104310008FA51B413E961F417BA02341E5C4274149
:1043200023042C41F25E3041EFD53441E26939413A
:104330007C1B3E417BEB4241BADA4741E2E94C410A
:10434000E31952417B6B574185DF5C41F376624153
:104350009632684160136E41411A744136487A4181
:104360001D4F8041A58E834135E38641604D8A41D2
:10437000A9CD8D41A9649141E7129541FCD898419E
:104380008BB79C4130AFA04183C0A44137ECA8411A
:10439000F432AD416795B1414614B64140B0BA41DF
:1043A000216ABF414E6F7465204F4E203A2025642C
:1043B0002025640A000000004E6F7465204F4646B9
:1043C000203A2025642025640A0000004343203A57
:0843D0002025642025640A0089
:1043D80000000000010203040102030406070809A3
:1043E80000000000000000000100000000000000C4
:1043F80000000000000000000000000000000000B5
:1044080000000000000000000000000000000000A4
:104418000000000000000000000000000000000094
:104428000000000000000000000000000000000084
:104808000000000000000000100000200000000070
:1048180040000000000000000000000044040020E8
:10482800440400204C0400204C04002054040020C0
:10483800540400205C0400205C0400206404002070
:10484800640400206C0400206C0400207404002020
:10485800740400207C0400207C04002084040020D0
:10486800840400208C0400208C0400209404002080
:10487800940400209C0400209C040020A404002030
:10488800A4040020AC040020AC040020B4040020E0
:10489800B4040020BC040020BC040020C404002090
:1048A800C4040020CC040020CC040020D404002040
:1048B800D4040020DC040020DC040020E4040020F0
:1048C800E4040020EC040020EC040020F4040020A0
:1048D800F4040020FC040020FC040020040500204F
:1048E800040500200C0500200C05002014050020FC
:1048F800140500201C0500201C05002024050020AC
:10490800240500202C0500202C050020340500205B
:10491800340500203C0500203C050020440500200B
:10492800440500204C0500204C05002054050020BB
:10493800540500205C0500205C050020640500206B
:10494800640500206C0500206C050020740500201B
:10495800740500207C0500207C05002084050020CB
:10496800840500208C0500208C050020940500207B
:10497800940500209C0500209C050020A40500202B
:10498800A4050020AC050020AC050020B4050020DB
:10499800B4050020BC050020BC050020C40500208B
:1049A800C4050020CC050020CC050020D40500203B
:1049B800D4050020DC050020DC050020E4050020EB
:1049C800E4050020EC050020EC050020F40500209B
:1049D800F4050020FC050020FC050020040600204A
:1049E800040600200C0600200C06002014060020F7
:1049F800140600201C0600201C06002024060020A7
:104A0800240600202C0600202C0600203406002056
:104A1800340600203C0600203C0600204406002006
:104A2800440600204C0600204C06002054060020B6
:104A3800540600205C0600205C0600206406002066
:104A4800640600206C0600206C0600207406002016
:104A5800740600207C0600207C06002084060020C6
:104A6800840600208C0600208C0600209406002076
:104A7800940600209C0600209C060020A406002026
:104A8800A4060020AC060020AC060020B4060020D6
:104A9800B4060020BC060020BC060020C406002086
:104AA800C4060020CC060020CC060020D406002036
:104AB800D4060020DC060020DC060020E4060020E6
:104AC800E4060020EC060020EC060020F406002096
:104AD800F4060020FC060020FC0600200407002045
:104AE800040700200C0700200C07002014070020F2
:104AF800140700201C0700201C07002024070020A2
:104B0800240700202C0700202C0700203407002051
:104B1800340700203C0700203C0700204407002001
:104B2800440700204C0700204C07002054070020B1
:104B3800540700205C0700205C0700206407002061
:104B4800640700206C0700206C0700207407002011
:104B5800740700207C0700207C07002084070020C1
:104B6800840700208C0700208C0700209407002071
:104B7800940700209C0700209C070020A407002021
:104B8800A4070020AC070020AC070020B4070020D1
:104B9800B4070020BC070020BC070020C407002081
:104BA800C4070020CC070020CC070020D407002031
:104BB800D4070020DC070020DC070020E4070020E1
:104BC800E4070020EC070020EC070020F407002091
:104BD800F4070020FC070020FC0700200408002040
:104BE800040800200C0800200C08002014080020ED
:104BF800140800201C0800201C080020240800209D
:104C0800240800202C0800202C080020340800204C
:104C1800340800203C0800203C0800200000020066
:044C2800FFFFFFFF8C
:0400000508000000EF
:00000001FF
