:020000040800F2
:10000000D48F00200111000871110008711100083F
:100010007111000871110008711100080000000042
:100020000000000000000000000000007111000846
:100030007111000800000000711100087111000822
:100040007111000871110008711100087111000888
:100050007111000871110008711100087111000878
:10006000711100087111000871110008E9020008FF
:100070007114000871110008711100087111000855
:100080007111000871110008711100087111000848
:100090007111000871110008711100087111000838
:1000A0007111000871110008711100087111000828
:1000B0007111000871110008711100087111000818
:1000C0007111000871110008711100087111000808
:1000D0007111000865140008711100085914000816
:1000E00071110008711100087111000871110008E8
:1000F000711100087111000871110008DD0200087B
:10010000711100087111000871110008F502000852
:1001100071110008711100087111000871110008B7
:100120007111000871110008951400087111000880
:100130007111000871110008711100087111000897
:100140007111000871110008711100087111000887
:100150007111000871110008711100087111000877
:100160007111000871110008711100087111000867
:100170007111000871110008711100087111000857
:10018000711100087111000880B582B000AF0B46F4
:100190003A600246FA807B717B79642B0BD87A79BE
:1001A00013461B029B1A0D4A82FB03125211DB17E6
:1001B000D31ADBB200E06423FA88104619463A6885
:1001C00000F0B8F80346002B01D0012302E000F054
:1001D00073FC002318460837BD4680BD1F85EB51D0
:1001E00080B582B000AF78603960164B3A681A600B
:1001F00000F04CF97A6839684FF6FF73994238BFBE
:100200000B461046194600F0F7FC0E4B1A684FF6E5
:10021000FF739A4238BF13463A68D21A0A4B1A60E3
:10022000084B1A684FF6FF739A4238BF13465B00BB
:100230007A681A44054B1A60002318460837BD46F1
:1002400080BD00BF0000002004000020CC09002079
:1002500080B582B000AF1C4B1B687B601B4B1B68DA
:100260003B601B4B1A681B4B1B681046194603F07A
:1002700021FB0346002B0CD07B681846396801F03F
:10028000B5F8134B1A68134B1B681046194603F058
:100290004DFB0F4B1A68104B1B681046194603F0B4
:1002A00009FB0346002B0CD07B681846396801F027
:1002B000B1F8074B1A68084B1B681046194603F043
:1002C00035FB0837BD4680BDCC0900200400002066
:1002D00014000020200000202400002080B500AF82
:1002E000FFF7B6FF80BD00BF80B500AFFFF7B0FFDE
:1002F00080BD00BF80B500AF0C48022103F098FD1F
:100300000346002B11D00A4B1B68022B06D101F0CB
:1003100093F803460420194600F062FE01F08CF8C1
:1003200003460248194603F021FD80BD003C004011
:100330000C00002080B584B000AF0B463A60024646
:10034000FA807B710023FB6000F016FB00F0E2F8FE
:1003500000F0A8FA0220012100F0F0F80346FA6844
:100360001344FB600420AF2100F0E8F80346FA686C
:100370001344FB60434BAF221A700520812100F02B
:10038000DDF80346FA681344FB600620042100F000
:10039000D5F80346FA681344FB607B79184600F0F1
:1003A0007DF8394B1B68022B27D10820012100F072
:1003B000C5F80346FA681344FB600920012100F0E8
:1003C000BDF80346FA681344FB600E20C02100F01C
:1003D000B5F80346FA681344FB601420002100F0CE
:1003E000ADF80346FA681344FB601520002100F0C5
:1003F000A5F80346FA681344FB6002209E2100F032
:100400009DF80346FA681344FB600A20002100F0BF
:1004100095F80346FA681344FB601B4B1B68022BDC
:1004200007D00E20042100F089F80346FA6813442F
:10043000FB602720002100F081F80346FA6813448E
:10044000FB601F200F2100F079F80346FA6813447F
:10045000FB601A200A2100F071F80346FA68134481
:10046000FB601B200A2100F069F80346FA68134478
:10047000FB60386800F040FAFB6818461037BD464C
:1004800080BD00BF8C0800200C00002080B400AFAD
:1004900000231846BD465DF8047B704780B584B0E4
:1004A00000AF0346FB710023FB60FB79E62B16D9F6
:1004B000FB791933DBB22020194600F03FF80346E0
:1004C000FA681344FB60FB791933DBB2212019462B
:1004D00000F034F80346FA681344FB6015E0FB793A
:1004E0001933DBB22020194600F028F80346FA68D9
:1004F0001344FB60FB791933DBB22120194600F06D
:100500001DF80346FA681344FB60FB681846103771
:10051000BD4680BD80B500AF07481021002202F023
:1005200031FF44F6FF7000F0B7FA034810210122B2
:1005300002F028FF80BD00BF000C024080B584B0EF
:1005400000AF02460B46FA71BB710023FB604D4BB6
:100550004FF496121A600AE04A4B1B68591E494A2A
:100560001160002B03D100F06FFF034685E0464881
:100570004FF4003103F060FE0346002BECD14248FB
:10058000012103F08DFD3F4B4FF480521A600AE0C9
:100590003C4B1B68591E3B4A1160002B03D100F0F5
:1005A00053FF034669E03848384903F015FE034617
:1005B000002BEDD034489421002203F0B1FD314BE3
:1005C0004FF480521A600AE02E4B1B68591E2D4AC8
:1005D0001160002B03D100F037FF03464DE02A489D
:1005E0002B4903F0F9FD0346002BEDD0FB7926489B
:1005F000194603F0D3FD234B4FF480521A600AE0F2
:10060000204B1B68591E1F4A1160002B03D100F0BC
:100610001BFF034631E01C481E4903F0DDFD034685
:10062000002BEDD0BB791848194603F0B7FD154BE8
:100630004FF496121A6008E0124B1B68591E114ABB
:100640001160002B01D100F0FFFE0F48124903F0AA
:10065000F3FD0346002BEFD00B48012103F040FDD2
:10066000FB79184600F01AF80246BB799A420CBF93
:1006700000230123DBB2FB60FB6818461037BD4640
:1006800080BD00BF080000200054004001000300AE
:1006900082000700800007000400001080B584B0CD
:1006A00000AF0346FB710023FB60764B4FF49612BC
:1006B0001A600AE0734B1B68591E724A1160002BC6
:1006C00003D100F0C1FE0346D7E06F484FF400317C
:1006D00003F0B2FD0346002BECD16B48012103F07F
:1006E000DFFC684B4FF480521A600AE0654B1B68D0
:1006F000591E644A1160002B03D100F0A5FE034689
:10070000BBE06148614903F067FD0346002BEDD073
:100710005D489421002203F003FD5A4B4FF48052B0
:100720001A600AE0574B1B68591E564A1160002B8D
:1007300003D100F089FE03469FE05348544903F07B
:100740004BFD0346002BEDD0FB794F48194603F0D3
:1007500025FD4C4B4FF480521A600AE0494B1B6850
:10076000591E484A1160002B03D100F06DFE03466C
:1007700083E04548474903F05FFD0346002BEDD079
:100780004148012103F08CFC3E4B4FF480521A602B
:100790000AE03C4B1B68591E3A4A1160002B03D1FA
:1007A00000F052FE034668E03748384903F014FD74
:1007B0000346002BEDD034489421012203F0B0FC15
:1007C000304B4FF480521A600AE02E4B1B68591EC2
:1007D0002C4A1160002B03D100F036FE03464CE09A
:1007E00029482D4903F028FD0346002BEDD026486B
:1007F000002103F0B3FC244B1B8B2348012103F0A1
:100800006FFC204B4FF480521A600AE01D4B1B68AE
:10081000591E1C4A1160002B03D100F015FE03463F
:100820002BE019481D4903F007FD0346002BEDD0CE
:10083000154803F0C3FC0346FB60124B4FF4805293
:100840001A600AE00F4B1B68591E0E4A1160002BFC
:1008500003D100F0F9FD03460FE00B4B1B889BB260
:1008600003F40073002BEDD10748012103F076FC5F
:1008700005480B4903F014FDFB6818461037BD46C8
:1008800080BD00BF080000200054004001000300AC
:100890008200070004000010020000104000001059
:1008A0000004001080B584B000AF4FF400100121A7
:1008B00000F0CAFE0E4803F0D7FA0023BB804BF6C7
:1008C000FF73FB8033233B814FF480637B814FF4C4
:1008D0008043BB81074B3B600548012103F0C0FB0F
:1008E0003B460348194603F0F9FA1037BD4680BD70
:1008F00000540040A086010080B58AB000AF786047
:100900004FF40040012100F09FFE194803F0FCF86D
:100910007B683B6200237B830023BB830023BB8473
:100920004FF400733B834FF40073FB8307F118030C
:100930000F48194603F022F90E4B1B68022B14D105
:100940004FF00050012100F07FFE0023BB60002328
:10095000FB6000237B6107F108030020194600F0CB
:10096000E9FA0020012100F017FB2837BD4680BDC1
:10097000003C00400C00002080B582B000AF082091
:10098000012100F043FE10233B6001233B71022351
:100990007B710023BB710023FB713B46394819462C
:1009A00002F046FC0720012100F030FE4FF41073E6
:1009B0003B6002233B7102237B710123BB71002347
:1009C000FB713B463048194602F032FC2E480621A6
:1009D000042202F0EFFC2C480921042202F0EAFC78
:1009E0004FF4A0533B6002233B7102237B71002331
:1009F000BB710023FB713B462448194602F018FCEA
:100A000023480421062202F0D5FC20480A210622B0
:100A100002F0D0FC1F4B1B68022B0CD010233B6054
:100A20003B461B48194602F003FC18480C210622DD
:100A300002F0C0FC0EE00120012100F0E7FD1023D0
:100A40003B6003233B710023FB713B461048194672
:100A500002F0EEFB80233B6002233B7102237B719B
:100A60000023BB710023FB713B460848194602F086
:100A7000DFFB06480721062202F09CFC0837BD4632
:100A800080BD00BF000C024000040240000802408C
:100A9000000002400C00002080B483B000AF7860FA
:100AA00002E07B68013B7B607B68002BF9D10C374F
:100AB000BD465DF8047B704780B582B000AF464B01
:100AC0001B68012B67D1454B1B681846012100F0BC
:100AD0009DFD434B1B681846002102F0C1FE404BB0
:100AE0001B68184602F094FD3E4B1A683E4B1A6094
:100AF0003E4B1A683C4B5A603B4B00229A603A4B83
:100B00004022DA60384B4FF6FE721A61364B0022F3
:100B10005A61354B4FF480629A61334B4FF4006257
:100B2000DA61314B4FF400521A622F4B4FF480724E
:100B30005A622D4B4FF440329A622B4B0022DA62FC
:100B4000294B00221A63284B00225A63264B0022AD
:100B50009A63234B1B681846234902F02BFE204B57
:100B60001B6818461021012202F00EFF1C4B1B6867
:100B700018460821012202F007FF1D4B1B68DBB25B
:100B80003B7100237B710023BB710123FB713B1D73
:100B9000184603F0ADFB104B1B68012B05D115481F
:100BA0000221012203F0F0F812E000F069F8114888
:100BB0007121012203F00CF933233B7100237B7177
:100BC0000023BB710123FB713B1D184603F090FB12
:100BD0000837BD4680BD00BF0C000020100000207B
:100BE00014000020900800200C0A002018000020AB
:100BF0001C000020003C004080B582B000AF78604F
:100C000039601B4B1B68012B12D11A4B7A689A6012
:100C1000184B3A681A61184B1B681846154902F0C0
:100C2000C9FD154B1B681846012102F019FE11E0A1
:100C3000104B7A689A600F4B3A681A610E4B1B682A
:100C400018460C4902F0B6FD0B4B1B6818460121F3
:100C500002F006FE094B9B8B9BB203F48063002BD2
:100C600003D10648012103F061F80837BD4680BD75
:100C70000C0000200C0A002014000020003C004062
:100C800080B586B000AF1348012100F0BFFC4FF0E3
:100C90000050012100F0D8FC10233B6003233B717E
:100CA0000023FB713B460C48194602F0C1FA0023B1
:100CB000BB600023FB6000237B6107F10803002079
:100CC000194600F037F90020012100F065F91837C6
:100CD000BD4680BD010020000000024080B58AB002
:100CE00000AF7860396000237B6200233B62002301
:100CF000FB610023BB617B681B8A9BB27B627B6AC2
:100D000023F440537B623B68DB887A6A13437B623F
:100D10007B6A9AB27B681A827B689B899BB27B62F2
:100D20007B6A23F4B05323F00C037B623B689A8800
:100D30003B681B8913439AB23B685B8913439BB2A0
:100D40007A6A13437B627B6A9AB27B689A817B687A
:100D50009B8A9BB27B627B6A23F440737B623B6815
:100D60009B897A6A13437B627B6A9AB27B689A8218
:100D700007F10803184600F09FFB7A68314B9A424E
:100D800003D07A68304B9A4202D17B693B6201E022
:100D90003B693B627B689B899BB29BB21BB2002B79
:100DA0000CDA3A6A13469B0013449A001A443B68D3
:100DB0001B685B00B2FBF3F3FB610BE03A6A13467E
:100DC0009B0013449A001A443B681B689B00B2FBCB
:100DD000F3F3FB61FA691D4BA3FB02135B091B01D3
:100DE0007B627B6A1B09642202FB03F3FA69D31A54
:100DF000BB617B689B899BB29BB21BB2002B0DDA57
:100E0000BB69DB0003F13202104BA3FB02135B0949
:100E100003F007037A6A13437B620CE0BB691B0192
:100E200003F13202094BA3FB02135B0903F00F032A
:100E30007A6A13437B627B6A9AB27B681A8128378D
:100E4000BD4680BD00100140001401401F85EB51DC
:100E500080B483B000AF78600B46FB70FB78002B4A
:100E600008D07B689B899BB243F400539AB27B689D
:100E70009A8107E07B689B899BB223F400539AB266
:100E80007B689A810C37BD465DF8047B704700BFD4
:100E900080B483B000AF78600B467B807B88C3F35F
:100EA00008039AB27B689A800C37BD465DF8047BD4
:100EB000704700BF80B483B000AF786013460A4625
:100EC0007A807B707B78002B08D07B689B8A9AB2F3
:100ED0007B8813439AB27B689A8209E07B689B8A7D
:100EE0009AB27B88DB439BB213409AB27B689A82AA
:100EF0000C37BD465DF8047B704700BF80B485B0F9
:100F000000AF78600B467B800023FB737B681B88F7
:100F10009AB27B8813409BB2002B02D00123FB7353
:100F200001E00023FB73FB7B18461437BD465DF8D8
:100F3000047B704780B485B000AF786039600023CF
:100F4000FB600023BB60134B1B68FB607B6840F6B3
:100F5000FE7202FA03F3DB43FA681340FB603B685E
:100F60001A683B685B681A433B689B681A433B6896
:100F7000DB681343BB607B68BA6802FA03F3FA6864
:100F80001343FB60034BFA681A601437BD465DF8E3
:100F9000047B70470074004080B483B000AF786079
:100FA0000B46FB70FB78002B09D00C4B0B4A1168E9
:100FB0007A68012000FA02F20A431A6009E0074B3E
:100FC000064A11687A68012000FA02F2D2430A4008
:100FD0001A600C37BD465DF8047B70470074004012
:100FE00080B485B000AF78600B467B800023FB6047
:100FF000074BFB60FA687B6813440833FB60FB68AF
:101000007A881A601437BD465DF8047B704700BFCC
:101010000074004080B584B000AF786013460A4683
:10102000FA70BB70082003F0FFFC0346BB60BB688E
:10103000FA781A70BB68BA785A70BB6800225A6096
:101040007B68002B01D1BB680DE07B68FB6002E090
:10105000FB685B68FB60FB685B68002BF8D1FB6892
:10106000BA685A607B6818461037BD4680BD00BF1D
:1010700080B584B000AF78600B46FB707B68002BB6
:1010800001D100231DE07B681B78FA789A420DD1CC
:101090007B685B68FB60786803F0CEFCFB78F868DF
:1010A0001946FFF7E5FFF860FB680AE07B685A68BD
:1010B000FB7810461946FFF7DBFF02467B685A6053
:1010C0007B6818461037BD4680BD00BF80B485B030
:1010D00000AF78607B68002B01D100230AE07B68B9
:1010E000FB6002E0FB685B68FB60FB685B68002BF1
:1010F000F8D1FB6818461437BD465DF8047B70478D
:1011000080B582B000AF144B7B60144B3B6007E0AE
:101110003B681A1D3A607A68111D796012681A607E
:101120003A680F4B9A42F3D30E480F494FF0000232
:101130008842B8BF40F8042BFFF6FAAFDFF82C0066
:10114000016841F47001016002F07AF900F014F8CE
:101150000837BD4680BD00BF48BA00080000002027
:101160008C0800208C080020D40F002088ED00E0BF
:1011700080B400AFFEE700BF80B586B000AF00F0DE
:10118000C9F800F0F9F803F011F9386100F0D4FA69
:10119000F86000237B610DE0544B7A69002123F84D
:1011A00012107B695A1C514B002123F812107B69E5
:1011B00002337B617B69B3F5207FEDDB4C4B4D4AFD
:1011C0001A604B4B4FF000025A60494B4FF000023F
:1011D0009A60474B04221A73454B01225A73444BC1
:1011E0004FF07E521A61424B4FF000025A61404B61
:1011F0004FF07E529A613E4B4FF00002DA613C4B59
:101200003D4A1A623A4B4FF07E525A62384B3B4A83
:101210009A62374B394ADA62354B4FF07C521A6387
:10122000334B364A5A63324B344A9A63304B334A13
:10123000DA632F4B4FF07C521A642D4B2F4A5A64BD
:101240002B4B4FF000029A64294B4FF00002DA64F6
:10125000274B4FF000021A65254B4FF000025A65EC
:10126000042055214BF68032FEF78EFF1F484FF4C5
:101270002071FEF7B5FF224801F05CF9214801F02A
:1012800059F9386903F032F90346FB72FB7A002BF7
:1012900004D0FB7A3869194603F058F9F86800F071
:1012A000E9FA0346BB72BB7A002B04D0BB7AF8681C
:1012B000194600F037FB144B1B681846FFF706FF72
:1012C00078607B68002B03D1104B00221A70D8E79E
:1012D0007B681B78183B0E4A9B0013441A68044B2A
:1012E0001A600A4B01221A70CBE700BFAC0A00203B
:1012F000480A002000005C430000C041CDCCCC3D3A
:10130000745300087853000894080020A80A0020AD
:10131000E451000880B582B000AF0820012100F040
:1013200075F90120012100F071F94FF470433B6021
:1013300001233B710023BB7103237B710023FB71ED
:101340003B460B48194601F073FF01233B60002325
:101350003B710023BB7103237B710023FB713B4670
:101360000448194601F064FF0837BD4680BD00BF40
:10137000000C02400000024080B586B000AF4FF480
:101380000030012100F060F904233B6102233B752A
:1013900002237B750023BB750123FB7507F1100346
:1013A0001048194601F044FF0E480221072202F0BE
:1013B00001F84FF416533B600023BB800023FB80F1
:1013C00000233B810023BB8108237B813B460648E9
:1013D0001946FFF783FC04480121FFF739FD183750
:1013E000BD4680BD000002400044004080B582B090
:1013F00000AF7860396006484FF4805101F0A6FFD5
:101400004FF4A07001F0ECF80837BD4680BD00BF76
:10141000000C024080B582B000AF786039600548AA
:101420004FF4805101F0A0FF002001F0D9F80837F7
:10143000BD4680BD000C024080B400AF00231846BA
:10144000BD465DF8047B704780B400AF00231846AA
:10145000BD465DF8047B704780B400AFBD465DF8C3
:10146000047B704780B400AFBD465DF8047B7047D5
:1014700080B500AF0548064902F0C0FA0346002BCC
:1014800003D00248024902F011FB80BD28600240EF
:101490000088001080B500AF0548064902F0AEFA9A
:1014A0000346002B03D00248024902F0FFFA80BD38
:1014B000406002400088001080B489B000AF7860BE
:1014C0000023BB6100237B610023FB6102233B619E
:1014D0000023FB600223BB60484B9B6803F00C03B6
:1014E000BB61BB69042B07D0082B09D0002B3FD16F
:1014F0007B68434A1A603FE07B68424A1A603BE0DF
:101500003E4B5B6803F480039B0DFB603B4B5B68C9
:1015100003F03F03BB60FB68002B0DD0394ABB686A
:10152000B2FBF3F2354B596847F6C0730B409B0989
:1015300003FB02F3FB610CE0314ABB68B2FBF3F240
:101540002E4B596847F6C0730B409B0903FB02F30F
:10155000FB612A4B5B6803F440331B0C01335B00D7
:101560003B61FA693B69B2FBF3F27B681A6003E006
:101570007B68234A1A6000BF204B9B6803F0F0038E
:10158000BB61BB691B09BB611F4ABB6913441B7864
:10159000DBB27B617B681A687B69DA407B685A60E2
:1015A000164B9B6803F4E053BB61BB699B0ABB61AC
:1015B000154ABB6913441B78DBB27B617B685A68B0
:1015C0007B69DA407B689A600C4B9B6803F460434C
:1015D000BB61BB695B0BBB610B4ABB6913441B78E6
:1015E000DBB27B617B685A687B69DA407B68DA60D2
:1015F0002437BD465DF8047B704700BF00380240C9
:101600000024F40000127A003400002080B483B07B
:1016100000AF78600B46FB70FB78002B06D0094BBF
:10162000084A116B7A680A431A6306E0054B054ABB
:10163000116B7A68D2430A401A630C37BD465DF8D5
:10164000047B70470038024080B483B000AF7860FC
:101650000B46FB70FB78002B06D0094B084A116C37
:101660007A680A431A6406E0054B054A116C7A68E9
:10167000D2430A401A640C37BD465DF8047B7047BC
:101680000038024080B483B000AF78600B46FB7036
:10169000FB78002B06D0094B084A516C7A680A4344
:1016A0005A6406E0054B054A516C7A68D2430A40F9
:1016B0005A640C37BD465DF8047B70470038024021
:1016C00080B483B000AF78600B46FB70FB78002BD2
:1016D00006D0094B084A116A7A680A431A6206E082
:1016E000054B054A116A7A68D2430A401A620C37E0
:1016F000BD465DF8047B70470038024080B483B07B
:1017000000AF78600B46FB70FB78002B06D0094BCE
:10171000084A516A7A680A435A6206E0054B054A4C
:10172000516A7A68D2430A405A620C37BD465DF866
:10173000047B70470038024080B596B000AF10209F
:101740000121FFF79FFF4FF480000121FFF75EFFAB
:101750004FF4C0633B65022387F85430022387F8B7
:101760005530002387F85630012387F8573007F1AA
:1017700050033B48194601F05BFD39480921072217
:1017800001F018FE36480A21072201F013FE4FF43B
:1017900016533B640023A7F844300023A7F84630D3
:1017A0000023A7F848300023A7F84C300C23A7F8F3
:1017B0004A3007F140032B481946FFF78FFA3A23C6
:1017C00087F83C30002387F83D30002387F83E300F
:1017D000012387F83F3007F13C03184602F088FDEB
:1017E0004FF4A06002F072FD1E480121FFF730FBAC
:1017F0001D4801F00DFF4FF000633B600023FB60CC
:101800001A4BBB6040233B61194B7B6000237B611B
:101810004FF48063BB610023FB6100233B624FF404
:1018200080737B624FF40033BB620023FB620323AF
:101830003B6300237B630023BB633B460A48194696
:1018400001F0B8FF074840210122FFF733FB0648AB
:10185000012102F005F8054B18465837BD4680BDFA
:10186000000002400010014040640240980800203F
:101870000410014080B584B000AF78600023FB8184
:10188000124802F009F80346BB81114B1B88BA8944
:101890009A4214D00E4B1B88BA899A4205D20C4B3F
:1018A0001A88BB89D31AFB8106E0094B1A88BB89C9
:1018B000D31A9BB24033FB81054BBA891A80FB894E
:1018C000DBB218461037BD4680BD00BF4064024001
:1018D0004400002080B485B000AF78600023FB6036
:1018E00010E0FA6813469B0013445B00FB607B68C2
:1018F0005A1C7A601B781A46094B53F82230FA6852
:101900001344FB607B681B78002B02D0FB68002B24
:10191000E7DAFB6818461437BD465DF8047B70476C
:101920008C55000880B584B000AF78600B46FB7022
:1019300039E1A04B1B787A6813441B78FB739E4BEC
:101940001B78042B00F22F8101A252F823F000BF74
:1019500065190008C7190008431A0008A51A0008ED
:10196000271B0008FB7B232B17D1934B01221A70F6
:10197000924B00221A708F4B1B783F2B03D18D4B5B
:1019800000221A7005E08B4B1B780133DAB2894BC9
:101990001A70FB78013BFB7014E0864B1B783F2BE1
:1019A00003D1844B00221A7005E0824B1B7801336F
:1019B000DAB2804B1A70FB78013BFB707E4B002241
:1019C0001A7000BFEFE0FB7B2F2B11D9FB7B392B6B
:1019D0000ED8794B01221A70784B1B78784AF97B24
:1019E000D154764B1B780133DAB2744B1A7002E093
:1019F000714B00221A706F4B1B783F2B03D16D4B3C
:101A000000221A7005E06B4B1B780133DAB2694B88
:101A10001A70FB78013BFB70684B1B78032B0FD1CE
:101A2000664B1B78664A0021D1546548FFF752FF88
:101A30000346DAB2634B1A705F4B02221A70B2E0AF
:101A4000B1E0FB7B3A2B17D15B4B03221A705B4B47
:101A500000221A70574B1B783F2B03D1554B0022A5
:101A60001A7005E0534B1B780133DAB2514B1A70F0
:101A7000FB78013BFB7014E04E4B1B783F2B03D1EE
:101A80004C4B00221A7005E04A4B1B780133DAB246
:101A9000484B1A70FB78013BFB70474B00221A70D1
:101AA00000BF80E0FB7B2F2B11D9FB7B392B0ED89D
:101AB000414B03221A70414B1B78414AF97BD154A8
:101AC0003E4B1B780133DAB23C4B1A7002E03A4BC2
:101AD00000221A70374B1B783F2B03D1354B002265
:101AE0001A7005E0334B1B780133DAB2314B1A70B0
:101AF000FB78013BFB70314B1B78032B12D12F4B32
:101B00001B782F4A0021D1542D48FFF7E3FE0346EE
:101B1000DAB22D4B1A70284B02221A70264B04227F
:101B20001A7040E03FE0FB7B3B2B26D1224B00228A
:101B30001A70244B1B781A46234B1B7823481146F6
:101B40001A4600F0E3FC1F4B1A781F4B1B78104617
:101B5000194600F03DF8174B1B783F2B03D1154B6E
:101B600000221A7005E0134B1B780133DAB2114BD7
:101B70001A70FB78013BFB7014E00E4B1B783F2B77
:101B800003D10C4B00221A7005E00A4B1B7801337D
:101B9000DAB2084B1A70FB78013BFB70064B00224F
:101BA0001A7000BF00BFFB78002B7FF4C2AE103765
:101BB000BD4680BDD8080020D9080020DA080020E2
:101BC000B00F0020DB080020DC0800208C59000842
:101BD00080B582B000AF02460B46FA71BB71FB794B
:101BE000013B142B00F27D8101A252F823F000BFCB
:101BF000451C00085F1C0008791C0008A91C00088F
:101C0000D91C0008F31C00080D1D00081D1D00084C
:101C10003F1D0008611D0008831D00089D1D000870
:101C2000BF1D0008E11D0008031E00081D1E00085E
:101C30003F1E0008611E00087B1E00089D1E000854
:101C4000BF1E0008BB79042B02D8A74BBA791A73C0
:101C5000A54B1B7BA548194600F058FC41E1BB7918
:101C6000042B02D8A04BBA795A739F4B5B7BA048D8
:101C7000194600F04BFC34E19B4B93ED047AF1EEF6
:101C8000047AB4EE677AF1EE10FA04D1964B4FF075
:101C90007C521A6125E1BB7907EE103AF8EE477ADB
:101CA000914BC3ED047A1CE18F4B93ED057AF1EE75
:101CB000047AB4EE677AF1EE10FA04D18A4B4FF051
:101CC0007C525A610DE1BB7907EE103AF8EE477A83
:101CD000854BC3ED057A04E1BB7907EE903AB8EE87
:101CE000677ADFED847AC7EE277A7F4BC3ED067AF9
:101CF000F7E0BB7907EE903AB8EE677ADFED7D7AD0
:101D0000C7EE277A784BC3ED077AEAE0BB797A4AC7
:101D10009B0013441A68744B1A62E2E0BB7907EE29
:101D2000903AB8EE677AF1EE007A27EE277ADFED87
:101D3000717AC7EE277A6C4BC3ED097AD1E0BB7993
:101D400007EE903AB8EE677ADFED6A7A87EE277A87
:101D5000DFED6A7A77EE277A634BC3ED0A7AC0E04B
:101D6000BB7907EE903AB8EE677ADFED627A87EEDC
:101D7000277ADFED627A77EE277A5B4BC3ED0B7A39
:101D8000AFE0BB7907EE903AB8EE677ADFED597AAB
:101D9000C7EE277A544BC3ED0C7AA2E0BB7907EE6D
:101DA000903AB8EE677ADFED537A87EE277ADFED67
:101DB000537A77EE277A4C4BC3ED0D7A91E0BB79DD
:101DC00007EE903AB8EE677ADFED4A7A87EE277A27
:101DD000DFED4A7A77EE277A434BC3ED0E7A80E047
:101DE000BB7907EE903AB8EE677ADFED427A87EE7C
:101DF000277ADFED427A77EE277A3B4BC3ED0F7AF5
:101E00006FE0BB7907EE903AB8EE677ADFED397A8A
:101E1000C7EE277A344BC3ED107A62E0BB7907EE48
:101E2000903AB8EE677ADFED337A87EE277ADFED06
:101E3000337A77EE277A2C4BC3ED117A51E0BB79D8
:101E400007EE903AB8EE677AF2EE047A27EE277A38
:101E5000DFED287AC7EE277A234BC3ED127A40E0F4
:101E6000BB7907EE903AB8EE677ADFED227AC7EEDB
:101E7000277A1D4BC3ED137A33E0BB7907EE903A16
:101E8000B8EE677AF2EE047A27EE277ADFED197A58
:101E9000C7EE277A144BC3ED147A22E0BB7907EE24
:101EA000903AB8EE677ADFED167A27EE277ADFED03
:101EB000117AC7EE277A0C4BC3ED157A11E0BB7986
:101EC000403B07EE903AB8EEE77ADFED0E7A27EE68
:101ED000277AF7EE007A77EE277A034BC3ED027A82
:101EE00000BF0837BD4680BD480A00209859000849
:101EF000B45900080000C8428C5300086F12833A9E
:101F0000CDCCCC3D17B7D13980B582B000AF0346F8
:101F1000FB7100BF07484021FEF7F0FF0346002B8E
:101F2000F8D0FB799BB203481946FEF7B1FF08379A
:101F3000BD4680BD0044004080B483B000AF7860EF
:101F40000B46FB707B68FA781A70012318460C3731
:101F5000BD465DF8047B704780B485B000AF786003
:101F600039600023FB600AE07B685A1C7A603A689B
:101F7000511C396012781A70FB680133FB603B68B2
:101F80001B78002BF0D1FB6818461437BD465DF86E
:101F9000047B704780B586B000AFF8607A603B6024
:101FA0000B46FB7200237B617B68013B7B603B68D7
:101FB000092B10D93A681E4BA3FB0213DB08FA7AEF
:101FC000F86811467A68FFF7E5FF78617B69FA687F
:101FD0001344FB6011E00DE0FB7AF8681946FFF747
:101FE000ABFFFB680133FB607B6901337B617B687E
:101FF000013B7B607B68002BEEDC39680C4BA3FB5C
:102000000123DA0813469B0013445B00CA1AD3B2BB
:102010003033DBB2F8681946FFF78EFF03467A6962
:1020200013447B617B6918461837BD4680BD00BFED
:10203000CDCCCCCC80B586B000AFF8607A603B6088
:102040000B46FB7200237B613B68002B03DA3B6885
:102050005B423B6101E03B683B617B68013B7B602D
:102060003B69092B21D93B68002B0DDA3A692F4BCC
:10207000A3FB0213DB085B42FA7AF86811467A6820
:10208000FFF7D8FF78610BE03A69284BA3FB0213F6
:10209000DB08FA7AF86811467A68FFF7CBFF7861B7
:1020A0007B69FA681344FB6026E03B68002B03DA87
:1020B0007B68013B7B600EE00DE0FB7AF868194617
:1020C000FFF73AFFFB680133FB607B6901337B61FB
:1020D0007B68013B7B607B68002BEEDC3B68002B60
:1020E0000ADAF8682D21FFF727FF03467A691344BF
:1020F0007B61FB680133FB6039690C4BA3FB012357
:10210000DA0813469B0013445B00CA1AD3B230337B
:10211000DBB2F8681946FFF70FFF03467A691344EC
:102120007B617B6918461837BD4680BDCDCCCCCCD1
:1021300080B588B002AFF8607A600A46FA72BB7266
:1021400000237B617B68013B7B603B6A1B09002BA2
:1021500012D03B6A1909FA7ABB7A0091F8681146E5
:102160007A68FFF7E5FF03467A6913447B617B6970
:10217000FA681344FB6011E00DE0FB7AF868194639
:10218000FFF7DAFEFB680133FB607B6901337B619B
:102190007B68013B7B607B68002BEEDC3B6A03F0D5
:1021A0000F03092B0BD83B6ADBB203F00F03DBB242
:1021B0003033DBB2F8681946FFF7BEFE19E0BB7A90
:1021C000002B0BD03B6ADBB203F00F03DBB23733DB
:1021D000DBB2F8681946FFF7AFFE0AE03B6ADBB2F4
:1021E00003F00F03DBB25733DBB2F8681946FFF791
:1021F000A3FE7B6901337B617B6918461837BD46B6
:1022000080BD00BF80B58AB002AFF860B9607A6067
:102210003B600023BB6100237B61FB68002B03D084
:10222000FB6800221A70F8E0F7E07B681B78252B2A
:102230000BD0FB685A1CFA607A68511C79601278DE
:102240001A707B6901337B61E7E07B6801331B789F
:10225000252B0BD1FB685A1CFA6025221A707B686B
:1022600002337B607B6901337B61D6E02023FB77FF
:102270000023BB777B6801337B607B681B78302B46
:1022800005D13023FB777B6801337B600FE00EE0E4
:10229000BB7F1A46920013445B00DAB27B681B785E
:1022A0001344DBB2303BBB777B6801337B607B68D8
:1022B0001B782F2B03D97B681B78392BE8D9BA7F81
:1022C0007B6913441A46BB689A4205D9BB68DAB2E7
:1022D0007B69DBB2D31ABB777B681B78583B202B1A
:1022E00000F28D8001A252F823F000BFB92300084C
:1022F000FF230008FF230008FF230008FF23000836
:10230000FF230008FF230008FF230008FF23000825
:10231000FF230008FF230008E923000871230008B9
:10232000FF230008FF230008FF230008FF23000805
:1023300071230008FF230008FF230008FF23000883
:10234000FF230008FF230008FF230008FF230008E5
:10235000FF230008FF230008D5230008FF230008FF
:1023600087230008FF230008FF2300089D2300089F
:10237000BA7F3B68191D39601B68F97FF868FFF761
:1023800059FEB8613EE0BA7F3B68191D39601B6891
:10239000F97FF868FFF7FEFDB86133E0BA7F3B686C
:1023A000191D39601968FB7F0091F86819460023F0
:1023B000FFF7BEFEB86125E0BA7F3B68191D3960A2
:1023C0001968FB7F0091F86819460123FFF7B0FEFA
:1023D000B86117E03B681A1D3A601B68F868194637
:1023E000FFF7BAFDB8610DE03B681A1D3A601B6843
:1023F000DBB2F8681946FFF79FFDB86102E04FF0C5
:10240000FF3325E07B6801337B60BB69FA681344C6
:10241000FB607A69BB6913447B617B681B78002B86
:1024200004D07A69BB689A42FFF4FFAE7A69BB6850
:102430009A4203D2FB6800221A7008E0FB68013B55
:10244000FB60FB6800221A707B69013B7B617B6942
:1024500018462037BD4680BD80B584B000AFF86017
:10246000B9607A60F8686421BA687B68FFF7CAFED1
:10247000034618461037BD4680BD00BFB0B5A6B0B4
:1024800000AFF860B9607A60144B07F110041D4684
:102490000FCD0FC40FCD0FC42B68236007F1340399
:1024A0001846B9687A68FFF7D7FF0346632B09DD42
:1024B0000B4B1B68DB6807F110021046194600F051
:1024C0006BF8FEE707F134031846F96800F064F88A
:1024D000034618469837BD46B0BD00BFD059000826
:1024E0007004002080B582B000AF78603960064B80
:1024F0001B689B68184679683A68FFF7BFFF034678
:1025000018460837BD4680BD700400200FB480B562
:1025100082B000AF07F114033B6038693968FFF7F8
:10252000E1FF78607B6818460837BD46BDE880400B
:1025300004B0704780B582B000AF7860054B1B686F
:102540009B687868194600F027F803461846083754
:10255000BD4680BD7004002080B582B000AF7860B9
:1025600039600C4B1B689A683B689A4205D0094B4E
:102570001B68DA683B689A4206D17B68DBB2184672
:10258000FFF7C2FC7B6801E04FF0FF3318460837C5
:10259000BD4680BD7004002080B584B000AF786077
:1025A00039600023FB6012E07B681B7818463968AD
:1025B000FFF7D2FF0346B3F1FF3F02D14FF0FF33E5
:1025C0000AE0FB680133FB607B6801337B607B685A
:1025D0001B78002BE8D1FB6818461037BD4680BD3C
:1025E00080B58EB000AF0346FB804FF00003FB6266
:1025F0004FF000033B634FF00003BB624FF000035A
:102600007B62CD484FF4005100F0A0FECB4B1B780D
:10261000002B2ED0C94B00221A70C94B01221A7010
:10262000C84B01221A70C84BD3ED007AB7EE007A7E
:1026300037EE677AC54BD3ED0A6ADFEDC57A66EEF1
:10264000A77AC7EE277AC34BC3ED007AC24BD3ED0E
:10265000007AB7EE007A37EE677ABC4BD3ED0E6A9C
:10266000DFEDBB7A66EEA77AC7EE277ABB4BC3EDE8
:10267000007ABB4B1B7883F00103DBB2002B2BD01D
:10268000AF4B1B78042B11D0AD4B04221A70AE4B0C
:1026900093ED007AAD4BD3ED0D6ADFEDAD7A66EECA
:1026A000A77AC7EE277AAF4BC3ED007AA54B1B780C
:1026B000042B11D0A34B04221A70A74B93ED007A80
:1026C000A24BD3ED116ADFEDA27A66EEA77AC7EED0
:1026D000277AA54BC3ED007A9C4BD3ED0C7AB7EE6D
:1026E000007A37EE677A994BD3ED0B6ADFED987A73
:1026F00066EEA77AC7EE277A9C4BC3ED007A934B20
:10270000D3ED107AB7EE007A37EE677A8F4BD3EDC0
:102710000F6ADFED8F7A66EEA77AC7EE277A944BC1
:10272000C3ED007A0023FB8600F04CBD874B93ED90
:10273000127ADFED907A27EE277ADFED857AC7EE01
:10274000277AC7ED0B7A8C4B93ED007AD7ED0B7A95
:1027500077EE277A884BC3ED007A874B93ED007AAA
:10276000DFED847AB4EEE77AF1EE10FA09DD824B00
:1027700093ED007ADFED7F7A77EE677A7E4BC3EDDB
:10278000007A724B93ED137A7B4BD3ED007AFCEE1B
:10279000E77A17EE903A9BB2784A9B001344D3ED48
:1027A000007A67EE277AC7ED0C7A684BD3ED137A7F
:1027B000F5EE407AF1EE10FA02D14FF000033B63E0
:1027C000624B93ED147ADFED6B7A27EE277ADFED1B
:1027D000607AC7EE277AC7ED0A7A694B93ED007AE3
:1027E000D7ED0A7A77EE277A654BC3ED007A644B12
:1027F00093ED007ADFED5F7AB4EEE77AF1EE10FA4E
:1028000009DD5F4B93ED007ADFED5A7A77EE677A58
:102810005B4BC3ED007A4D4B93ED157A584BD3EDDE
:10282000007AFCEEE77A17EE903A9BB2534A9B008F
:102830001344D3ED007A67EE277AC7ED097A434B4C
:10284000D3ED137AF5EE407AF1EE10FA02D14FF0A3
:1028500000033B633D4B93ED007AD7ED096AF7EE39
:10286000007A76EEA77A27EE277A384BD3ED017AF5
:1028700077EE277AC7ED087A344B93ED047AD7EDDB
:10288000087A27EE277ADFED3B7A27EE277ADFED0D
:10289000307AC7EE277AC7ED077A2C4B93ED057A8D
:1028A000D7ED087A27EE277A284BD3ED027A27EE68
:1028B000277ADFED307A27EE277ADFED257AC7EE2B
:1028C000277AC7ED067A2F4BD3ED007AFDEEE77A33
:1028D00017EE903AFB822B4B93ED007AFB8A06EEC3
:1028E000903AF8EEE67A77EE677AC7ED047AFB8ADB
:1028F0000133BB86BB8E07EE903AB8EEE77A214BE8
:10290000D3ED007A77EE677AC7ED037ABB8EB3F525
:10291000806F01D10023BB860C4B1B7B032B00F285
:102920009B8001A252F823F089290008BD290008E4
:10293000F1290008252A0008000C0240A00A002006
:10294000E0080020E1080020E4080020480A0020F8
:1029500000803B47E8080020EC080020F008002039
:10296000A80A0020F4080020F8080020FC08002035
:10297000000900200000804404090020F4990008A8
:10298000080900200C090020FB8A914A9B0013448F
:1029900093ED007AD7ED037A27EE277ABB8E8C4A27
:1029A0009B001344D3ED006AD7ED047A66EEA77A54
:1029B00077EE277A874BC3ED007A67E0FB8A864A79
:1029C0009B00134493ED007AD7ED037A27EE277A24
:1029D000BB8E814A9B001344D3ED006AD7ED047A85
:1029E00066EEA77A77EE277A7A4BC3ED007A4DE050
:1029F000FB8A7A4A9B00134493ED007AD7ED037A61
:102A000027EE277ABB8E754A9B001344D3ED006AEC
:102A1000D7ED047A66EEA77A77EE277A6D4BC3ED91
:102A2000007A33E0FB8A6E4A9B00134493ED007AF0
:102A3000D7ED037A27EE277ABB8E694A9B001344B1
:102A4000D3ED006AD7ED047A66EEA77A77EE277A9F
:102A5000604BC3ED007A19E0FB8A624A9B00134485
:102A600093ED007AD7ED037A27EE277ABB8E5D4A85
:102A70009B001344D3ED006AD7ED047A66EEA77A83
:102A800077EE277A534BC3ED007A00BF564BD3ED58
:102A9000007AFDEEE77A17EE903AFB82524B93ED07
:102AA000007AFB8A06EE903AF8EEE67A77EE677ADD
:102AB000C7ED047AFB8A0133BB86BB8E07EE903AE2
:102AC000B8EEE77A484BD3ED007A77EE677AC7ED38
:102AD000037ABB8EB3F5806F01D10023BB86434BD5
:102AE0005B7B032B00F2868001A252F823F000BF2B
:102AF000012B0008352B0008692B00089D2B0008CE
:102B0000FB8A334A9B00134493ED007AD7ED037A96
:102B100027EE277ABB8E2E4A9B001344D3ED006A22
:102B2000D7ED047A66EEA77A77EE277A304BC3EDBD
:102B3000007A79E0FB8A284A9B00134493ED007ADF
:102B4000D7ED037A27EE277ABB8E234A9B001344E6
:102B5000D3ED006AD7ED047A66EEA77A77EE277A8E
:102B6000234BC3ED007A5FE0FB8A1C4A9B001344B1
:102B700093ED007AD7ED037A27EE277ABB8E174ABA
:102B80009B001344D3ED006AD7ED047A66EEA77A72
:102B900077EE277A164BC3ED007A45E0FB8A104AA0
:102BA0009B00134493ED007AD7ED037A27EE277A42
:102BB000BB8E0B4A9B001344D3ED006AD7ED047A19
:102BC00066EEA77A77EE277A094BC3ED007A2BE001
:102BD000F459000810090020F4690008F47900088D
:102BE000F4890008F499000814090020480A00201C
:102BF00018090020FB8AC54A9B00134493ED007A14
:102C0000D7ED037A27EE277ABB8EC04A9B00134488
:102C1000D3ED006AD7ED047A66EEA77A77EE277ACD
:102C2000BB4BC3ED007A00BFBA4B93ED067ABA4BAB
:102C3000D3ED007A27EE277AB64BD3ED076AB44B73
:102C4000D3ED007A66EEA77A77EE277AB34BC3ED21
:102C5000007AB04B93ED087AD7ED0C6AF7EE007A64
:102C600076EEA77A27EE277AAD4BD3ED006AF7EE22
:102C7000007A76EEA77A27EE277AD7ED087A27EE44
:102C8000277ADFEDA87A27EE277ADFEDA77AC7EE5D
:102C9000277AA64BC3ED007AA44B93ED007AF7EEAA
:102CA000007AB4EEE77AF1EE10FA03DD9F4B4FF0B5
:102CB0007E521A60974B93ED097A9C4BD3ED006AD4
:102CC000DFED9B7A66EEA76A984BD3ED007A66EE4D
:102CD000A77AF7EE006A76EEE77A67EE277A954BE9
:102CE000C3ED007A8D4B93ED007A934BD3ED006AE0
:102CF000904BD3ED007A66EEA77A77EE677A874B32
:102D0000C3ED007A894B93ED007A884BD3ED007ABE
:102D100027EE277ADFED897A27EE277A834BD3EDEA
:102D2000006A824BD3ED007A66EEA77A27EE277A07
:102D30007A4BD3ED007A67EE277A784BC3ED007AB1
:102D40007F4B93ED007ADFED7F7A27EE277A734B86
:102D5000D3ED007A37EE277A744BD3ED007AF7EE95
:102D6000006A76EEE76A784BD3ED007A66EEA77AD2
:102D700077EE277A744BC3ED007A684B1A68704B74
:102D80001A60724B93ED007ADFED6E7A27EE277AA8
:102D90006D4BD3ED007A37EE277A644BD3ED007A92
:102DA000F7EE006A76EEE76A694BD3ED007A66EEDD
:102DB000A77A77EE277A664BC3ED007A624B1A68E2
:102DC000624B1A60634B93ED007ADFED5E7A27EE7B
:102DD000277A5F4BD3ED007A37EE277A534BD3ED4A
:102DE000007AF7EE006A76EEE76A5B4BD3ED007A85
:102DF00066EEA77A77EE277A574BC3ED007A544BED
:102E00001A68544B1A60554B93ED007ADFED4D7AFA
:102E100027EE277A504BD3ED007A37EE277A434BD3
:102E2000D3ED007AF7EE006A76EEE76A424BD3ED17
:102E3000007A66EEA77A77EE277A3F4BC3ED007AE9
:102E4000454B1A68454B1A603B4B1A68444B1A6055
:102E5000444B1B78042B00F2B08001A252F823F0FF
:102E6000752E00087F2E0008C52E0008032F0008CD
:102E7000792F00083C4B4FF000021A609DE03A4B5E
:102E800093ED007A394BD3ED007A77EE277A364B03
:102E9000C3ED007A344B93ED007AF7EE007AB4EE8E
:102EA000E77AF1EE10FA00DC87E02F4B4FF07E520C
:102EB0001A602C4B02221A702D484FF4004100F08A
:102EC00045FA7AE0284B93ED007A2A4BD3ED007A4D
:102ED00077EE677A244BC3ED007A0E4B93ED0C7AB4
:102EE000214BD3ED007AB4EEE77AF1EE10FA00DC74
:102EF00063E0084B1A6B1C4B1A601A4B03221A70C2
:102F00005BE0044B1A6B184B1A6056E0F49900080A
:102F100018090020480A0020100900201C09002080
:102F2000EC080020E17A943F0080BB462009002095
:102F30009A99193E24090020280900203D44B33EF7
:102F40002C0900209A99993E30090020340900206C
:102F5000380900203C0900204009002044090020D5
:102F600048090020E0080020E4080020E8080020CC
:102F7000000C0240FC080020994B93ED007A994B1D
:102F8000D3ED007A77EE677A954BC3ED007A944BD8
:102F9000D3ED007AF5EEC07AF1EE10FA00D40BE032
:102FA0008F4B4FF000021A608F4B00221A708F482F
:102FB0004FF4004100F0D8F900BF8D4B1B78042B73
:102FC00079D801A252F823F0DD2F0008E72F00087E
:102FD0002D3000086B30000875300008854B4FF02D
:102FE00000021A6067E0834B93ED007A824BD3EDC9
:102FF000007A77EE277A7F4BC3ED007A7D4B93ED15
:10300000007AF7EE007AB4EEE77AF1EE10FA00DC1F
:1030100051E0784B4FF07E521A60754B02221A70C5
:1030200072484FF4004100F091F944E0714B93ED88
:10303000007A724BD3ED007A77EE677A6D4BC3ED71
:10304000007A6F4B93ED107A6A4BD3ED007AB4EEB1
:10305000E77AF1EE10FA00DC2DE0694B1A6C654B53
:103060001A60634B03221A7025E0654B1A6C614BA2
:103070001A6020E05F4B93ED007A624BD3ED007A4B
:1030800077EE677A5B4BC3ED007A5A4BD3ED007A4B
:10309000F5EEC07AF1EE10FA00D40BE0554B4FF08C
:1030A00000021A60524B00221A7050484FF400413F
:1030B00000F05AF900BF4A4B93ED007ADFED527AE7
:1030C00027EE277A514BD3ED007A67EE277A504BE3
:1030D000C3ED007A4E4B93ED007ADFED4B7AB4EE00
:1030E000E77AF1EE10FA02DD494B4A4A1A60484B82
:1030F00093ED007ADFED487AB4EEE77AF1EE10FA5C
:1031000002D5434B454A1A60FA88FB8E1A44404B5D
:10311000D3ED007AFDEEE77A17EE903A9BB299B2C2
:103120003F4B23F81210FA88FB8E13445A1C384B7D
:10313000D3ED007AFDEEE77A17EE903A9BB299B2A2
:10314000374B23F81210FB8E0233FB86354B93ED81
:10315000007AD7ED077A77EE277A324BC3ED007A03
:10316000304B93ED007ADFED307AB4EEE77AF1EE92
:1031700010FA09DD2B4B93ED007ADFED2B7A77EE19
:10318000677A284BC3ED007A284B93ED007AD7ED90
:10319000067A77EE277A254BC3ED007A234B93ED21
:1031A000007ADFED217AB4EEE77AF1EE10FA09DD6C
:1031B0001E4B93ED007ADFED1C7A77EE677A1B4B9E
:1031C000C3ED007AFB8EB3F5A07FFFF4AFAA0748EA
:1031D0004FF4005100F0C8F83837BD4680BD00BF3D
:1031E000E4080020F4080020E0080020000C024061
:1031F000E1080020EC080020F00800200009002071
:10320000480A0020F808002000FEFF464809002078
:103210001C09002000FEFF4600FEFFC600FEFFC6A0
:10322000AC0A00200C090020000080441409002092
:1032300080B487B000AF7860396000237B610023E1
:103240003B610023FB6000237B6176E07B69012208
:1032500002FA03F33B613B681A683B691340FB6069
:10326000FA683B699A4265D17B681A687B695B00A2
:10327000032101FA03F3DB431A407B681A607B6881
:103280001A683B681B7919467B695B0001FA03F3F6
:103290001A437B681A603B681B79012B03D03B689B
:1032A0001B79022B2ED17B689A687B695B00032116
:1032B00001FA03F3DB431A407B689A607B689A68E3
:1032C0003B685B7919467B695B0001FA03F31A439B
:1032D0007B689A607B685A687B699BB2012101FA1E
:1032E00003F3DB431A407B685A607B685A683B688B
:1032F0009B7919467B699BB201FA03F39BB21A438F
:103300007B685A607B68DA687B699BB25B0003214B
:1033100001FA03F3DB431A407B68DA607B68DA6802
:103320003B68DB7919467B695B0001FA03F31A43BA
:103330007B68DA607B6901337B617B690F2B85D900
:103340001C37BD465DF8047B704700BF80B483B076
:1033500000AF78600B467B807B687A881A830C37D5
:10336000BD465DF8047B704780B483B000AF7860E1
:103370000B467B807B687A885A830C37BD465DF8A4
:10338000047B704780B483B000AF786013460A4670
:103390007A807B707B78002B03D07B687A881A83D5
:1033A00002E07B687A885A830C37BD465DF8047B5F
:1033B000704700BF80B485B000AF786013460A46FE
:1033C0007A807B700023FB600023BB607A787B8867
:1033D00003F007039B0002FA03F3FB607B88DB0822
:1033E0009BB21A467B88DB089BB219467B68083182
:1033F00053F821107B8803F007039B000F2000FA8D
:1034000003F3DB4319407B68083243F822107B88C2
:10341000DB089BB21A467B68083253F82220FB680F
:103420001343BB607B88DB089BB21A467B6808327B
:10343000B96843F822101437BD465DF8047B704725
:1034400080B500AF154B154AD2F8882042F47002BF
:10345000C3F88820124B124A126842F001021A6027
:103460000F4B00229A600E4A0D4B1B6823F08473A9
:1034700023F4803313600A4B0A4A5A60084B084A07
:10348000126822F480221A60054B0022DA6000F0F4
:103490000BF8024B4FF000629A6080BD00ED00E037
:1034A000003802401030002480B483B000AF002305
:1034B0007B6000233B60414B404A126842F48032FB
:1034C0001A603E4B1B6803F400333B607B6801339A
:1034D0007B603B68002B03D17B68B3F5A06FF0D114
:1034E000364B1B6803F40033002B02D001233B60F2
:1034F00001E000233B603B68012B42D12F4B2F4A58
:10350000126C42F080521A642D4B2D4A126842F41C
:1035100080421A60294B294A92689A60274B274AB1
:10352000926842F460429A60244B244A926842F4C2
:10353000E0529A60214B234A5A60204B1F4A12687E
:1035400042F080721A6000BF1C4B1B6803F00073CE
:10355000002BF9D01C4B40F205621A60174B174A3A
:10356000926822F003029A60144B144A926842F067
:1035700002029A6000BF114B9B6803F00C03082BFA
:10358000F9D10E4B0D4A926822F400029A600B4B5F
:103590000E4AC3F88420094B084A126842F0806240
:1035A0001A6000BF054B1B6803F00063002BF9D0C5
:1035B0000C37BD465DF8047B704700BF0038024001
:1035C0000070004008544007003C0240804000303A
:1035D00080B485B000AF78600B4B1B68002B02D124
:1035E000094B0A4A1A60084B1B68FB60064B1A68B5
:1035F0007B681A44044B1A60FB6818461437BD46B2
:103600005DF8047B704700BF4C090020D40F0020F8
:1036100080B483B000AF78607B681B6823F0010240
:103620007B681A607B6800221A607B6800225A60FF
:103630007B6800229A607B680022DA607B68002247
:103640001A617B6821225A617A68454B9A4203D1FC
:10365000444B3D229A607EE07A68434B9A4204D103
:10366000404B4FF474629A6075E07A683F4B9A421F
:1036700004D13C4B4FF474129A606CE07A683C4B76
:103680009A4204D1374B4FF074629A6063E07A68D3
:10369000384B9A4203D1334B374ADA605BE07A68A1
:1036A000364B9A4203D12F4B354ADA6053E07A68A1
:1036B000344B9A4203D12B4B334ADA604BE07A68A1
:1036C000324B9A4204D1274B4FF03D52DA6042E030
:1036D0007A682F4B9A4203D12E4B3D229A603AE0F2
:1036E0007A682D4B9A4204D12A4B4FF474629A6047
:1036F00031E07A68294B9A4204D1264B4FF4741278
:103700009A6028E07A68264B9A4204D1214B4FF008
:1037100074629A601FE07A68224B9A4203D11D4B73
:10372000154ADA6017E07A681F4B9A4203D1194BA9
:10373000134ADA600FE07A681C4B9A4203D1154BAA
:10374000114ADA6007E07A68194B9A4203D1114BAB
:103750004FF03D52DA600C37BD465DF8047B704790
:103760001060024000600240286002404060024059
:1037700058600240706002403D00002088600240B6
:10378000400F0020A060024000003D20B8600240D1
:103790001064024000640240286402404064024019
:1037A000586402407064024088640240A064024091
:1037B000B864024080B485B000AF786039600023FF
:1037C000FB607B681B68FB60FA68244B1340FB605E
:1037D0003B681A683B68DB681A433B685B691A43BD
:1037E0003B689B691A433B68DB691A433B681B6A69
:1037F0001A433B685B6A1A433B689B6A1A433B68FF
:103800005B6B1A433B689B6B1343FA681343FB6083
:103810007B68FA681A607B685B69FB60FB6823F071
:103820000703FB603B68DA6A3B681B6B1343FA686B
:103830001343FB607B68FA685A613B681A697B68CE
:103840005A603B685A687B689A603B689A687B68F4
:10385000DA601437BD465DF8047B70473F801CF08A
:1038600080B483B000AF78600B46FB70FB78002B10
:1038700006D07B681B6843F001027B681A6005E094
:103880007B681B6823F001027B681A600C37BD4619
:103890005DF8047B704700BF80B483B000AF7860F0
:1038A0007B685B689BB218460C37BD465DF8047BAD
:1038B000704700BF80B487B000AF786039600023E4
:1038C000FB750023FB607A68154B9A4202D8154BB2
:1038D0003B6101E0144B3B613B6803F00053002B5C
:1038E00003D03B695B68FB6002E03B691B68FB60DF
:1038F000FB6823F0F02323F08213FB60FA683B6837
:103900001340002B02D00123FB7501E00023FB755F
:10391000FB7D18461C37BD465DF8047B704700BF31
:103920000F640240006002400064024080B485B031
:1039300000AF786039607A68104B9A4202D8104B19
:10394000FB6001E00F4BFB603B6803F00053002B72
:1039500007D03B6823F0F02323F08213FA68D3608A
:1039600006E03B6823F0F02323F08213FA689360AB
:103970001437BD465DF8047B704700BF0F640240FA
:10398000006002400064024080B485B000AFF8607F
:10399000B9601346FB71BB6803F08003002B0FD0A6
:1039A000FB79002B06D0FB685B6943F08002FB6863
:1039B0005A6105E0FB685B6923F08002FB685A618D
:1039C000BB68802B14D0FB79002B08D0FB681A68E9
:1039D000BB6803F01E031A43FB681A6008E0FB682B
:1039E0001A68BB6803F01E03DB431A40FB681A60C9
:1039F0001437BD465DF8047B704700BF80B487B0C4
:103A000000AF786039600023FB750023FB60002362
:103A1000BB607A68224B9A4202D8224B3B6101E09C
:103A2000214B3B613B6823F0F02323F0C313002BB1
:103A30000AD03B68DB0A03F01E03FB607B681A6850
:103A4000FB681340BB6004E07B685B6903F08003A4
:103A5000BB603B6803F00053002B03D03B695B68FD
:103A6000FB6002E03B691B68FB60FB6823F0F0230E
:103A700023F08213FB60FA683B681340002B05D0EB
:103A8000BB68002B02D00123FB7501E00023FB750E
:103A9000FB7D18461C37BD465DF8047B704700BFB0
:103AA0000F640240006002400064024080B485B0B0
:103AB00000AF786039607A68104B9A4202D8104B98
:103AC000FB6001E00F4BFB603B6803F00053002BF1
:103AD00007D03B6823F0F02323F08213FA68D36009
:103AE00006E03B6823F0F02323F08213FA6893602A
:103AF0001437BD465DF8047B704700BF0F64024079
:103B0000006002400064024080B582B000AF78607F
:103B10007A68174B9A420AD14FF480500121FDF781
:103B2000EDFD4FF480500021FDF7E8FD1CE07A68C0
:103B3000104B9A420AD14FF480400121FDF7C0FD9D
:103B40004FF480400021FDF7BBFD0DE07A680A4B81
:103B50009A4209D14FF400400121FDF7B1FD4FF425
:103B600000400021FDF7ACFD0837BD4680BD00BF19
:103B70000030014000380040003C004080B48BB071
:103B800000AF7860396000237B830223FB8400232D
:103B9000BB8401237B840023FB6100237B61002322
:103BA0003B610023FB600023BB607B689B8B9BB267
:103BB00023F47B6323F00F039AB27B689A837B68BC
:103BC00002221A847B689B8B7B833B689B68022B59
:103BD00004D10023BB840223FB8471E03B689B88F3
:103BE000002B02D101237B8401E002237B844C4B18
:103BF0009B6803F40003002B05D0494B484A9268A8
:103C000022F400029A60464BD3F8842047F6C07332
:103C100013409B09C3F30803FB60414BD3F8843086
:103C200003F0E0431B0F03F00703BB603C4B5B68F2
:103C300003F03F033B613B4A3B69B2FBF3F3FA6895
:103C400002FB03F2BB68B2FBF3F37B613B68DB88EA
:103C5000B3F5007F0FD17B691A0A13469B0013440A
:103C60005B001A463B689B68B2FBF3F39BB20533DB
:103C70009BB2FB6111E07B8C5B017A69B2FBF3F2D2
:103C800013469B0013445B001A463B689B68B2FBDB
:103C9000F3F39BB205339BB2FB61FA69224BA3FBA2
:103CA0000213DB08FB61FB699BB203F00103BB84D9
:103CB000BB8CFA69D31A5B08FB84BB8C1B02BB84E8
:103CC000FB8C012B02D9FB8CFF2B03D90223FB8435
:103CD0000023BB843B68DA88BB8C13439AB2FB8C0D
:103CE00013439AB27B681A843B681A883B685988E8
:103CF0003B6898883B689B8903439BB20B439BB20C
:103D000013439AB27B8B13439BB243F400637B83D0
:103D10007B687A8B9A832C37BD465DF8047B7047AD
:103D20000038024000127A00CDCCCCCC80B483B0F5
:103D300000AF78600B46FB70FB78002B08D07B68E7
:103D40009B8B9BB243F480639AB27B689A8307E0B3
:103D50007B689B8B9BB223F480639AB27B689A83C7
:103D60000C37BD465DF8047B704700BF80B483B05C
:103D700000AF78600B467B807B687A889A810C372D
:103D8000BD465DF8047B704780B483B000AF7860B7
:103D900013460A467A807B707B78002B08D07B68BC
:103DA0009B889AB27B8813439AB27B689A8009E019
:103DB0007B689B889AB27B88DB439BB213409AB2A4
:103DC0007B689A800C37BD465DF8047B704700BF66
:103DD00080B485B000AF786013460A46FA70BB70B5
:103DE0000023FB810023BB81FB781B09DBB2FB8135
:103DF000FB89012202FA03F3BB81BB78002B08D0B8
:103E00007B689B889AB2BB8913439AB27B689A807D
:103E100009E07B689B889AB2BB89DB439BB2134065
:103E20009AB27B689A801437BD465DF8047B704770
:103E300080B485B000AF78600B467B800023FB73B5
:103E40007B681B899AB27B8813409BB2002B02D0FF
:103E50000123FB7301E00023FB73FB7B184614373F
:103E6000BD465DF8047B704780B582B000AF7860D6
:103E70007A68174B9A420AD14FF400100121FDF7DE
:103E80001FFC4FF400100021FDF71AFC1CE07A68BB
:103E9000104B9A420AD14FF480000121FDF710FC2B
:103EA0004FF480000021FDF70BFC0DE07A680A4B0F
:103EB0009A4209D14FF400000121FDF701FC4FF4B3
:103EC00000000021FDF7FCFB0837BD4680BD00BFA8
:103ED0000054004000580040005C004080B58AB0AB
:103EE00000AF786039600023FB8400237B840423C7
:103EF000BB84574BFB617B689B88FB84FB8C23F066
:103F00003F03FB8407F10C031846FDF7D5FA7B69E4
:103F1000FB61FA694F4BA3FB02139B0C7B84FA8C69
:103F20007B8C1343FB847B68FA8C9A807B681B88AC
:103F30009BB223F001039AB27B681A800023FB84B2
:103F40003B681A68444B9A4215D83B681B685B0073
:103F5000FA69B2FBF3F3BB84BB8C032B01D80423B7
:103F6000BB84FA8CBB8C1343FB847B8C01339AB2E9
:103F70007B681A8440E03B68DA884BF6FF739A420C
:103F800009D13B681A6813465B001344FA69B2FB17
:103F9000F3F3BB840EE03B681A6813469B0013449E
:103FA0009A001344FA69B2FBF3F3BB84BB8C43F46D
:103FB0008043BB84BB8CC3F30B03002B03D1BB8CAE
:103FC00043F00103BB84BA8CFB8C13439BB26FEAB2
:103FD00043436FEA5343FB847B8C4FF4967202FB9E
:103FE00003F31E4A82FB03129211DB17D31A9BB212
:103FF00001339AB27B681A847B68FA8C9A837B6857
:104000001B889BB243F001039AB27B681A807B68DD
:104010001B88FB84FB8C23F4816323F00203FB8465
:104020003B689A883B685B8913439AB2FB8C1343C5
:10403000FB847B68FA8C1A803B689A893B681B89F1
:1040400013439AB27B681A812837BD4680BD00BFF2
:1040500000127A0083DE1B43A0860100D34D62105C
:1040600080B483B000AF78600B46FB70FB78002B08
:1040700008D07B681B889BB243F001039AB27B682F
:104080001A8007E07B681B889BB223F001039AB279
:104090007B681A800C37BD465DF8047B704700BF13
:1040A00080B483B000AF78600B46FB70FB78002BC8
:1040B00008D07B681B889BB243F480739AB27B68FC
:1040C0001A8007E07B681B889BB223F480739AB246
:1040D0007B681A800C37BD465DF8047B704700BFD3
:1040E00080B483B000AF78600B46FB70FB78002B88
:1040F00008D07B681B889BB243F400739AB27B683C
:104100001A8007E07B681B889BB223F400739AB285
:104110007B681A800C37BD465DF8047B704700BF92
:1041200080B483B000AF786013460A46FA70BB7063
:10413000BB78002B04D0FB7843F00103FB7003E055
:10414000FB7823F00103FB70FB789AB27B681A823C
:104150000C37BD465DF8047B704700BF80B483B068
:1041600000AF78600B46FB70FB78002B08D07B68B3
:104170001B889BB243F480639AB27B681A8007E085
:104180007B681B889BB223F480639AB27B681A8099
:104190000C37BD465DF8047B704700BF80B483B028
:1041A00000AF78600B46FB70FB789AB27B681A828E
:1041B0000C37BD465DF8047B704700BF80B483B008
:1041C00000AF78607B681B8A9BB2DBB218460C3765
:1041D000BD465DF8047B704780B487B000AF78605F
:1041E000396000233B610023FB600023BB60002398
:1041F000FB757B689B8A9BB2FB607B681B8B9BB2C9
:10420000BB60BB681B04BB60FA68BB68134323F048
:104210007F433B613A693B681A403B689A4202D14E
:104220000123FB7501E00023FB75FB7D18461C375D
:10423000BD465DF8047B704780B487B000AF7860FE
:1042400039600023FB7500233B610023FB607B6822
:10425000FB603B681B0F3B613B6823F07F433B6087
:104260003B69002B03D0FB681433FB6005E03B681F
:104270001B0C3B60FB681833FB60FB681A683B68EB
:104280001340002B02D00123FB7501E00023FB75D6
:10429000FB7D18461C37BD465DF8047B704700BFA8
:1042A00080B485B000AF786039600023FB603B6864
:1042B00023F07F43FB60FB689BB2DB439AB27B68D1
:1042C0009A821437BD465DF8047B704780B483B092
:1042D00000AF7860054A7B6843F0BF6343F4003366
:1042E000D3600C37BD465DF8047B704700ED00E0FD
:1042F00080B485B000AF78600023FB730023BB73EC
:104300000F237B737B68DB78002B37D0254BDB6872
:10431000DB4303F4E0631B0AFB73FB7BC3F1040381
:10432000BB737A7BFB7B42FA03F37B737B685B781E
:104330001A46BB7B02FA03F3FB737B689A787B7B9C
:104340001340DAB2FB7B1343FB73FB7B1B01FB7354
:10435000154A7B681B781344FA7B83F80023124BC1
:104360007A6812785209D2B27968097801F01F018F
:10437000012000FA01F143F822100EE00A4B7A689E
:1043800012785209D2B27968097801F01F01012030
:1043900000FA01F1203243F822101437BD465DF8CF
:1043A000047B704700ED00E000E100E080B596B0CE
:1043B00000AF4FF480200121FDF746F94FF40010C3
:1043C0000121FDF723F94FF440733B65022387F881
:1043D0005430022387F85530002387F856300123E4
:1043E00087F8573007F150033B481946FEF720FF86
:1043F000394808210722FEF7DDFF37480921072247
:10440000FEF7D8FF47F612233B640023A7F8443099
:104410000023A7F846300023A7F848300023A7F868
:104420004C300423A7F84A3007F140032B481946C3
:10443000FCF754FC0C2387F83C30002387F83D3010
:10444000002387F83E30012387F83F3007F13C0313
:104450001846FFF74DFF4FF4A060FFF737FF1F48E6
:104460000121FCF7F5FC1E48FFF7D2F84FF000637E
:104470003B600023FB601B4BBB6040233B611A4B3E
:104480007B6000237B614FF48063BB610023FB6191
:1044900000233B624FF480737B624FF40033BB62B6
:1044A0000023FB6203233B6300237B630023BB6386
:1044B0003B460B481946FFF77DF908484021012289
:1044C000FCF7F8FC06480121FFF7CAF9054B18462E
:1044D0005837BD4680BD00BF000C02400048004078
:1044E00028600240500900200448004080B584B094
:1044F00000AF78600023FB811248FFF7CDF9034637
:10450000BB81114B1B88BA899A4214D00E4B1B8871
:10451000BA899A4205D20C4B1A88BB89D31AFB81FF
:1045200006E0094B1A88BB89D31A9BB24033FB8142
:10453000054BBA891A80FB89DBB218461037BD4695
:1045400080BD00BF286002407804002080B584B0A0
:1045500000AF78600B46FB7044E2A44B1B787A688E
:1045600013441B78FB73FB7BF82B02D0FB7BFE2BE9
:1045700011D19E4B1B783F2B03D19C4B00221A700C
:1045800005E09A4B1B780133DAB2984B1A70FB782E
:10459000013BFB7026E2964B1B78292B00F222820E
:1045A00001A252F823F000BF51460008E549000877
:1045B000E5490008E5490008E5490008E549000823
:1045C000E5490008E5490008E5490008E549000813
:1045D0003D4700087D470008E5490008E549000817
:1045E000E5490008E5490008E5490008E5490008F3
:1045F000E5490008E5490008354800087548000805
:10460000E5490008E5490008E5490008E5490008D2
:10461000E5490008E5490008E5490008E5490008C2
:10462000CF4800080F490008E5490008E54900089F
:10463000E5490008E5490008E5490008E5490008A2
:10464000E5490008E5490008534900089349000876
:10465000FB7B03F0F003902B09D0902B02DC802B26
:104660001AD058E0B02B2CD0E02B3FD053E0604B59
:104670000A221A705D4B1B783F2B03D15B4B002243
:104680001A7005E0594B1B780133DAB2574B1A7098
:10469000FB78013BFB7050E0554B14221A70534BD2
:1046A0001B783F2B03D1514B00221A7005E04F4B72
:1046B0001B780133DAB24D4B1A70FB78013BFB706B
:1046C0003BE04B4B1E221A70484B1B783F2B03D10B
:1046D000464B00221A7005E0444B1B780133DAB2D6
:1046E000424B1A70FB78013BFB7026E0404B2822BE
:1046F0001A703E4B1B783F2B03D13C4B00221A70A3
:1047000005E03A4B1B780133DAB2384B1A70FB786C
:10471000013BFB7011E0354B1B783F2B03D1334B32
:1047200000221A7005E0314B1B780133DAB22F4BAF
:104730001A70FB78013BFB7000BF53E1FB7B5BB25F
:10474000002B03DA2A4B00221A704BE1294BFA7B2B
:104750001A70264B1B783F2B03D1244B00221A7072
:1047600005E0224B1B780133DAB2204B1A70FB783C
:10477000013BFB701E4B0B221A7033E11E4BFA7B80
:104780001A701A4B1B783F2B03D1184B00221A705A
:1047900005E0164B1B780133DAB2144B1A70FB7824
:1047A000013BFB70124B0A221A70134B1B78002B33
:1047B0002AD0104B1B781A460F4B1B780F48114616
:1047C0001A46FDF7A3FE0E4B19680A4B1A780A4BDE
:1047D0001B78084611461A46FCF71CFC0246084B9B
:1047E0001A60084B01221A70FCE000BF90090020FB
:1047F000910900209209002093090020F4B90008D3
:1048000094080020A00A00207A4B1B781A467A4BA5
:104810001B787A4811461A46FDF778FE784B1A68DD
:10482000744B1B7810461946FCF722FC0246744B69
:104830001A60D7E0FB7B5BB2002B03DA714B0022DE
:104840001A70CFE06B4BFA7B1A706F4B1B783F2BC3
:1048500003D16D4B00221A7005E06B4B1B780133BE
:10486000DAB2694B1A70FB78013BFB70654B15227D
:104870001A70B7E0604BFA7B1A70634B1B783F2BC2
:1048800003D1614B00221A7005E05F4B1B780133A6
:10489000DAB25D4B1A70FB78013BFB70594B142266
:1048A0001A70544B1B781A46534B1B7857481146C5
:1048B0001A46FDF72BFE524B1A684E4B1B781046DA
:1048C0001946FCF7D5FB02464D4B1A608AE0FB7B8C
:1048D0005BB2002B03DA4B4B00221A7082E04C4B88
:1048E000FA7B1A70484B1B783F2B03D1464B0022B2
:1048F0001A7005E0444B1B780133DAB2424B1A7050
:10490000FB78013BFB703F4B1F221A706AE0414B62
:10491000FA7B1A703C4B1B783F2B03D13A4B002299
:104920001A7005E0384B1B780133DAB2364B1A7037
:10493000FB78013BFB70334B1E221A70344B1B7803
:104940001A46344B1B78344811461A46FDF7DEFDF3
:1049500048E0FB7B5BB2002B03DA2A4B00221A7083
:1049600040E02E4BFA7B1A70274B1B783F2B03D16C
:10497000254B00221A7005E0234B1B780133DAB275
:10498000214B1A70FB78013BFB701E4B29221A70D9
:1049900028E0234BFA7B1A701B4B1B783F2B03D16B
:1049A000194B00221A7005E0174B1B780133DAB25D
:1049B000154B1A70FB78013BFB70194B1B78BB81C0
:1049C000BB89DB01BB81154B1B781A46BB8913439E
:1049D000BB81BB8913481946FDF798FD094B282276
:1049E0001A7000BFFB78002B7FF4B7AD1037BD46BF
:1049F00080BD00BF920900209309002008BA00087A
:104A00009408002091090020900900201CBA000899
:104A1000940900209509002030BA0008960900206A
:104A2000970900203CBA0008024B0146186800F0C4
:104A30000BB800BF70040020024B0146186800F05C
:104A400003BB00BF700400202DE9F04F01F10B05FE
:104A5000162D83B0064627D935F0070527D4A9427D
:104A600025D8304600F08CFAB5F5FC7F26D2C14F30
:104A70004FEAD50C07EBCC03DC689C4200F0D281F6
:104A80006368E268A16823F00303234430465D684D
:104A9000CA6045F0010591605D6000F073FA08346A
:104AA000204603B0BDE8F08F1025A942D9D90024D3
:104AB0000C232046336003B0BDE8F08F5FEA552C2D
:104AC00000F08A80BCF1040F00F260814FEA951C6F
:104AD0000CF1380C4FEA4C01A64F07EB8101CC6872
:104AE000A14205D10CE0002B7ADAE468A14207D09C
:104AF000626822F00302531B0F2BF4DD0CF1FF3C24
:104B00000CF1010C9B4B3C6903F1080E744500F05D
:104B10007E81616821F003014A1B0F2A00F3648142
:104B2000002AC3F814E0C3F810E06ADAB1F5007F98
:104B300080F03A81C90803EBC1004FEAA1085A6826
:104B40008168A1604FF0010909FA08F848EA0202F9
:104B5000E0605A608460CC604FEAAC03012098406A
:104B600090425BD8024206D12CF0030C4000024276
:104B70000CF1040CFAD007EBCC084446E146E3689C
:104B80009C4207D145E1002A80F25681DB689C42B5
:104B900000F03F81596821F003014A1B0F2AF2DD22
:104BA0001C46D3F80CC054F8088F591945F0010978
:104BB00042F00105C3F804903046C8F80CC0CCF8A8
:104BC000088079613961C1F80CE0C1F808E04D60F6
:104BD0008A5000F0D7F963E77E214FF03F0C7BE766
:104BE0002244E3685068A16840F00105CB6030467C
:104BF0009960556000F0C6F90834204603B0BDE85E
:104C0000F08F214430464B6843F001034B6000F0C5
:104C1000B9F90834204603B0BDE8F08FBC6863687A
:104C200023F00309A94504D3C5EB09030F2B00F3B7
:104C30009180514B514A19681368013305EB010A01
:104C400004EB090B00F061810AF5805A0AF10F0AA2
:104C50002AF47F6A2AF00F0A30465146019200F08A
:104C600093F9B0F1FF3F8046019A00F0008183453F
:104C700000F2FA80DFF810C1DCF80030C34553447D
:104C8000CCF8003000F04A8112683C4901321BBF69
:104C9000CBEB080B5B44C1F80080CCF8003018F077
:104CA000070300F01381C3F10802C3F58053904459
:104CB0000833C244CAF30B0ACAEB030A5146304612
:104CC000CDF804C000F060F9431CDDF804C000F02A
:104CD0003581C8EB0002524442F00102DCF800309A
:104CE000C7F808805344BC42C8F80420CCF8003010
:104CF000DFF894A015D0B9F10F0F40F2EA80616897
:104D0000A9F10C0222F0070201F0010EA118052002
:104D100042EA0E0E0F2AC4F804E04860886000F2F0
:104D20001181174ABC6811688B4288BF1360154A0D
:104D300011688B4288BF1360626822F003029542BB
:104D4000C5EB020301D80F2B04DC304600F01AF942
:104D50000024A5E6621943F0010345F001056560F2
:104D60003046BA60536000F00DF90834204603B0B5
:104D7000BDE8F08F7C040020A009002088080020F6
:104D80009C09002098090020A4090020BCF1140F00
:104D900061D9BCF1540F00F28F804FEA153C0CF141
:104DA0006E0C4FEA4C0197E64B0A042B58D9142B92
:104DB00000F2AE8003F15B02500007EB8000DFF8E9
:104DC000BC818368834200F08A805A6822F0030223
:104DD000914202D29B689842F7D1D9687A68E16023
:104DE000A3608C60DC60B7E6611942F0010745F012
:104DF00001056560304659611961C1F80CE0C1F8E0
:104E000008E04F608A50083400F0BCF848E65A6861
:104E1000A2E609F1010919F0030F04F108047FF477
:104E2000AEAE2DE004F108036469A34208BF0CF1A3
:104E3000020C3FF467AE23E619441C464868DB6861
:104E400054F8082F40F001054D603046D3609A6059
:104E500000F098F824E60CF15B0C4FEA4C013BE6BD
:104E60008A0938325000A8E7BC423FF403AFBC685F
:104E7000626822F0030262E7D8F8008098457BD18F
:104E80001CF0030FA8F108030CF1FF3CF4D17B6880
:104E900023EA00037B60400098423FF6BFAE002843
:104EA0003FF4BCAE0342CC467FF465AE4000034203
:104EB0000CF1040CFAD05EE6BCF5AA7F1AD84FEAD2
:104EC000D53C0CF1770C4FEA4C0105E64FF48053CA
:104ED000EFE60123C8F80430444600222FE7911082
:104EE0000120D8F8042000FA01F10A43C8F8042090
:104EF000194674E740F254539C451BD84FEA954C31
:104F00000CF17C0C4FEA4C01E6E50AF1100AA3E62D
:104F1000542B1FD80A0B6E3250004EE7CBF30B0117
:104F200000297FF4B1AE0AEB0901BA6841F0010132
:104F30005160F6E6FC214FF07E0CCDE501224FF0EA
:104F4000000ACBE604F10801304600F07DF8DAF8FB
:104F50000030E6E6B3F5AA7F03D8CA0B77325000DB
:104F60002BE740F25452934203D88A0C7C32500013
:104F700023E7FC207E2220E77B688CE77C0400206E
:104F8000704700BF704700BF38B5074C0023054687
:104F900008462360FEF71CFB431C00D038BD236885
:104FA000002BFBD02B6038BDD00F0020F8B5234D6F
:104FB0000F460446FFF7E4FFAB685E6826F0030681
:104FC000F11B01F6EF7121F47F6121F00F01A1F5D2
:104FD0008057B7F5805F07DB20460021FFF7D4FF3D
:104FE000AB683344984204D02046FFF7CBFF002043
:104FF000F8BD20467942FFF7C7FF01300DD0104BB6
:10500000AA681968F61B46F001062046C91B5660BF
:105010001960FFF7B7FF0120F8BD20460021FFF718
:10502000B3FFAB68C21A0F2ADEDD064D04492D68B6
:1050300042F00102401B5A600860D5E77C04002062
:10504000A4090020880800202DE9F0410D460646FD
:10505000002955D0FFF794FF55F8041CDFF874C100
:1050600021F00103A5F10804E218DCF808005768F4
:10507000904227F0030769D011F00101576032D048
:105080000021D0194068C00706D43B44906800292D
:105090004ED0D268C260906043F001026260E3507B
:1050A000E1B9B3F5007F2DD35A0A042A6AD89809CA
:1050B000383041000CEB810C4649DCF80820624591
:1050C00066D0516821F003018B4202D29268944568
:1050D000F7D1D368E360A2609C60D4603046BDE83D
:1050E000F041FFF74FBF55F8085C641B0CF108084E
:1050F000A06840452B4443D0E568C560A860C0E780
:10510000BDE8F081DB080CEBC3020125DCF80400EC
:105110009168A1609B1005FA03F31843E260CCF894
:10512000040094603046CC60BDE8F041FFF72ABF30
:10513000294DA842ADD143F00102CCF81440CCF87F
:105140001040E060A0606260E350C7E71F44CB07F7
:1051500007D455F8083CE41A1F44A268E368D360FA
:105160009A601E4B1B6847F001029F426260CCF8B8
:105170000840B3D31A4B30461968FFF717FFADE765
:1051800001217EE7142A0CD802F15B00410091E76F
:105190004B688010012505FA00F003434B6013466D
:1051A00098E7542A03D8180B6E30410082E7B2F515
:1051B000AA7F03D8D80B773041007BE740F25451E7
:1051C0008A4203D8980C7C30410073E7FC217E2092
:1051D00070E700BF7C0400208404002084080020C5
:1051E000A0090020CDCC82415C8F8A41CDCC924178
:1051F0009A999B41CDCCA441D7A3AE41C3F5B84108
:105200000000C44114AECF410000DC41B81EE941AA
:10521000C3F5F641CDCC02429A990A420AD712420E
:105220005C8F1B42CDCC24429A992E420000394219
:1052300000004442D7A34F4200005C427B14694205
:10524000C3F57642ECD182429A998A420AD79242B9
:105250005C8F9B42ECD1A442B89EAE420000B942A2
:105260000000C442F6A8CF420000DC427B14E942B1
:10527000A4F0F6425CCF02430A970A437BD4124360
:105280005C8F1B435CCF2443299C2E430000394391
:105290000000444366A64F4300005C437B1469430F
:1052A000A4F07643A4D082430A978A437BD49243E6
:1052B000A4909B43A4D0A443719DAE43B8FEB843D1
:1052C0000000C44366A6CF430000DC437B14E943DF
:1052D000A4F0F64300D00244AE970A441FD512440E
:1052E00000901B44A4D02444719D2E445CFF38449C
:1052F0005CFF43440AA74F4400005C441F15694407
:1053000048F1764400D082445C978A441FD5924489
:1053100052909B4452D0A4441F9DAE445CFFB844BD
:105320005CFFC3440AA7CF440000DC441F15E944D6
:10533000F6F0F64400D002455C970A451FD51245A9
:1053400052901B4552D02445489D2E455CFF384560
:105350005CFF43450AA74F4500005C45F6146945CC
:105360001FF1764514D082455C978A451FD592453A
:105370003D909B450A000000496E69742074657277
:105380006D696E6174656420000000000000803F5C
:10539000B03D833F0490863FF9F7893F36768D3FD5
:1053A0000F0B913FD8B6943FE17A983FD6569C3F79
:1053B000064CA03F185BA43F0E84A83F36C8AC3F04
:1053C000E527B13F16A4B53F1D3DBA3FF5F3BE3FFB
:1053D0009BC9C33F62BEC83F46D3CD3F4209D33FBE
:1053E000FE60D83F23DBDD3FFF78E33F3A3BE93FF8
:1053F000D122EF3F6A30F53F5665FB3F48E1004060
:1054000089240440EE7C0740F2EA0A403F6F0E40D8
:10541000520A1240D3BC154040871940166A1D40FD
:1054200051662140467C2540C5AC29404DF82D40B1
:10543000D95F3240BDE33640F5843B4052444040A2
:1054400053224540C91F4A40B03D4F40D97C54408B
:10545000ECDD5940BB615F406C096540D0D56A40C6
:10546000B9C7704022E0764008207D4033C48140B7
:10547000300D8540666B88408FDF8B40016A8F401E
:10548000630B93405DC496406C959A40397F9E4073
:105490006B82A240959FA64073D7AA40992AAF403D
:1054A000C499B340AF25B84018CFBC40BC96C140AA
:1054B000567DC640A583CB408FAAD040D0F2D540C0
:1054C000645DDB4007EBE040A29CE6402E73EC40BD
:1054D0007E6FF240A392F84098DDFE40A2A8024100
:1054E00066F70541965B0941C5D50C4171661041CF
:1054F000410E1441C8CD17418FA51B413E961F4157
:105500007BA02341E5C4274123042C41F25E3041B6
:10551000EFD53441E26939417C1B3E417BEB42418E
:10552000BADA4741E2E94C41E31952417B6B5741FA
:1055300085DF5C41F37662419632684160136E41CB
:10554000411A744136487A411D4F8041A58E8341EE
:1055500035E38641604D8A41A9CD8D41A9649141D1
:10556000E7129541FCD898418BB79C4130AFA041E0
:1055700083C0A44137ECA841F432AD416795B141F5
:105580004614B64140B0BA41216ABF41FFFFFFFF58
:10559000FFFFFFFFFFFFFFFFFFFFFFFFFFFFFFFF1B
:1055A000FFFFFFFFFFFFFFFFFFFFFFFFFFFFFFFF0B
:1055B000FFFFFFFFFFFFFFFFFFFFFFFFFFFFFFFFFB
:1055C000FFFFFFFFFFFFFFFFFFFFFFFFFFFFFFFFEB
:1055D000FFFFFFFFFFFFFFFFFFFFFFFFFFFFFFFFDB
:1055E000FFFFFFFFFFFFFFFFFFFFFFFFFFFFFFFFCB
:1055F000FFFFFFFFFFFFFFFFFFFFFFFFFFFFFFFFBB
:10560000FFFFFFFFFFFFFFFFFFFFFFFFFFFFFFFFAA
:10561000FFFFFFFFFFFFFFFFFFFFFFFFFFFFFFFF9A
:10562000FFFFFFFFFFFFFFFFFFFFFFFFFFFFFFFF8A
:10563000FFFFFFFFFFFFFFFFFFFFFFFFFFFFFFFF7A
:10564000FFFFFFFFFFFFFFFFFFFFFFFF0000000066
:105650000100000002000000030000000400000040
:105660000500000006000000070000000800000020
:1056700009000000FFFFFFFFFFFFFFFFFFFFFFFF2D
:10568000FFFFFFFFFFFFFFFFFFFFFFFFFFFFFFFF2A
:10569000FFFFFFFFFFFFFFFFFFFFFFFFFFFFFFFF1A
:1056A000FFFFFFFFFFFFFFFFFFFFFFFFFFFFFFFF0A
:1056B000FFFFFFFFFFFFFFFFFFFFFFFFFFFFFFFFFA
:10598000FFFFFFFFFFFFFFFFFFFFFFFF0A43432073
:1059900025643B20256400004F73633120776176D6
:1059A00065666F726D2073657420746F2025640ABC
:1059B000000000004F7363322077617665666F7276
:1059C0006D2073657420746F2025640A0000000048
:1059D000737464696F2E633A20696E6372656173D4
:1059E00065204D41585F535452494E475F53495AC1
:1059F000450A0D0000000000789CA23D0C07223EE5
:105A00000395713E4AB59F3E187DC53EB1E1E93E22
:105A1000BD52063FB4C8163F2E39263FDA8F343FB9
:105A2000B6B9413F00A94D3F3B53583FD9B1613F03
:105A300094C1693F0A85703F2A00763F213C7A3F36
:105A400063457D3F022B7F3F0000803FAED87F3F04
:105A5000FBCB7E3FD0F27C3FB2687A3FD847773F9E
:105A600071AC733F03B26F3F0C766B3F1B12673F05
:105A700066A0623F7E3A5E3FA9F6593F3AE9553F3C
:105A80008126523FE8BC4E3FDCBA4B3FD82A493F03
:105A9000BA14473F677E453FD769443F62D6433FCC
:105AA0006AC1433FAF25443FFCFB443F7E3A463F3B
:105AB000B6D6473F8BC3493FE0F34B3FFB574E3FC2
:105AC00019E2503F2783533FC32A563F29CB583F03
:105AD00097565B3F48BF5D3F72F95F3F98FA613F61
:105AE0008CB9633FC22F653FAC56663F5A2A673F69
:105AF0007EA9673F6FD3673F26AA673FE830673FBD
:105B00004C6C663FE162653FDA1B643F66A0623F12
:105B100009F9603FE8305F3F7E525D3F49685B3F77
:105B20006B7D593FBB9B573F0CCD553F821C543F6B
:105B3000AC90523F0E32513F3507503F62154F3FF8
:105B4000D95F4E3FE2E94D3F24B44D3FA1BE4D3FEA
:105B500007084E3F118D4E3FCF494F3F0439503F0C
:105B6000CA54513FEA95523F88F4533F6E69553FFE
:105B700070EB563FB072583FA9F6593F2F6E5B3F0E
:105B80000BD25C3FB01B5E3F42435F3F8143603FAF
:105B9000D717613F56BC613FB62D623F516B623FE4
:105BA0007E74623F3D49623F85EB613FF65D613F38
:105BB00027A5603F05C55F3F76C35E3FB9A55D3F42
:105BC00004735C3FE4315B3F8EE9593F90A0583F3E
:105BD000705F573F6B2B563F5F0C553FE206543FBB
:105BE000DA20533F355E523F33C4513F7A53513F21
:105BF000F90F513F09F9503FF90F513F2A52513FD8
:105C0000F5BE513F1153523F910A533F87E1533F35
:105C10005BD3543F7FD9553F0FEE563F740C583F2E
:105C2000CF2C593FE4495A3F255D5B3F52615C3FB1
:105C3000DF4F5D3FDD245E3FB6DB5E3F22715F3F9D
:105C400033E15F3F992A603F064C603F7845603FF3
:105C5000F016603F65C25F3F28495F3F7DAE5E3F03
:105C600055F65D3F46255D3F963E5C3FD4485B3F21
:105C700095485A3F6744593F3A40583F4243573F3F
:105C8000BD52563F9B72553FC1A8543F1EF9533F2A
:105C90005166533F49F4523FA4A5523F637A523FA5
:105CA0007E74523FA392523FD4D4523FC139533FE6
:105CB0007BBD533FB35E543FD218553F43E7553F3A
:105CC00015C6563FB4B0573F38A1583F0C93593FC3
:105CD00049805A3F5A645B3FA83A5C3FF4FD5C3F01
:105CE00050AA5D3F753C5E3F1CB15E3F4F065F3F73
:105CF000153A5F3F1F4B5F3F153A5F3FF7065F3F27
:105D000014B35E3F64405E3F85B15D3FC0095D3FB7
:105D1000594C5C3F917E5B3F55A45A3F94C1593F1B
:105D2000DBDC583F1AFA573FE71D573F274E563FD7
:105D30007A8D553FC6E1543F514E543F13D5533FE2
:105D4000FB79533FB03D533F2922533F6727533FD1
:105D5000124E533F3194533F77F8533FEA78543F04
:105D6000EC12553FE8C1553F3C83563F5452573FD4
:105D7000992A583FCD06593FA8E3593F9DBA5A3F4B
:105D800066885B3F6B485C3F6FF55C3F7A8D5D3F9B
:105D90004E0B5E3F446E5E3F14B35E3F6FD85E3F76
